:100000000C94FD000C941A010C941A010C941A0122
:100010000C94A2310C94AE300C9475310C941B31BD
:100020000C9448310C9481300C94EE300C942E30AA
:100030000C941A010C94B1320C941A010C9476327F
:100040000C9458010C941A010C941A010C941A0186
:100050000C941A016A276C276C276C276C276C2775
:100060006C276C276C276C276C276C276C276C27F8
:100070006C276C276A276C276C276C276C276C27EA
:100080006C276C276C276C276C276C276C276C27D8
:100090006C276C276A276C276C276C276C276C27CA
:1000A0006C276C276C276C276C276C276C276C27B8
:1000B0006C276C276A276C276C276C276C276C27AA
:1000C0006C276C276C276C276C276C276C276C2798
:1000D0006C276C2768276C276C276C276C276C278C
:1000E0006C276C276C276C276C276C276C276C2778
:1000F0006C276C2768276C276C276C276C276C276C
:100100006C276C276C276C276C276C276C276C2757
:100110006C276C276A276C276C276C276C276C2749
:100120006C276C276C276C276C276C276C276C2737
:100130006C276C276C2768276A2768276C276C2731
:100140006E276C276E276E276E276E276E276C270B
:100150006E276E27AD2AB62A1D2B242B082C082CBF
:10016000082C082C082C082CB32BB92BCC2BDF2BFC
:10017000F42B001F000000001F00001F10101010C3
:100180001F00001F181818181F00001F1C1C1C1C23
:100190001F00001F1E1E1E1E1F00001F1F1F1F1FEF
:1001A0001F0003070F1F0F070300001F1F1F1F1F44
:1001B0001F001B1B1B1B1B1B1B00181C1E1F1E1CB8
:1001C00018000004040E0E1F1F00001F1F0E0E0457
:1001D00004000000000000000000000E1915130EBE
:1001E0000000000E1515150E0000000E1315190E57
:1001F0000000000E111F110E000011241FBECFE5DC
:10020000D8E0DEBFCDBF12E0A0E6B0E0E2E8F9E65C
:1002100002C005900D92A430B107D9F723E0A4E005
:10022000B2E001C01D92A430B207E1F70E94D91CD0
:100230000C94BF340C94000096B1987F892B86B93A
:10024000089527B12F7330E4839FC0011124822BBE
:1002500087B90895379A359886E00E941C0181E09D
:100260000E9421013D98339A1092CD02789408950E
:1002700097B1907E8F71892B87B90895349A369AF9
:1002800008951092CD0297B1907E8F71892B87B916
:10029000349A369A3699FECF84B125B190E0922BEC
:1002A00008950E94410196958795969587950895A2
:1002B0001F920F920FB60F9211248F9381E08093BB
:1002C000CD028F910F900FBE0F901F901895FC01DB
:1002D0008FB7F894718360835383428317821682A9
:1002E000158214828FBF0895FC019FB7F894448152
:1002F000558141155105C9F026813781A081B18111
:10030000A20FB31F8C912F5F3F4F378326836281EB
:1003100073812617370720F0261B370B3783268378
:10032000415051095583448301C080E09FBF089527
:10033000CF93FC01C62F4FB7F89424813581628199
:1003400073812617370798F486819781820F931F50
:100350000E94F032A081B181A80FB91FCC93848193
:1003600095810196958384834FBF8FEF02C04FBF65
:1003700080E0CF910895CF93DF9342305105C0F0D4
:10038000DB01FC019A01CD91DD91C193D193225003
:10039000310922303105B8F79A01225031092E7FF8
:1003A0002E5F3F4F820F931F620F731F41705527BF
:1003B0004115510549F0DB01FC01480F591F9D9182
:1003C0009193E417F507D9F7DF91CF9108950F9333
:1003D0001F93CF93DF93FB013996DC011E960D919D
:1003E0001D912D913C915197012B022B032B09F468
:1003F00051C052964D915C915397EA0188818032A9
:10040000B9F09A012F5F3F4FDB01519695EE05C081
:10041000E90189919E01803269F0853009F4892FC4
:100420003196EF0121978883EA17FB0789F703C00C
:10043000DF0101C0DF01FA018085803269F08EE2C0
:100440008C938085803241F5FD01319606C0FD0117
:10045000349613968C9301C0FD01DA011B968C91A2
:100460001B97EB0188875C968D919D910D90BC91B7
:10047000A02D88839983AA83BB83DA0158968D9136
:100480009C9159979D838C8356968D919C915797FB
:100490009F838E83108211C0FD01329611968C933A
:1004A0001197EA0189858032C1F2319612968C93B8
:1004B00012978A85803259F6D0CFDF91CF911F9164
:1004C0000F9108954F925F926F927F92AF92BF9279
:1004D000CF92DF92EF92FF920F931F93CF93DF9310
:1004E000FC01C6A4D7A4E0A8F1A8C416D506E60668
:1004F000F70609F44FC02A013B01EC0184818823EF
:10050000A1F15F01F2E3AF0EB11C01E0A70196017A
:10051000B50189810E94112A81113EC01C824AA125
:100520005BA16CA17DA18E8D9F8DA8A1B9A1840F27
:10053000951FA61FB71FC816D906EA06FB06A8F422
:100540001B81123090F08E8D9F8DA8A1B9A1C80E8D
:10055000D91EEA1EFB1E01E0A7019601B5018981A3
:100560000E94112A1150113071F741145104610495
:100570007104A1F001E0A3019201BE016E5C7F4F06
:1005800089810E94BE2981110BC04EA65FA668AA70
:1005900079AA07C080E005C081E003C080E001C007
:1005A00081E0DF91CF911F910F91FF90EF90DF904D
:1005B000CF90BF90AF907F906F905F904F900895D5
:1005C0000F93CF93DF93EC019A01AB01BC016E5CFA
:1005D0007F4F01E089810E94BE29811123C0FE0165
:1005E000E05DFD4F8081918185359A4AE9F4E85CB0
:1005F000F14080819181A281B381BB2786349144EF
:10060000A445B10599F0CC57DF4F488159816A81E3
:100610007B81772781E0463451446445710539F484
:1006200080E005C083E003C082E001C080E0DF918C
:10063000CF910F910895009781F0FC012081222332
:1006400071F0268137812617370759F481810E947E
:10065000B72980FD08C080E0089589E0089589E009
:10066000089589E0089583E008952F923F924F9274
:100670005F926F927F928F929F92AF92BF92CF9232
:10068000DF92EF92FF920F931F93CF93DF93CDB73B
:10069000DEB72E970FB6F894DEBF0FBECDBFDC01DC
:1006A000ED91FC911197208130E0205331092A30DF
:1006B000310538F451815A3321F43296ED93FC938D
:1006C00003C02091040230E0232B09F0C0C1E09167
:1006D0000702F0910802FE87ED87DB01ED93FC93A2
:1006E000309709F4B6C1142F8081882361F081818D
:1006F0000E94B72980FD07C0112309F4ACC182FF15
:10070000ACC18AE07FC2ED85FE851082118280E057
:100710000E94F62880FDA3C1112311F082FDA1C122
:1007200040E050E0BA018D859E850E94E002813054
:10073000B9F4ED85FE85EC50FE4F8081882309F4E5
:1007400092C1ED85FE85E850FE4FC080D180E280E9
:10075000F380B701A6018D859E850E94E00203C04B
:10076000C12CD12C7601833009F47FC181117FC166
:10077000AD85BE85DD968D919C91DE978115924069
:1007800009F077C1ED85FE85E85BFF4F4080518021
:10079000612C712C411451046104710441F4ED8504
:1007A000FE85EA5AFF4F4080518062807380ED855C
:1007B000FE85468E578E60A271A2EE5BFF4FA08130
:1007C000ED85FE85A3838FEF8A0F823008F053C139
:1007D00017AD1283112309F450C1812F90E09C01C1
:1007E0002150310982239323892B09F048C1ED5B05
:1007F000FF4F20803180ED85FE8531862086C10146
:100800008F709927892B09F03CC1EB5BFF4F8080EB
:100810009180A12CB12C81149104A104B10441F464
:10082000ED85FE85EE5AFF4F80809180A280B380D7
:10083000ED85FE85E05CFF4F0190F081E02D309763
:1008400009F421C1B0E0A30192010E945A336987E3
:100850007A878B879C879F0140E050E02D833E8301
:100860004F835887C101929582958F7089279F7019
:100870008927280F391F411D511DDA01C90129851A
:100880003A854B855C85280F391F4A1F5B1F2983DA
:100890003A834B835C8382169306A406B50608F45C
:1008A000F4C0C501B401621B730B840B950B212F9F
:1008B00030E040E050E00E940433DA01C901211524
:1008C00031054105510509F4E2C0263F6FE03607C6
:1008D0004105510508F08EC1F1E08DC1ED85FE8521
:1008E000E25AFF4F80819181A281B381ED85FE851F
:1008F00086A397A3A0A7B1A7880C991CAA1CBB1C10
:10090000880C991CAA1CBB1CFFEF8F0EF1E09F1EE8
:10091000A11CB11C072E79E0B694A79497948794F4
:100920007A95D1F7702D481459046A047B0408F4B1
:10093000B0C007C129853A854B855C85C20ED31EA0
:10094000E41EF51EAD85BE859696CD92DD92ED92A4
:10095000FC929997F23029F4880C991CAA1CBB1CB4
:10096000DAC0A3E0B0E0A50194010E945A33DC0193
:10097000CB01B695A79597958795E1E08E229924AE
:10098000AA24BB24880E991EAA1EBB1EC4C0ED85D6
:10099000FE85E05DFD4F8081918185359A4AA1F504
:1009A000ED85FE8582A993A9A4A9B5A982359245B2
:1009B000A146B14459F5ED85FE85EA5EFD4F808183
:1009C0009181A281B38182379247A144B14601F55A
:1009D000ED85FE85E25EFD4F80819181A281B3812C
:1009E000ED85FE8582879387A487B587E65EFD4FF8
:1009F00080819181A281B381ED85FE85868797876D
:100A0000A08BB18BF3E005C0F3E003C0F3E001C0BD
:100A1000F3E0AD85BE85FC938091050290910602BE
:100A20000196909306028093050217969C938E93ED
:100A30001697FD0116A617A610AA11AA148256969B
:100A40001D921D921D921C92599780E0DBC08BE095
:100A5000D9C08CE0D7C080E0D5C080E0D3C083E0AF
:100A6000D1C08AE0CFC08DE0CDC081E0CBC08DE0A9
:100A7000C9C08DE0C7C08DE0C5C08DE0C3C08DE0AA
:100A8000C1C08DE0BFC08DE0BDC08DE0BBC08DE0BA
:100A9000B9C08DE0B7C08DE0B5C08DE0B3C08DE0CA
:100AA000B1C049015A01B2E08B0E911CA11CB11CCE
:100AB000ED85FE85828E938EA48EB58E89819A8176
:100AC000AB81BC818C0D9D1DAE1DBF1D82A793A760
:100AD000A4A7B5A78D819E81AF81B8858C0D9D1D82
:100AE000AE1DBF1D82A393A3A4A3B5A3232899F68B
:100AF000F5CE4FEF5FEFBA01AD85BE851E964D93E3
:100B00005D936D937C9351971A961D921D921D9241
:100B10001C921D977ECFBFEF8B0EB1E09B1EA11CD8
:100B2000B11C072E79E0B694A794979487947A9590
:100B3000D1F7702D481459046A047B0408F4ADCF32
:100B4000D8CF8FEF9FEFDC01ED85FE8586879787F5
:100B5000A08BB18BDF011286138614861586158251
:100B6000EE59FF4F80819181A7019601280F391F0F
:100B7000411D511DFD01228B338B448B558B01E0B0
:100B8000BD016E5C7F4F81810E94BE29882309F4DC
:100B9000FECEF3E03ECF49015A0162E0860E911C81
:100BA000A11CB11CAD85BE855A968D929D92AD92C9
:100BB000BC925D9749815A816B817C814C0D5D1D92
:100BC0006E1D7F1D9A964D935D936D937C939D97BB
:100BD0002D813E814F815885C20ED31EE41EF51E25
:100BE0009296CD92DD92ED92FC929597232809F48E
:100BF00056CFA0CEF2E0863F9F4FA105B10508F089
:100C000050CFC9CF2E960FB6F894DEBF0FBECDBF22
:100C1000DF91CF911F910F91FF90EF90DF90CF90D8
:100C2000BF90AF909F908F907F906F905F904F900C
:100C30003F902F9008950F93CF93DF93EC0140E006
:100C400050E0BA010E946202982F811154C088813D
:100C5000833009F046C08D81882309F442C01EA666
:100C60001FA618AA19AABE016E5C7F4FFB01CE0118
:100C70008E5C9D4F1192E817F907E1F785E59AEA36
:100C8000FE01E05DFD4F9183808382E592E5A1E660
:100C9000B1E48AAB9BABACABBDAB82E792E7A1E41E
:100CA000B1E67A9780839183A283B3838E859F85F3
:100CB000A889B989349680839183A283B3838A8576
:100CC0009B85AC85BD85349680839183A283B38355
:100CD0002A893B894C895D8901E089810E94112A1A
:100CE0001D8240E050E060E089810E947D2A91E011
:100CF000811101C090E0892FDF91CF910F9108956C
:100D00000F931F93FC019A01AB0122503109410955
:100D10005109828D938DA48DB58D0297A109B109DA
:100D2000281739074A075B0768F4A281B0E00E94E0
:100D30005A3302A513A524A535A5600F711F821F84
:100D4000931F03C060E070E0CB011F910F910895E5
:100D5000AF92BF92CF92DF92EF92FF921F93CF9309
:100D6000DF93423051056105710508F4ADC0FC0107
:100D7000C28CD38CE48CF58C4C155D056E057F051B
:100D800008F0A7C06A017B01EC018081823009F480
:100D90004CC0833009F46BC0813009F09FC05A0108
:100DA000B694A794A40EB51EC501892F99278695E0
:100DB00042A153A164A175A1480F591F611D711D66
:100DC000CF010E94620281118DC0F501F170EC0F1C
:100DD000FD1F12A9FFEFAF1ABF0AC501892F99277E
:100DE00086954AA15BA16CA17DA1480F591F611D89
:100DF000711DCE010E946202811178C081E0B8228B
:100E0000CA0DDB1D8AA9612F70E0782BC0FE09C0D6
:100E1000729562956F7067277F70672780E090E01A
:100E200070C07F7080E090E06CC0452F562F672F18
:100E3000772782A193A1A4A1B5A1480F591F6A1FCA
:100E40007B1FCF010E946202811154C0B701A6012D
:100E5000440F551F661F771F4E7F517066277727F7
:100E6000C40FD51F6AA97BA980E090E04AC082A187
:100E700093A1A4A1B5A1689416F8769567955795A6
:100E800047951694D1F7480F591F6A1F7B1FCF0152
:100E90000E946202811132C0B701A601440F551FA2
:100EA000661F771F440F551F661F771F4C7F5170B9
:100EB00066277727C40FD51F8AA99BA9ACA9BDA90E
:100EC000BC01CD019F701DC061E070E080E090E04A
:100ED00018C061E070E080E090E013C06FEF7FEF3A
:100EE000CB010FC06FEF7FEFCB010BC06FEF7FEF38
:100EF000CB0107C06FEF7FEFCB0103C06FEF7FEF38
:100F0000CB01DF91CF911F91FF90EF90DF90CF90B9
:100F1000BF90AF900895EF92FF920F931F93CF93DE
:100F2000DF93EC018B017D836C834E815F8168854B
:100F30007985413051056105710509F492C0E88158
:100F4000F981828D938DA48DB58D481759076A0755
:100F50007B0708F088C0411551056105710551F501
:100F60008081833049F446A157A160A571A5411540
:100F7000510561057105F1F41A861B861C861D86D4
:100F8000808591850817190708F06FC086A197A181
:100F9000A0A5B1A59801329522952F7023273F7007
:100FA0002327820F931FA11DB11D8E879F87A88BBA
:100FB000B98B44C0E28080E1E89E700111240E15D7
:100FC0001F0518F1888199810E94A806AB01BC0118
:100FD0004F3F8FEF58076807780709F448C0423041
:100FE00051056105710508F444C0E881F981828DDD
:100FF000938DA48DB58D481759076A077B07D8F5DF
:101000000E191F090E151F05E8F64A875B876C87C6
:101010007D87888199810E9480069801329522956A
:101020002F7023273F702327DC01CB01820F931FF2
:10103000A11DB11D8E879F87A88BB98B888199814F
:10104000C2960F701127000F111F02951295107F85
:101050001027007F1027080F191F1B8B0A8B80E0B9
:101060000BC082E009C082E007C082E005C081E0D9
:1010700003C082E001C082E0DF91CF911F910F9108
:10108000FF90EF9008956F927F928F929F92AF9210
:10109000BF92CF92DF92EF92FF920F931F93CF9365
:1010A000DF93423051056105710508F4E1C0FC0190
:1010B000C28CD38CE48CF58C4C155D056E057F05D8
:1010C00008F0D8C0680179014A015B01EC01808118
:1010D000823009F467C0833009F488C0813009F098
:1010E000BFC08A01169507953801640E751EC301AD
:1010F000892F9927869542A153A164A175A1480F14
:10110000591F611D711DCF010E946202182F8111AC
:10111000ACC0C301917080FE24C0FE01E80FF91F2E
:1011200082A9282F2F7030E1C39EC0011124822B89
:1011300082AB53018FEFA81AB80A81E08C83C501F6
:10114000892F992786954AA15BA16CA17DA1480FA3
:10115000591F611D711DCE010E946202811182C062
:101160008BC0FE01E80FF91FC2AA5301EFEFAE1AC0
:10117000BE0A81E08C83C501892F992786954AA1F3
:101180005BA16CA17DA1480F591F611D711DCE018E
:101190000E946202811168C07AC0FE01E80FF91F47
:1011A000C2AA63C0452F562F672F772782A193A12C
:1011B000A4A1B5A1480F591F6A1F7B1FCF010E9430
:1011C0006202182F811151C0B501A401440F551FAF
:1011D000661F771F4E7F5170662777274E5C5F4FE3
:1011E000FE01E40FF51FD182C0823FC082A193A10E
:1011F000A4A1B5A1689416F876956795579547957B
:101200001694D1F7480F591F6A1F7B1FCF010E9408
:101210006202182F811129C0B501A401440F551F86
:10122000661F771F440F551F661F771F4C7F517035
:10123000662777274E5C5F4FFE01E40FF51F808124
:101240009181A281B38188279927AA27B07FC82AD4
:10125000D92AEA2AFB2AC082D182E282F38205C01F
:1012600012E003C0182F01C0182F81E08C831BC02F
:1012700012E019C012E017C0C5019170689413F80C
:10128000F694E794D794C7941694D1F786CFC50106
:101290009170FE01E80FF91F32A9307F2D2D2F70BC
:1012A000C32EC22A7ACF812FDF91CF911F910F9148
:1012B000FF90EF90DF90CF90BF90AF909F908F9076
:1012C0007F906F9008954F925F926F927F928F926E
:1012D0009F92AF92BF92CF92DF92EF92FF920F93C5
:1012E0001F93CF93DF93EC012A013B014115510578
:1012F00061057105B9F48A849B84AC84BD84811432
:101300009104A104B10429F18A8D9B8DAC8DBD8D12
:1013100088169906AA06BB0600F1812C912C54016F
:1013200083941BC00E94A8066B017C01623071058A
:101330008105910508F486C08A8D9B8DAC8DBD8D8D
:10134000C816D906EA06FB0608F481C0530142011B
:1013500004C0812C912C54018394750164018FEF9A
:10136000C81AD80AE80AF80A8A8D9B8DAC8DBD8D03
:10137000C816D906EA06FB0660F022E08216910440
:10138000A104B10408F468C0C12CD12C7601689482
:10139000C1F8B701A601CE010E94A806611571052A
:1013A0008105910599F06F3F2FEF72078207920731
:1013B00009F457C0613071058105910509F456C0E3
:1013C000C814D904EA04FB0451F655C00FEF1FEF0F
:1013D0002FEF3FE0B701A601CE010E944308811123
:1013E0002AC0411451046104710449F09701860137
:1013F000B301A201CE010E94430881111CC0CA861C
:10140000DB86EC86FD868E859F85A889B9898F3F0E
:101410002FEF9207A207B20799F10197A109B1092D
:101420008E879F87A88BB98B81E08D836C2D7D2D56
:101430008E2D9F2D2EC0813041F161E070E080E063
:1014400090E027C061E070E080E090E022C06C2D69
:101450007D2D8E2D9F2D1DC060E070E080E090E01E
:1014600018C06FEF7FEF8FEF9FEF13C061E070E068
:1014700080E090E00EC060E070E080E090E009C0A5
:101480006C2D7D2D8E2D9F2D04C06FEF7FEF8FEF84
:101490009FEFDF91CF911F910F91FF90EF90DF9021
:1014A000CF90BF90AF909F908F907F906F905F9004
:1014B0004F9008958F929F92AF92BF92CF92DF92FA
:1014C000EF92FF920F931F93CF93DF93DC0114965B
:1014D000CD91DC911597219609F402C11E968D904D
:1014E0009D90AD90BC90519781149104A104B104DA
:1014F00009F4F8C07B018C016E01BFE0CB22DD2432
:10150000C114D10409F0D6C0EFEF8E1A9E0AAE0ABC
:10151000BE0ADC011E968D929D92AD92BC925197AF
:101520001A964D915D916D917C911D9741155105D4
:101530006105710549F4ED91FC9180859185C8178D
:10154000D90708F0D1C0B6C0DC01ED91FC91228131
:1015500030E021503109CE01929582958F70892714
:101560009F70892728233923232B09F0A3C0CF019B
:101570000E94A8064B015C0162307105810591054E
:1015800008F4B4C06F3F7F4F8F4F9F4F09F4B0C036
:10159000D801ED91FC91828D938DA48DB58D881627
:1015A0009906AA06BB0608F473C0EF2809F4A2C086
:1015B000D8011A964D915D916D917C911D97CF0147
:1015C0000E9463094B015C0161157105810591055C
:1015D00009F492C0613071058105910509F48EC04E
:1015E0006F3F7F4F8F4F9F4F09F48AC040E050E01C
:1015F000BA01D8018D919C910E946202811182C032
:10160000F80180819181FC01F2968E5C9D4F1192D0
:10161000E817F907E1F7D801ED90FC90B501A401B6
:10162000C7010E948006F70166A777A780AB91AB40
:10163000F12CEE24E3941AC0E48240E050E0BA01B9
:10164000D8018D919C910E94620281115DC0D801E8
:10165000ED91FC9186A597A5A0A9B1A90196A11D20
:10166000B11D86A797A7A0ABB1ABF394D801ED91BC
:10167000FC918281F81600F386A597A5A0A9B1A9CF
:101680008F199109A109B10986A797A7A0ABB1ABA2
:10169000F80182869386A486B586B501A40180816F
:1016A00091810E948006D8011E966D937D938D9343
:1016B0009C935197F801D583C48380819181C29610
:1016C000CC0CDD1CCC0CDD1CCC0CDD1CCC0CDD1CD6
:1016D000CC0CDD1CC80ED91ED38AC28A80E015C08E
:1016E00084E013C084E011C084E00FC082E00DC02C
:1016F00081E00BC084E009C087E007C082E005C03C
:1017000081E003C081E001C081E0DF91CF911F91B2
:101710000F91FF90EF90DF90CF90BF90AF909F9090
:101720008F9008952F923F924F925F926F927F9287
:101730008F929F92AF92BF92CF92DF92EF92FF92E1
:101740000F931F93CF93DF9300D000D01F92CDB79C
:10175000DEB79A8389834B01DB018C918F3211F0C4
:101760008C3551F4BFEF8B1A9B0AE981FA811682FE
:101770001782108611860EC0A981BA81ED91FC9165
:1017800086899789A08DB18DE981FA8186839783B7
:10179000A087B187D4018C91803258F460E070E06A
:1017A00089819A810E948B07E981FA81138A128AC2
:1017B0006BC110E20F2EFEE27F2EF02D00E0B12C67
:1017C0006894662463F8512C362C252C0F2EFBE0F0
:1017D0004F2EF02D29813A813C832B83EB81FC81B4
:1017E000A489B589FD01CD010B961193E817F9077E
:1017F000E1F7F40180818E3261F07401402F5B2D9E
:1018000060E070E0C62CD52CA12CBA83A983AD82F0
:101810001EC07C92F40181818E3251F411967C922B
:10182000119782818E3209F475C023E030E002C046
:1018300022E030E08F3209F4D6C08C3509F4D3C0F1
:10184000813208F4D4C0F4C01B968C93F3C06F5F50
:101850007F4FF701B1917F01B13208F4E2C0BF328E
:1018600009F4D8C0BC3509F4D5C0BE3209F406C1AC
:101870004C155D0508F0DCC009C0FD81FF0FFF0FAE
:10188000FD83432D522DC42CD12CE1CFBB230CF072
:10189000B2C02D8123602D83EB2FF0E0ED5CFF4F74
:1018A000B081A9C08191882309F4AEC090E02817C7
:1018B0003907C1F72FC03D8132603D8308C08FE9F1
:1018C0008B0F8A3120F48D8181608D83B052E98144
:1018D000FA81E40FF51FB0834F5F5F4FB8CF452B00
:1018E00009F4A6C09C91953E11F495E09C93E8E024
:1018F000CE16D10411F4AA0CAA0C9A2D9370913033
:1019000009F480619A2D9C70943009F488601B96CC
:101910008C9390C086E0B8C0AB81BC811E964D917F
:101920005D916D917C9151978D919C910E94620285
:10193000811199C0EB81FC8142895389DA019C9124
:10194000992309F481C01B96EC90E3FC11C06489D3
:101950007589FA01DB016A012BE0C20ED11C04C0BB
:10196000EC15FD0509F479C021919D912917C1F36A
:10197000602F7B2D8B819C810E945A0A882361F203
:1019800072C095FF0CC0EB81FC8116821782108615
:101990001186138A128A92FF21CF80E075C092FDD2
:1019A0001EC085E071C0E4FE1CC0DA0154968D9122
:1019B0009C915597A0E0B0E0DC0199278827FA01B7
:1019C000428D538D60E070E0842B952BA62BB72BB6
:1019D000EB81FC8186839783A087B187FFCE84E06B
:1019E00053C085E051C0820E931E812F2DCF820EF1
:1019F000931E84E229CF2B2F30E02232310509F4E7
:101A000089CFE5EAF0E04ECF8FEB8B0F8A3108F4F7
:101A100052CF55CFA981BA81AD80860E971E80E046
:101A20005ECFA981BA81AD80860E971E84E057CF24
:101A300086E02AC0602F7B2D8B819C810E948B07C2
:101A4000882309F469CF0FC08B819C81DC015496F7
:101A5000ED91FC915597938594CFDB011B969C915A
:101A600092FFA1CF11C0AB81BC815496ED91FC9146
:101A700055979385843009F484CF06C0B8E0CB161F
:101A8000D10409F4FACED4CF0F900F900F900F909D
:101A90000F90DF91CF911F910F91FF90EF90DF900A
:101AA000CF90BF90AF909F908F907F906F905F90FE
:101AB0004F903F902F9008950F931F93CF938C01D9
:101AC00060E070E00E948B07C82F811147C0D801E9
:101AD0001E964D915D916D917C9151978D919C9148
:101AE0000E946202C82F811139C0D8015296ED912F
:101AF000FC9153978081853E29F1882319F161E09B
:101B000070E0C8010E945A0AC82F882301F326C03A
:101B1000F80182899389FC019C01205E3F4F11925C
:101B2000E217F307E1F7D80154966D917C91559730
:101B30004BE050E00E94BB01D801ED91FC9181E0A7
:101B400084830CC0F801468557856089718980813E
:101B500091810E946202C82F8823D1F28C2FCF91ED
:101B60001F910F910895CF93DF93EC0184E017C08C
:101B7000888199810E94620281111CC0EA89FB89D7
:101B800090819923E1F0953E19F0938593FF19C058
:101B900060E070E0CE010E945A0A81110BC04E85B0
:101BA0005F8568897989411551056105710501F7DE
:101BB000882339F01E861F86188A198A02C084E09D
:101BC000F9CFDF91CF9108957F928F929F92AF923C
:101BD000BF92CF92DF92EF92FF920F931F93CF931A
:101BE000DF93EC016A017B0142305105610571050B
:101BF00008F44CC08A8D9B8DAC8DBD8D481759075C
:101C00006A077B0708F044C077247394B701A601E4
:101C1000CE010E94A8064B015C01672B682B692B43
:101C2000C9F191E089169104A104B104A9F18FEFE3
:101C300088169806A806B80689F100E010E0980119
:101C4000B701A601CE010E944308811128C04E852C
:101C50005F85688979894F3F9FEF59076907790741
:101C600049F04F5F5F4F6F4F7F4F4E875F87688BA5
:101C7000798B7D82750164014A8D5B8D6C8D7D8DC4
:101C800084169506A606B70608F209C082E007C0CA
:101C900082E005C080E003C082E001C081E0DF9106
:101CA000CF911F910F91FF90EF90DF90CF90BF9059
:101CB000AF909F908F907F900895811112C0E09116
:101CC0000702F0910802309709F010826115710542
:101CD00011F0FB011082709308026093070280E00C
:101CE00008958BE008954F925F926F927F928F924A
:101CF0009F92AF92BF92CF92DF92EF92FF920F939B
:101D00001F93CF93DF93CDB7DEB7A4970FB6F894A8
:101D1000DEBF0FBECDBF8C017CA36BA3F42EDC0114
:101D20001D921C92B42FBF71EB2E4E71BE016F5FDE
:101D30007F4FCE0183960E9435039E01295E3F4F5F
:101D40003E8B2D8B8111BDC06BA17CA1CE01019674
:101D50000E94920BCB88DC888111BAC0C114D104D7
:101D600009F0C0C0BAC0843021F4CE0101960E94AF
:101D70005C0DEE2DE860EE2ECB88DC88882349F0E0
:101D8000CCC0F2FCC3C0D6011B968C91817109F0C6
:101D9000BFC0E3FE51C00E94D716F6016687778761
:101DA000808B918B1386148E158E168E178E8488D9
:101DB0009588A12CB12CD40199278827828C938CEB
:101DC000A12CB12C882A992AAA2ABB2A138E128EFA
:101DD000158A148AE981FA8181E08483811491044F
:101DE000A104B10431F146A457A460A871A8B501BB
:101DF000A401CF010E94E40D81118FC089819A81D5
:101E0000F1E08F1A9108A108B108DC011A968D92B1
:101E10009D92AD92BC921D97B301A2010E946202F5
:101E2000882339F07AC0F1FE02C080FD73C0F3FE52
:101E300003C0BE2DB062EB2EE981FA8186A597A57D
:101E4000A0A9B1A9F801828F938FA48FB58FD78EE7
:101E5000C68ED8011496EC92F60184899589A0E08B
:101E6000B0E0DC0199278827428D538D60E070E057
:101E7000842B952BA62BB72BF80186879787A08BF1
:101E8000B18BF601848D958DA68DB78DF801828773
:101E90009387A487B587D80116821782108611868A
:101EA000168A178A108E118EE981FA811196FC9399
:101EB000EE938681978113969C938E93129780E080
:101EC0002CC0CB88DC889F2D9C7109F04CCF0FC0B3
:101ED0009F2D9C7109F047CF0AC08F2D8C7151F452
:101EE00086E005C08F2D8C7109F04BCF0AC081119F
:101EF00014C0AFCFBE2DB860EB2ECB88DC8886E057
:101F0000F6CFF601838584FD07C08DCF88E005C03C
:101F100087E003C087E001C084E0A4960FB6F89480
:101F2000DEBF0FBECDBFDF91CF911F910F91FF900C
:101F3000EF90DF90CF90BF90AF909F908F907F9069
:101F40006F905F904F9008952F923F924F925F92C3
:101F50006F927F928F929F92AF92BF92CF92DF92B9
:101F6000EF92FF920F931F93CF93DF93EC014B01FE
:101F70006A015901F901118210826A817B8188818D
:101F800099810E941B03811118C18C8188230CF454
:101F90000FC180FF0FC18A859B85AC85BD854E81B1
:101FA0005F8168857985841B950BA60BB70BA6010D
:101FB00060E070E084179507A607B70708F46C0186
:101FC000C114D10409F4F8C04E815F816885798518
:101FD000DB01CA019170AA27BB27892B8A2B8B2B87
:101FE00009F0A0C0E881F98112811150DB01CA011A
:101FF000072E79E0B695A795979587957A95D1F7AD
:10200000702D182349F5452B462B472B29F46E8557
:102010007F858889998907C04A895B896C897D8910
:10202000CF010E94A806623071058105910528F450
:102030008C8180688C8382E0C0C06F3FFFEF7F0798
:102040008F079F0729F48C8180688C8381E0B5C05D
:102050006A8B7B8B8C8B9D8B288039804A895B892E
:102060006C897D89C1010E94800661157105810519
:10207000910529F48C8180688C8382E09EC02B01BD
:102080003C01410E511C611C711C7601EF2CFF2498
:10209000E694E114F10409F441C0F1014281242FD6
:1020A00030E0C701810F911D2817390718F4790115
:1020B000E11AF1080E2DA3019201B401F101818111
:1020C0000E94BE29882329F08C8180688C8381E05E
:1020D00074C0E881F98184818823E1F086A597A501
:1020E000A0A9B1A984199509A609B709A70160E0BB
:1020F00070E084179507A607B70760F4BF016E5C10
:102100007F4F982F8827990F40E052E0880D991D46
:102110000E94BB01FE2CEE24FF0C2FC04E8A5F8A6A
:10212000688E798E8E819F81917020E032E07901F6
:10213000E81AF90ACE14DF0408F476014E895F89A3
:10214000688D798D888199810E946202882329F0A7
:102150008C8180688C8381E030C08E819F81A885CE
:10216000B9859170AA27BB27C29668817981680FCB
:10217000791FA701C4010E94BB018E0C9F1C8E8198
:102180009F81A885B9858E0D9F1DA11DB11D8E83D0
:102190009F83A887B987F501808191818E0D9F1D4E
:1021A00091838083CE18DF0809F00ECF80E005C050
:1021B00082E003C087E001C080E0DF91CF911F91F2
:1021C0000F91FF90EF90DF90CF90BF90AF909F90D6
:1021D0008F907F906F905F904F903F902F900895D9
:1021E0002F923F924F925F926F927F928F929F9227
:1021F000AF92BF92CF92DF92EF92FF920F931F9315
:10220000CF93DF93EC014B016A015901F90111826F
:1022100010826A817B81888199810E941B038111D0
:102220007AC18C8188230CF473C181FF73C18A85C4
:102230009B85AC85BD85AC01BD014C0D5D1D611D4F
:10224000711D481759076A077B0708F44BC1C11471
:10225000D10409F447C14E815F8168857985DB012E
:10226000CA019170AA27BB27892B8A2B8B2B09F0D7
:10227000F1C0E881F98112811150DB01CA01072EFA
:1022800079E0B695A795979587957A95D1F7702DB2
:102290001823F1F5452B462B472BA1F46E857F853E
:1022A000888999896115710581059105C1F440E01E
:1022B00050E0BA01CF010E9463096E877F87888B47
:1022C000998B07C04A895B896C897D89CF010E94FF
:1022D0006309611571058105910509F403C1613038
:1022E00071058105910529F48C8180688C8382E0D9
:1022F00012C16F3FFFEF7F078F079F0729F48C8183
:1023000080688C8381E007C16A8B7B8B8C8B9D8B73
:10231000E881F98146A557A560A971A98E899F8991
:10232000A88DB98D481759076A077B0769F440E003
:1023300050E0BA01CF010E946202882329F08C810B
:1023400080688C8381E0E7C0288039804A895B8976
:102350006C897D89C1010E94800661157105810526
:10236000910529F48C8180688C8382E0D4C02B0194
:102370003C01410E511C611C711C7601EF2CFF24A5
:10238000E694E114F10409F441C0F1014281242FE3
:1023900030E0C701810F911D2817390718F4790122
:1023A000E11AF1080E2DA3019201B401F10181811E
:1023B0000E94112A882329F08C8180688C8381E017
:1023C000AAC0E881F98186A597A5A0A9B1A9841919
:1023D0009509A609B709A70160E070E08417950781
:1023E000A607B70778F4982F8827990FB401680FCC
:1023F000791F40E052E0CF01C2960E94BB01E88104
:10240000F9811482FE2CEE24FF0C53C04E815F81B3
:10241000688579858A859B85AC85BD854817590770
:102420006A077B0798F040E050E0BA01C1010E94C2
:102430006202882329F08C8180688C8381E06BC0E4
:10244000E881F98146A657A660AA71AA4E8A5F8ADA
:10245000688E798E8E819F81917020E032E07901C3
:10246000E81AF90ACE14DF0408F476014E895F8970
:10247000688D798D888199810E946202882329F074
:102480008C8180688C8381E046C08E819F81A88585
:10249000B9859170AA27BB27C29628813981A701E7
:1024A000B401820F931F0E94BB01E881F98121E0F2
:1024B00024838E0C9F1C8E819F81A885B9858E0DEB
:1024C0009F1DA11DB11D8E839F83A887B987F5012C
:1024D000808191818E0D9F1D91838083CE18DF08AE
:1024E00009F0B9CE8E819F81A885B9854A855B8523
:1024F0006C857D85481759076A077B0720F48A8712
:102500009B87AC87BD878C8180628C8380E003C011
:1025100082E001C087E0DF91CF911F910F91FF9082
:10252000EF90DF90CF90BF90AF909F908F907F9073
:102530006F905F904F903F902F9008950F931F934F
:10254000CF93DF93EC016A817B81888199810E941E
:102550001B03811137C09C8195FF34C04A8D5B8D70
:102560006C8D7D8D888199810E94620281112AC0C3
:102570000E8D1F8DF8018385806283878A859B85F8
:10258000AC85BD85848F958FA68FB78F8E859F85EF
:10259000938F828F8E859F85A889B989B58BA48BEF
:1025A0000E94D716F801668B778B808F918F8C8174
:1025B0008F7D8C83E881F98181E084838881998192
:1025C0000E941B06DF91CF911F910F910895CF9329
:1025D000DF93EC010E949E12811102C019821882C1
:1025E000DF91CF9108954F925F926F927F929F9269
:1025F000AF92BF92CF92DF92EF92FF920F931F9311
:10260000CF93DF93CDB7DEB7EA970FB6F894DEBF6E
:102610000FBECDBF9AAF89AF5B01FC01108240E0D5
:10262000BE016F5F7F4FCE01C9960E943503982E81
:10263000811103C1CE018D969E8B8D8BE981FA812C
:1026400046885788608C718C4F82588669867A8656
:10265000411451046104710409F4E6C065017E016E
:10266000F0E2EF0EF11C0FE261E070E0CE010196A6
:102670000E948B078111B2C0CE0101960E94B30D5A
:102680008111AEC0EB89FC8984899589A0E0B0E016
:10269000DC0199278827428D538D60E070E0842B00
:1026A000952BA62BB72B8F839887A987BA8760E0D5
:1026B00070E0CE0101960E948B07811193C0CE017C
:1026C00001960E94B30D182F81119AC0EB89FC89E5
:1026D00084899589A0E0B0E0DC0199278827428DA4
:1026E000538D60E070E0842B952BA62BB72B8415BF
:1026F0009505A605B70509F487C060E070E0CE0136
:1027000001960E945A0A182F8823C9F279C0DE0167
:102710009196E0E0F0E001C0F9019F012F5F3F4F8B
:102720008D918111F9CFCF010496C816D90608F40E
:102730005BC021153105A1F03A9687E190E08C0F3E
:102740009D1FE80FF91FC60101974291A9ADBAADCF
:10275000A80FB91F4C93EE15FF05B1F7C21AD30AA3
:1027600091E0C91AD108E9ADFAADEC0DFD1D008369
:102770004F80588469847A8441145104610471043F
:1027800009F072CF1DC0A9ADBAAD6894992491F833
:1027900015C0DF0113968FE2828310C01196E9AD58
:1027A000FAADEC0DFD1D8081FD0131978083F601AE
:1027B00031966F01EA15FB0588F3912E1C923DC0FE
:1027C000E9ADFAAD80910402805D80838AE3818364
:1027D000AC14BD04F1F2DF011296E0CF982E0DC0CB
:1027E000982E0BC0982E09C00F2EF1E19F2EF02DD0
:1027F00004C00F2EF1E19F2EF02DA9ADBAADDECFB2
:10280000143009F2912EF9CFBE01695E7F4FCE01DF
:1028100001960E94E70188A1811179CFF3E0CF16DC
:10282000D10408F09DCFE5CFE9ADFAAD8091040267
:10283000805D80838AE38183ACCF892DEA960FB6D1
:10284000F894DEBF0FBECDBFDF91CF911F910F91E6
:10285000FF90EF90DF90CF90BF90AF909F907F90D0
:102860006F905F904F9008954F925F926F927F921A
:102870008F929F92AF92BF92CF92DF92EF92FF9290
:102880000F931F93CF93DF9300D000D000D0CDB72C
:10289000DEB79E838D836A017B01DC0112966D9108
:1028A0007C9113978D919C910E941B0381119DC176
:1028B000ED81FE81848188230CF492C14285538589
:1028C000648575854C155D056E057F0520F481FDD9
:1028D00002C06A017B01AD81BE8116964D905D906C
:1028E0006D907C901997FD011682178210861186D3
:1028F000C114D104E104F10409F474C1008111810F
:10290000D80112968C90912CA12CB12C072E79E035
:10291000880C991CAA1CBB1C7A95D1F7702D411408
:1029200051046104710409F440C0B1E04B1A51082C
:1029300061087108C701B6016150710981099109E7
:10294000A50194010E94043329833A834B835C835D
:10295000C301B201A50194010E94043389819A81C7
:10296000AB81BC8182179307A407B507F0F08827D5
:102970009927DC0188199909AA09BB09482259221B
:102980006A227B22AD81BE8116964D925D926D9238
:102990007C921997C418D508E608F70852964D910D
:1029A0005D916D917C9155973DC0ED81FE8146858D
:1029B000578560897189411551056105710561F57A
:1029C00040E050E0BA01C8010E946309AB01BC01BC
:1029D000413051056105710551F4AD81BE811496F8
:1029E0008C911497806814968C9382E0FEC04F3FC0
:1029F000BFEF5B076B077B0739F4ED81FE818481B4
:102A00008068848381E0F1C0AD81BE811E964D93C4
:102A10005D936D937C935197ED81FE81428B538B37
:102A2000648B758B411551056105710509F4A1C0D1
:102A30008C149D04AE04BF0408F063C0AD81BE8158
:102A400014968C91149781FF0CC08D919C910E94DB
:102A50006309AB01BC01411551056105710549F4DC
:102A60004EC0AD81BE818D919C910E94A806AB01A4
:102A7000BC014F3FBFEF5B076B077B0739F4ED816C
:102A8000FE8184818068848381E0AFC0423051053B
:102A90006105710568F0AD81BE81ED91FC91828D7B
:102AA000938DA48DB58D481759076A077B0738F0B9
:102AB000ED81FE8184818068848382E096C0AD814F
:102AC000BE8152964D935D936D937C935597FD0116
:102AD00086819781A085B185880D991DAA1DBB1D92
:102AE00086839783A087B187C818D908EA08FB08AE
:102AF0008C149D04AE04BF0408F4A0CF02C075017D
:102B00006401ED81FE8186819781A085B1858C0D60
:102B10009D1DAE1DBF1D86839783A087B187D701FA
:102B2000C6019170AA27BB27892B8A2B8B2B29F1F1
:102B3000808191810E948006611571058105910552
:102B400051F4AD81BE8114968C91149780681496CF
:102B50008C9382E04AC00B2EB9E0F694E794D794A8
:102B6000C794BA95D1F7B02DC60ED71EE81EF91E30
:102B700007C0C12CD12C760103C0C12CD12C760109
:102B8000ED81FE8186819781A085B185AC01BD0173
:102B9000517066277727452B462B472B69F04689CE
:102BA0005789608D718DC416D506E606F70621F0AB
:102BB000C68AD78AE08EF18EED81FE8142855385EB
:102BC00064857585481759076A077B0768F482870B
:102BD0009387A487B58784818062848380E005C061
:102BE00082E003C080E001C080E026960FB6F89432
:102BF000DEBF0FBECDBFDF91CF911F910F91FF9030
:102C0000EF90DF90CF90BF90AF909F908F907F908C
:102C10006F905F904F9008950F931F93CF93DF9322
:102C2000CDB7DEB72E970FB6F894DEBF0FBECDBF7F
:102C30008C017E876D8740E0BC01CE010D960E941D
:102C40003503811143C0CE010196D80155969C935E
:102C50008E9354976D857E85C8010E94920B8111D9
:102C60001FC0D8015296ED91FC9153973097F1F027
:102C7000838584FF19C084899589A0E0B0E0DC01D8
:102C800099278827428D538D60E070E0842B952B27
:102C9000A62BB72BF80186839783A087B18706C040
:102CA0008430A1F485E012C085E010C0D801ED9118
:102CB000FC9111978681978113969C938E9312971E
:102CC00060E070E0C8010E948B07EACF2E960FB635
:102CD000F894DEBF0FBECDBFDF91CF911F910F9152
:102CE0000895CF92DF92FF920F931F93CF93DF93BC
:102CF000CDB7DEB72C970FB6F894DEBF0FBECDBFB1
:102D00008C016B01FC0162817381808191810E9441
:102D10001B03F82E811130C0C114D10439F460E0D6
:102D200070E0C8010E948B07F82E26C0CE010196E4
:102D3000F801958B848BC8010E94B30D843031F467
:102D4000F80116861786108A118A02C0811111C0F7
:102D5000B601C8010E94E70160E070E0C8010E946E
:102D60005A0A843041F4F80116861786108A118AAF
:102D700003C0F82E01C0F82E8F2D2C960FB6F894B4
:102D8000DEBF0FBECDBFDF91CF911F910F91FF909E
:102D9000DF90CF9008958E3F49F0682F8CEE92E03F
:102DA0000E949801811102C00E946832089560E07B
:102DB00070E0CB01089583B7826083BF83B78160E1
:102DC00083BF89B7816089BF8CE983BD85B5886081
:102DD00085BD89B7806889BF85B5876085BD089541
:102DE000D898D098B898B998BA98BB98C09AC19A10
:102DF000C29AC39AA698A798D198D298D398AE9A17
:102E0000AF9AD99ADF9ADB9A0895CF93DF93EC01BA
:102E100080E00E945101898726B391E02927217023
:102E2000288326B3269521702927298326B322FBE0
:102E3000222720F929272A8326B323FB222720F9DA
:102E400029272B8323B326FB222720F929272C832C
:102E500023B32095221F2227221F2D8329B32695D5
:102E6000217029272E8329B322FB222720F9292725
:102E70002F8329B323FB222720F99227988790E0FC
:102E8000292F092E000C330BFE01E20FF31F4081A6
:102E9000F901E75FFD4F5081451731F0F901E75F18
:102EA000FD4F4083413059F09F5F99304CF3909132
:102EB0001202891731F08093120289E003C0892F32
:102EC00001C08FEFDF91CF9108958091140290910E
:102ED0001502A0911602B09117023091130223E05F
:102EE000230F2D3720F40196A11DB11D05C026E842
:102EF000230F0296A11DB11D20931302809314028B
:102F000090931502A0931602B093170280911802B5
:102F100090911902A0911A02B0911B020196A11D75
:102F2000B11D8093180290931902A0931A02B093D6
:102F30001B0208953FB7F8948091180290911902EE
:102F4000A0911A02B0911B0222B708B600FE05C07C
:102F50002F3F19F00196A11DB11D3FBFBA2FA92F18
:102F6000982F8827820F911DA11DB11DBC01CD0195
:102F7000660F771F881F991F660F771F881F991F7D
:102F800008950F931F93CF93DF93EC018B018BED8B
:102F900091E0FE019C01119221503040E1F7CE01F9
:102FA0000E94662068EE77E2CE010E94921F67EED3
:102FB00077E2CE010E949A1F66EE77E2CE010E9470
:102FC000961FB801CE010E94C822CE010E94C421E2
:102FD000019681F06BE083E391E00E94BE1C8FEFCD
:102FE00099E6E8E181509040E040E1F700C0000040
:102FF00081E008C0FE01EE5BFF4F1082CD5BDF4F2A
:10300000188280E0DF91CF911F910F9108958F92E8
:103010009F92AF92BF92CF92DF92EF92FF920F9367
:103020001F93CF93DF93CDB7DEB7E5970FB6F89434
:10303000DEBF0FBECDBF5C014B016A0168E070E0EE
:10304000CE0101960E94F312BE016F5F7F4FCE0149
:1030500080960E940C16182F811150C07E0123E12A
:10306000E20EF11C00E1BE01665F7F4FCE0180964B
:103070000E947116182F811141C08B898823F1F1AC
:103080008E3289F38A8984FDEECFF701019000200A
:10309000E9F73197EE19FF09709728F7D6018C915F
:1030A000F501B0E18B9FE00DF11D1124DF01202F10
:1030B0001D922A95E9F7B401C7010E94A534892B16
:1030C000C1F0F70101900020E9F73197AF014E19E7
:1030D0005F09D6018C91B701F50120E1829FE00DD7
:1030E000F11D1124CF010E949634D6018C918F5F7F
:1030F0008C93F60180818A3009F0B5CF812FE59657
:103100000FB6F894DEBF0FBECDBFDF91CF911F91F8
:103110000F91FF90EF90DF90CF90BF90AF909F9076
:103120008F900895EF92FF920F931F93CF93DF93A9
:1031300000D0CDB7DEB78C017B01BA0141E00E941F
:10314000730E882331F06BE083E391E00E94BE1C94
:1031500014C067E08DE591E00E94BE1C40E050E0A5
:10316000BA01C8010E9434149E012F5F3F4F44E30F
:1031700050E0B701C8010E94A40F0F900F90DF919B
:10318000CF911F910F91FF90EF900895CF93DF9310
:10319000EB01FC01628573858485958524E330E02D
:1031A00040E050E00E9404332883DF91CF910895DE
:1031B000AF92BF92CF92DF92EF92FF920F931F9345
:1031C000CF93DF93CDB7DEB7CE56D1090FB6F894C3
:1031D000DEBF0FBECDBF5C01D62EC42E790185E6C1
:1031E00091E0AD969FAF8EAFAD9781EC91E0AF9639
:1031F0009FAF8EAFAF9760E080E00E942E1CC110A1
:1032000006C069E087E691E00E94BE1C8FC04D2D8C
:103210004E7F84E3489FA001112460E070E0C50167
:103220000E9434149E012F5F3F4F44E350E0BE01E3
:103230006D5F7F4FC5010E94A40F60E081E00E9496
:103240002E1CCE010596FC0101900020E9F7319774
:10325000BF01681B790B0E94BE1C60E080E00E94E9
:103260002E1C0D2D017010E0F801EE0FFF1F8BE6F4
:1032700090E08C0F9D1FE80FF91F61E08081918124
:103280000E94BE1CF501468157816085718582854B
:103290009385A485B585481759076A077B0709F404
:1032A00045C061E081E00E942E1C9E012F5F3F4FD0
:1032B00044E350E0BE01695C7F4FC5010E94A40F4A
:1032C000CE01C996FC0101900020E9F73197BF01BA
:1032D000681B790B0E94BE1C61E080E00E942E1CDE
:1032E0008D2D90E0019681709078992324F40197B8
:1032F0008E6F9F6F0196880F991FEBE6F0E0EC0F41
:10330000FD1FE80FF91F61E0808191810E94BE1CC2
:1033100084E3809FF001819FF00D1124EC0FFD1FCD
:103320003396D70101900D928A95E1F7C259DF4F8C
:103330000FB6F894DEBF0FBECDBFDF91CF911F91C6
:103340000F91FF90EF90DF90CF90BF90AF900895D6
:10335000AF92BF92CF92DF92EF92FF920F931F93A3
:10336000CF93DF9300D000D0CDB7DEB7F42EE22E9E
:1033700085E691E09A83898381EC91E09C838B833D
:1033800060E080E00E942E1CE11006C068E081E74A
:1033900091E00E94BE1C56C060E081E00E942E1C9D
:1033A0008F2D8E7F90E1899F50011124C8018A0DD5
:1033B0009B1DFC0101900020E9F73197BF01681BBC
:1033C000790B0E94BE1C60E080E00E942E1CF0FA87
:1033D000CC24C0F8D12CCC0CDD1CFE01EC0DFD1D65
:1033E00061E0818192810E94BE1CFE1458F561E06B
:1033F00081E00E942E1CC5014096800F911FFC01A8
:1034000001900020E9F73197BF01681B790B0E94FA
:10341000BE1C61E080E00E942E1C8F2D90E0019682
:1034200081709078992324F401978E6F9F6F019695
:10343000880F991FFE01E80FF91F61E081819281D9
:103440000E94BE1C0F900F900F900F90DF91CF91B4
:103450001F910F91FF90EF90DF90CF90BF90AF90B2
:10346000089508959298939894988A9A8B9A8C9A32
:103470008AB38F708ABB8BB3806F8BBB0895929891
:103480008AB38F708ABB8BB3806F8BBB939A949AED
:10349000000000000000000000000000000000002C
:1034A000000000000000000000000000CF9B76C07C
:1034B00094980000000000000000000000000000E0
:1034C00000000000000000000000000000000000FC
:1034D00000000000000000000000000000000000EC
:1034E00000000000000000000000949A00000000AE
:1034F00000000000000000000000000000000000CC
:1035000000000000000000000000000000000000BB
:1035100000000000000000000000000000000000AB
:10352000000000009498000000000000000000006F
:10353000000000000000000000000000000000008B
:10354000000000000000000000000000000000007B
:103550000000000000000000000000000000949A3D
:10356000000000000000000000000000000000005B
:10357000000000000000000000000000000000004B
:10358000000000000000000000000000000000003B
:103590000000000000000000CF998ACF94980895A1
:1035A000CF93C82F0E943F1A92989398949A8AB307
:1035B000806F8ABB8BB38F709C2F907F892B8BBBC6
:1035C00000000000000000000000000000000000FB
:1035D00000000000000000000000000000000000EB
:1035E00000000000000000000000000000000000DB
:1035F000000000000000000094980000000000009F
:1036000000000000000000000000000000000000BA
:1036100000000000000000000000000000000000AA
:10362000000000000000000000000000000000009A
:103630000000949A8BB3282F2F7030E1C39FC001F4
:103640001124822B8BBB0000000000000000000052
:10365000000000000000000000000000000000006A
:10366000000000000000000000000000000000005A
:10367000000000000000000000000000000094981E
:103680008AB38F708ABB8BB3806F8BBBCF91089549
:103690000E943F1A8AB38F708ABB8BB3806F8BBB3B
:1036A0009298939A949A0000000000000000000095
:1036B000000000000000000000000000000000000A
:1036C00000000000000000000000000000000000FA
:1036D000000000000000000000000000000099B39E
:1036E00094980000000000000000000000000000AE
:1036F00000000000000000000000000000000000CA
:1037000000000000000000000000000000000000B9
:1037100000000000000000000000949A000000007B
:103720000000000000000000000000000000000099
:103730000000000000000000000000000000000089
:103740000000000000000000000000000000000079
:103750000000000029B322952F70892F807F949854
:10376000822B0895CF93C82F0E943F1A929A939864
:10377000949A8AB3806F8ABB8BB38F709C2F907F93
:10378000892B8BBB0000000000000000000000003F
:103790000000000000000000000000000000000029
:1037A0000000000000000000000000000000000019
:1037B00000000000000000000000000094980000DD
:1037C00000000000000000000000000000000000F9
:1037D00000000000000000000000000000000000E9
:1037E00000000000000000000000000000000000D9
:1037F000000000000000949A8BB3282F2F7030E156
:10380000C39FC0011124822B8BBB0000000000006D
:1038100000000000000000000000000000000000A8
:103820000000000000000000000000000000000098
:103830000000000000000000000000000000000088
:10384000000094988AB38F708ABB8BB3806F8BBB58
:10385000CF91089581E00E94D01A0895623031F02E
:10386000633031F0613029F4805C03C08C5E01C0AC
:103870008C5A80680E94D01A08950F931F93CF939B
:10388000DF9300D01F92CDB7DEB78C016B834A83E4
:103890000E94481B8F7789838A81880F880F880F41
:1038A0008A839B81990F990F990F090F111D885FCA
:1038B0008B838A8180640E94D01AF80184910E94CF
:1038C000B21BFA81FF5FFA830F5F1F4F8B81F813E2
:1038D000F0CF898180680E94D01A0F900F900F90CE
:1038E000DF91CF911F910F9108950E94321A88E2C3
:1038F0000E94D01A81E00E94D01A80E69AEE0E94BF
:10390000083086E00E94D01A8CE00E94D01A82E033
:103910000E94D01A80E80E94D01A40E060E082E75E
:1039200091E00E943D1C41E061E082E791E00E944D
:103930003D1C42E062E082E791E00E943D1C43E0D2
:1039400063E082E791E00E943D1C44E064E082E78E
:1039500091E00E943D1C45E065E082E791E00E9415
:103960003D1C46E066E082E791E00E943D1C47E096
:1039700067E082E791E00E943D1C08950F931F933A
:10398000CF93DF93009781F0662371F0EC016150D3
:10399000062F10E00F5F1F4F080F191F89910E941B
:1039A000B21BC017D107D1F7DF91CF911F910F91B3
:1039B0000895CF93DF93CDB7DEB7CC57D4400FB681
:1039C000F894DEBF0FBECDBFC25ADD4F1882CE5570
:1039D000D240C15ADD4F1882CF55D24080EA90E0E4
:1039E0000E9465334C010E94DB160E94751C0E94E8
:1039F000E0310E9400270E94492C0E94F0160E948C
:103A0000A02D0E942A0185E00E941C0181E00E94F5
:103A1000210180E00E9438010E943E0165E37CE2C2
:103A200086E00E94233065E677E180E00E94233043
:103A300062E17AE780E090E00E94FD318BEC96E154
:103A40000E94F8310E94683260E080E00E942E1CE3
:103A5000BE016F5F7F4F80E00E945D0E882331F0D2
:103A60006CE08AE791E00E94BE1C05C068E087E830
:103A700091E00E94BE1C61E080E00E942E1C0E942A
:103A8000352E813029F467E080E991E00E94BE1C68
:103A9000C759DD4F8881C956D24086950E94F327C9
:103AA000CE01805A9D4F0E9405170F2EF9E03F2E40
:103AB000F02DDD24D394EE24EA94F12CC12C83E57F
:103AC00092E08C0F9D1F0396C758DB4F9983888324
:103AD000C957D4406894BB24B1F8AA24AA942224DC
:103AE00023948AE692E08C0F9D1F0296C558DB4F07
:103AF00099838883CB57D440CE01805A9D4F0E9432
:103B00000517182F893008F082C10E942A1C143032
:103B100048F4C15ADD4F1882CF55D240F12EEA2C1D
:103B2000C12C05C08CEF810F853008F4E12E1330D5
:103B3000C1F12CF4112369F01230F9F072C1163082
:103B400009F4B8C0183009F4E7C0143009F069C1AD
:103B500082C0AE01415A5D4F68E971E0C4010E9424
:103B600007188401C15ADD4F2881CF55D2404C2D12
:103B70006E2D8F2D0E94A81954C1AE01415A5D4F80
:103B800061EA71E0C4010E9407188401C15ADD4F47
:103B90002881CF55D2404C2D6E2D8F2D0E94A81913
:103BA00040C1122DD11010E0DD2011F160E070E075
:103BB00080E090E00E944C2D4AE06DE971E0CE017A
:103BC0008D5C9D4F0E94730ECE018D5C9D4F0E94B7
:103BD000311A60E080E00E942E1C69E086EA91E0E4
:103BE0000E94BE1C0E949A172B013C01D12E19C1C4
:103BF00060E070E080E090E00E94D92C6BE070E023
:103C0000CE018D5A9D4F0E946E2F0E949A17C65A60
:103C1000DD4F488059806A807B80CA55D240460E6D
:103C2000571E681E791E67E080EB91E00E94BE1C63
:103C30009E01225A3D4F44E050E06BE770E0CE0118
:103C40008D5C9D4F0E94F010CE018D5C9D4F0E94B7
:103C5000E712D12EE6C0C110CA948F2D8D7F61F47A
:103C60008401C15ADD4F2881CF55D2404C2D6E2D95
:103C70008F2D0E94A819D5C091E0F912F3C09E01C2
:103C800026593D4FC15ADD4F4881CF55D2406C2D4A
:103C9000CE018D5C9D4F0E94D818C559DD4F6881BB
:103CA000CB56D240C659DD4F8881CA56D2400E94B9
:103CB000402736C1C15ADD4F4881CF55D2402C2D07
:103CC00030E0842F90E00197281739070CF4C39453
:103CD0008F2D8D7F41F48401242F4C2D6E2D8F2D3F
:103CE0000E94A8199EC081E0F812BCC09E0126590E
:103CF0003D4F6C2DCE018D5C9D4F0E94D818C5594B
:103D0000DD4F6881CB56D240C659DD4F8881CA56F7
:103D1000D2400E94402704C192E0F9120CC0B401C5
:103D200080E1C89E600D711D1124CE0182569D4F09
:103D30000E94C11779C0F11039C0311005C0CE0101
:103D40008D5C9D4F0E94E712A40190E1C99E400D39
:103D5000511D1124BE0166597D4FCE018D5C9D4FD2
:103D60000E949218382EBE01615A7D4FCE018D5CA3
:103D70009D4F0E94C6189E0126593D4FC15ADD4FE6
:103D80004881CF55D2406C2DCE018D5C9D4F0E9455
:103D9000D818C559DD4F6881CB56D240C659DD4F82
:103DA0008881CA56D2400E944027BAC081E0F812EA
:103DB00059C00E942A1C60E080E00E942E1C6AE02C
:103DC00088EB91E00E94BE1C622D80E00E942E1CB8
:103DD000C558DB4FE881F981CB57D44001900020D2
:103DE000E9F73197BF01C558DB4F88819981CB57DF
:103DF000D440681B790B0E94BE1CCE018D5C9D4F88
:103E00000E94E7120F2EF9E03F2EF02D89C0893075
:103E100041F4C759DD4F8881C956D24086950E942A
:103E2000F32792E0F9121EC088E0E8124DC0CE01DF
:103E300082569D4F0E94D620811107C0CE01825626
:103E40009D4F0E949D21FB2C40C0CE0182569D4F6C
:103E50000E94C41F68E083EC91E00E94BE1CFB2C12
:103E6000EA2C33C093E0F91230C081E0D8122DC0A3
:103E70000E949A17461657066806790630F5CB5AFF
:103E8000DD4F6881C555D240C758DB4F8881998185
:103E9000C957D4400E9427276BE070E0CE018D5AAD
:103EA0009D4F0E946E2F0E949A17C65ADD4F0881BF
:103EB00019812A813B81CA55D2402B013C01400E19
:103EC000511E621E731E01C0FB2C0E946D328111B7
:103ED00013CE0E945432BE01625A7D4F0E94702759
:103EE000813009F009CEC25ADD4F8881CE55D240CB
:103EF0000E940F2793E0F912FFCDD110FDCD0E9453
:103F00009A1764197509860997090E9404276BE0BE
:103F100070E00E94942E0E949A172B013C01ECCD78
:103F2000F22CD3CFFC01718360830895FC0175836B
:103F300064830895FC017383628308950F931F9334
:103F4000CF93DF938C01FC0184A9882381F0C0E02A
:103F5000D9E1C801DC9F800D911D1124855B9F4F25
:103F60000E946123CF5FF80184A9C81790F30E94D3
:103F70009A17F801FD966083718382839383DF91A2
:103F8000CF911F910F9108950F931F93CF93DF93BC
:103F90008C01FC0184A9882381F0C0E0D9E1C8012B
:103FA000DC9F800D911D1124855B9F4F0E9484230F
:103FB000CF5FF80184A9C81790F3F80114AAEF5B4A
:103FC000FF4F108231961082F80116A2C8010696A2
:103FD0000E94E712DF91CF911F910F9108950F93E7
:103FE0001F93CF93DF93EC01DC01AC5BBF4FFC016F
:103FF000EA5BFF4F2D913C9180819181280F391F01
:1040000021153105E1F00DA91EA901151105B9F021
:1040100033968081882399F040E050E060E077E8B3
:1040200083E993E00E942633CA01B901980140E078
:1040300050E00E9404332FAB38AF49AF5AAFDF9145
:10404000CF911F910F910895FC01EC5BFF4F2081F0
:104050003181260F371F232B19F03296718360832D
:104060000E94EF1F0895FC01EA5BFF4F2081318120
:10407000260F371F232B19F03297718360830E941C
:10408000EF1F0895FC01E85BFF4F6083319640838A
:104090000E94EF1F08950F931F93CF93DF93EC01BE
:1040A0009A01AB018C010C5B1F4F60E077E883E95C
:1040B00093E00E940433F80131832083CE010E94F3
:1040C000EF1FDF91CF911F910F910895CF93DF9351
:1040D000EC011CAA1BAA1FAA18AE19AE1AAE1CAE80
:1040E0001BAEFC01EF5BFF4F1082329610823197BE
:1040F0001082198218821B821A821D821C821EA2C3
:1041000080E390E09EAB8DABCE010E94EF1F68E78D
:1041100070E0CE010E94332060E070E0CE010E948A
:104120002420FE01EC5BFF4F88E790E091838083C1
:10413000CE010E94EF1FFE01E85BFF4F84E0808309
:1041400031968083CE010E94EF1FDF91CF910895B9
:104150000F931F93CF93DF938C01FC01ED5BFF4F17
:104160008081882321F0F80184A9823030F4F8019D
:1041700084A9882391F0C0E001C0C1E0D9E1C80161
:10418000DC9F800D911D1124855B9F4F0E9467234A
:10419000CF5FF80184A9C81790F3F801EF5BFF4FD8
:1041A0001082DF91CF911F910F9108950F931F936C
:1041B000CF93DF938C01FC0184A9882371F0C0E0C8
:1041C000D9E1C801DC9F800D911D1124855B9F4FB3
:1041D0000E945E2381110EC013C0F801ED5BFF4FFA
:1041E0008081882329F0C8010E94A82080E008C0AF
:1041F00081E006C0CF5FF80184A9C81710F3EDCFA6
:10420000DF91CF911F910F9108958F929F92AF925E
:10421000BF92CF92DF92EF92FF920F931F93CF93B3
:10422000DF93EC010E949A172BAD3CAD6901E12CA4
:10423000F12CFE01FD96008111812281338146011E
:104240005701801A910AA20AB30A75016401C60EC9
:10425000D71EE81EF91E8FA898ACA9ACBAACC8143A
:10426000D904EA04FB04D8F0C701B601A501940102
:104270000E9404338901289DC001299D900D389D1D
:10428000900D11245601A81AB90ABCAEABAE0E941B
:104290009A17ED96688379838A839B8302C000E036
:1042A00010E0C801DF91CF911F910F91FF90EF9027
:1042B000DF90CF90BF90AF909F908F900895AF9276
:1042C000BF92CF92DF92EF92FF920F931F93CF9303
:1042D000DF93C0E0FC0124A9222321F17B018C01A2
:1042E000D0E00F2EF9E1DF2EF02DBB24B394CC24C7
:1042F000C394A12CB801DD9E600D711D1124655B76
:104300007F4FA701C8010E941026C11105C0CC2D06
:10431000811103C0CA2D01C0CB2DDF5FF80184A934
:10432000D81740F3DF91CF911F910F91FF90EF903D
:10433000DF90CF90BF90AF9008950F931F93CF93CE
:10434000FC01EE5BFF4FC081C11118C08C01319799
:104350008081811108C0C8010E949E1F81E0F80180
:10436000EF5BFF4F8083C8010E940521009739F061
:10437000BC01C8010E945F21C1E001C0C0E08C2FD8
:10438000CF911F910F9108958F929F92AF92BF92FC
:10439000CF92DF92EF92FF920F931F93CF93DF9311
:1043A000CDB7DEB729970FB6F894DEBF0FBECDBFED
:1043B000FC0126A1222309F4D0C08C016C01F6E097
:1043C000CF0ED11CBC016A5D7F4F41E0C6010E9447
:1043D000730E8111C5C09E012F5F3F4F44E050E036
:1043E000BE016B5F7F4FC6010E94A40F19866CEC63
:1043F00071E0CE0105960E948634892B31F0C6010A
:104400000E94E71283E090E0B0C064E0C6010E9421
:10441000CF2269837A838B839C8366307105810503
:10442000910531F0C6010E94E71284E090E09DC042
:1044300062E0C6010E94CF226230710530F0C601F1
:104440000E94E71285E090E090C0F80163AB62E063
:10445000C6010E94CF22272F862F922FF80123A971
:10446000211108C0019771F0C6010E94E71286E091
:1044700090E07BC0419730F0C6010E94E71287E0D0
:1044800090E073C0F80164AB62E0C6010E94CF22E5
:10449000AB01772354F5272F3327233E3105D9F07D
:1044A00020F4223E310559F00DC0273E310521F0A0
:1044B000283E310569F006C029E130E00EC02EE14A
:1044C00030E00BC0C6010E94E71287E090E04DC0CB
:1044D00028E130E002C02DE130E07727629FA001A3
:1044E000639F500D729F500D1124F80156AB45ABE0
:1044F000C8010E94EF1FF80184A98823A1F1B12C03
:104500000F2EF9E1AF2EF02D8B2C912CA89CC00121
:10451000A99C900D1124855B9F4FA8016B2D800FE6
:10452000911F0E948E267C01019679F0C6010E949F
:10453000E7128FEF881A980A2AE0289DC001299D6A
:10454000900D11248E0D9F1D10C0B394F80184A905
:10455000B816D0F28FEF9FEF08C080E090E005C062
:1045600082E090E002C08FEF9FEF29960FB6F8949B
:10457000DEBF0FBECDBFDF91CF911F910F91FF9096
:10458000EF90DF90CF90BF90AF909F908F90089565
:104590006115710519F086960E948F340895AF92C7
:1045A000BF92CF92DF92EF92FF920F931F93CF9320
:1045B000DF9300D01F92CDB7DEB76623F1F0A62EB1
:1045C0008C01B12CC12CD12C76019E012E5F3F4F66
:1045D00041E050E0BE016F5F7F4FC8010E94A40F11
:1045E000FE2CED2CDC2CCC248981C80ED11CE11CC6
:1045F000F11CB394AB10E9CF03C0C12CD12C7601D0
:10460000C701B6010F900F900F90DF91CF911F91CE
:104610000F91FF90EF90DF90CF90BF90AF900895F3
:10462000CF92DF92EF92FF920F931F93CF93DF937E
:1046300000D01F92CDB7DEB78C01C12CD12C7601F2
:104640009E012E5F3F4F41E050E0BE016F5F7F4F04
:10465000C8010E94A40FCC0CDD1CEE1CFF1CCC0C6E
:10466000DD1CEE1CFF1CCC0CDD1CEE1CFF1CCC0C5E
:10467000DD1CEE1CFF1CCC0CDD1CEE1CFF1CCC0C4E
:10468000DD1CEE1CFF1CCC0CDD1CEE1CFF1C89810C
:10469000982F9F77C90ED11CE11CF11C882384F24E
:1046A000C701B6010F900F900F90DF91CF911F912E
:1046B0000F91FF90EF90DF90CF900895FC018585DA
:1046C0000895FC0116861786108A118A0895FC0148
:1046D0001186128613861486158616861786108A0A
:1046E000118A0895CF93DF93EC0119821A821B82FD
:1046F0001C821D821E821F8218860E9467238FEFF4
:104700008883DF91CF9108950E94722308954F927C
:104710005F926F927F928F929F92AF92BF92CF9251
:10472000DF92EF92FF920F931F93CF93DF93CDB75A
:10473000DEB7CF55D1090FB6F894DEBF0FBECDBF9F
:104740006C018B017C0186E0E80EF11C9E012E5F5E
:104750003F4F41E050E0BE016F5F7F4FC7010E94B5
:10476000A40F8981803E30F4803CE0F5803808F465
:1047700056C00BC0803F09F47DC038F0873F09F474
:1047800079C08F3F09F4D0C030C293E0D80154966D
:104790009C935497982F9F7053969C935397807F28
:1047A00055968C939E012E5F3F4F41E050E0B8013B
:1047B0006A5E7F4FC7010E94A40F9E012E5F3F4F8C
:1047C00041E050E0B801695E7F4FC7010E94A40F2D
:1047D000D601ED91FC91309709F40AC2C8014296C6
:1047E000099506C292E0F801948B982F9F70938BE5
:1047F000807F858B9E012E5F3F4F41E050E0B801E6
:104800006A5E7F4FC7010E94A40FD601ED91FC9113
:10481000309709F4EDC1C80142960995E9C1F80144
:10482000868B84898330B0F06894BB24B1F848014A
:10483000F6E18F0E911C9E012E5F3F4F41E050E04C
:10484000B401C7010E94A40FB394D80154968C916F
:10485000B81688F3882321F090E09F5F9813FDCF6E
:10486000D601ED91FC91309709F4C2C1C80142967E
:104870000995BEC1F80180818C83C7010E94102375
:104880007E836D832981203F41F42F836F5F7F4FAB
:104890007E836D8301E010E002C000E010E0AD8097
:1048A000BE80F3E3AF16B10428F00F2EF2E3AF2E73
:1048B000B12CF02D0A151B05B0F4B8016D5F7F4FC8
:1048C00084E090E08C0F9D1F680F791F9E012E5F82
:1048D0003F4F41E050E0C7010E94A40F0F5F1F4F00
:1048E0000A151B0550F38D819E81A816B90680F428
:1048F0008A199B09D6011C964D915D916D917C9111
:104900001F97480F591F611D711DC7010E94341464
:10491000D6011296ED91FC911397309709F468C176
:10492000CE010496099564C19E012E5F3F4F41E080
:1049300050E0BE016F5F7F4FC7010E94A40FC70107
:104940000E9410232B013C01F80180818C835E8240
:104950004D8289818F838F3299F048F4803209F437
:10496000E8C0813209F4EBC08111EFC0DBC08835AB
:10497000E1F0893509F456C0813509F0E6C003C07D
:1049800081E0858727C163E0C7010E94CF22162FEF
:10499000072FF82E462F572F682F792FC6010E9418
:1049A0004B20F88609871A8715C19E012E5F3F4F5D
:1049B00041E050E0BE01625A7F4FC7010E94A40F40
:1049C0009E012E5F3F4F41E050E0BE01665C7F4F8D
:1049D000C7010E94A40F41E050E00AAC02C0440F9E
:1049E000551F0A94E2F76F966FAD6F97C6010E944C
:1049F0004220F601448555856685778542505109E8
:104A000061097109440D551D661D771DC7010E947E
:104A100034146F968FAD6F9788878AAD89871A8611
:104A20001B86D8C09E012E5F3F4F41E050E0BE0183
:104A3000615A7F4FC7010E94A40F9E012E5F3F4F16
:104A400041E050E0BE01625A7F4FC7010E94A40FAF
:104A500084E2E0E8F0E0DE01DA9601900D928A95BA
:104A6000E1F7A096EFADA09787E08E0F8F3008F0AA
:104A700045C06F968FAD6F97882319F08130D9F0BC
:104A800034C00E2E000CFF0B3796EE0FFF1FEC0FFD
:104A9000FD1F62AD73AD8E01085F1F4FC8010E94FC
:104AA0008F34F80101900020E9F731978DE490E010
:104AB000918380832BC00E2E000CFF0B3A96EE0FD5
:104AC000FF1FEC0FFD1F62AD73AD8E01085F1F4F1E
:104AD000C8010E948F34F80101900020E9F7319756
:104AE0008DE690E09183808311C085E492E79987F9
:104AF000888782E790E09B878A8708C085E492E7F1
:104B00009987888782E790E09B878A87DE011896DD
:104B1000FD0101900020E9F73197EA1BFB0BFE83B2
:104B2000ED8358C062E0C7010E94CF227887698771
:104B300051C061E0C7010E94CF2268874BC061E08D
:104B4000C7010E94CF22688745C0842DF3E34F162A
:104B500051046104710408F082E3982E882301F166
:104B600004E010E00C0F1D1F0C5F1F4F8150A82E9A
:104B7000B12C85E0A80EB11CA4E0B0E0AC0FBD1FC5
:104B8000AA0EBB1E9E012E5F3F4F41E050E0B801D0
:104B9000C7010E94A40F0F5F1F4FA016B10691F727
:104BA000FE01E90DF11D1086B3E34B1651046104BB
:104BB000710480F0F60144855585668577854253FA
:104BC000510961097109440D551D661D771DC70105
:104BD0000E943414D6011496ED91FC9115973097EC
:104BE00039F0CE010496099503C081E0F80185876C
:104BF000C15ADF4F0FB6F894DEBF0FBECDBFDF91B5
:104C0000CF911F910F91FF90EF90DF90CF90BF90C9
:104C1000AF909F908F907F906F905F904F9008958E
:104C20008F929F92AF92BF92CF92DF92EF92FF92BC
:104C30001F93CF93DF93FB011585111161C06A01AA
:104C4000EB017C015C01F6E0AF0EB11C4D815E8191
:104C50006F81788589859A85AB85BC85480F591FFA
:104C60006A1F7B1FC5010E9434148E859F85A88909
:104C7000B9898C0D9D1DA11DB11D8E879F87A88BA5
:104C8000B98BC5010E9410238E849F84A888B9889F
:104C900086169706A806B906A0F1A5019401261B61
:104CA000370B480B590B2E873F87488B598BBE011A
:104CB000C7010E948723F70184859585A685B7855E
:104CC0004D815E816F817885841B950BA60BB70B98
:104CD00089879A87AB87BC872D8521110DC021E07C
:104CE00049815A816B817C8184179507A607B70794
:104CF00008F420E0822F01C081E08D8711E001C01F
:104D000010E0812FDF91CF911F91FF90EF90DF9006
:104D1000CF90BF90AF909F908F9008958F929F9269
:104D2000AF92BF92CF92DF92EF92FF920F931F93B9
:104D3000CF93DF93CDB7DEB729970FB6F894DEBFD8
:104D40000FBECDBF8C016A01FC01628B60837A01CA
:104D5000F6E0EF0EF11C9E012F5F3F4F44E050E064
:104D6000BE016B5F7F4FC7010E94A40F19866EEFD3
:104D700071E0CE0105960E948634892B19F080E0FF
:104D800090E02BC064E0C7010E94CF2269837A8340
:104D90008B839C83F8016183728383839483F60100
:104DA00084849584A684B784F80185829682A7823C
:104DB000B0861186128613861486AB01BC01480D9D
:104DC000591D6A1D7B1DC7010E943414811103C047
:104DD0008FEF9FEF02C081E090E029960FB6F89424
:104DE000DEBF0FBECDBFDF91CF911F910F91FF901E
:104DF000EF90DF90CF90BF90AF909F908F900895ED
:104E000081E08093CF020895E3EDF2E02091D0029B
:104E100022836783708781879287CF0108950F93DC
:104E20001F93CF93DF93882369F0C6EDD2E08150C2
:104E3000082F10E009521D4F89910E943032C0178F
:104E4000D107D1F7DF91CF911F910F9108950F9363
:104E50001F93CF93DF93662371F0EC016150062F0F
:104E600010E00F5F1F4F080F191F89910E94303209
:104E7000C017D107D1F7DF91CF911F910F910895FE
:104E80001F93CF93DF93162FC3EDD2E090EB9B835C
:104E90001C828D8383E00E940F2780EC8B831C8310
:104EA00082E00E940F27DF91CF911F910895E82F94
:104EB000E07FE03F09F4E82F8E2F90E0FC01E058FE
:104EC000F109E038F10540F4E65DFF4F0C944533FD
:104ED00082E0089583E0089580E0089581E00895D8
:104EE000FF920F931F93CF93DF93D82F8B01C09125
:104EF000CF02C23051F1C33009F453C0C13009F0C0
:104F000057C0803F09F456C00E945727813039F4BA
:104F1000F8018083D093D60210921C0250C08111F8
:104F20000AC080911C02813059F4D093D70282E0EC
:104F30008093D00205C0D093D60281E08093D00246
:104F400082E08093CF02C0E03AC00E945727C82F6A
:104F5000882339F081E08093CF0210921C02C0E0D8
:104F60002EC0E091D002FF24F394FE0EF092D00206
:104F7000F0E0ED52FD4FD3838091D602807F0E94F6
:104F80005727F8121CC081E08093CF02F801F0820D
:104F90008091D602807981F081E080931C02C1E08B
:104FA0000EC0873F59F481E08093CF02C0E007C074
:104FB000C0E005C0C0E003C0C1E001C0C0E08C2F6C
:104FC000DF91CF911F910F91FF900895089508955B
:104FD000FC0193818181892B83836281CF010396B8
:104FE0000E94272708958093CE0208958FEF8FB9EE
:104FF000779BFECF8FB1089582E380931E020E94BB
:10500000F6270E94F6278F3F39F080911E0281110A
:10501000F8CF80E090E0089581E090E00895C49A90
:105020000E94F6270895CF93DF93C4980E94FC272F
:10503000EC01892B19F40E940F2802C0C1E0D0E0D6
:10504000CE01DF91CF9108950F931F93CF93DF93FC
:10505000082F192FEB0184E180931F020E94F6278D
:105060008F3F39F480911F028111F8CF80E090E0EA
:105070002CC08E3F41F5E02FF12F8FEF8FB9779B3A
:10508000FECF9FB1DF0190838FB9779BFECF9FB199
:1050900011969C9311978FB9779BFECF9FB1129673
:1050A0009C9312978FB9779BFECF9FB113969C93D9
:1050B00024973496209711F70E94F6270E94F6272E
:1050C00081E090E002C080E090E0DF91CF911F91FD
:1050D0000F9108950F931F93CF938C01C62F0E94B9
:1050E000FC27009759F1CFB9779BFECFCD3F21F137
:1050F000F80198013E5FDF0180818FB9779BFECF79
:1051000011968C918FB9779BFECF3296E217F307F9
:1051100091F78FEF8FB9779BFECF8FEF8FB9779B8A
:10512000FECF0E94F6278F7131E020E0853009F034
:1051300030E0832F922F02C081E090E0CF911F9149
:105140000F910895CF92DF92EF92FF92CF93C82FE5
:105150006A017B0188234CF440E050E0BA0187E308
:105160000E94A2288230E0F5CF770E940F280E948B
:105170001328892BA1F18C2F80648FB9779BFECFE8
:105180008F2D9927AA27BB278FB9779BFECFC70101
:10519000AA27BB278FB9779BFECFBB27AF2D9E2DAC
:1051A0008D2D8FB9779BFECFCFB8779BFECFCC23C9
:1051B00021F0C83021F487E803C085E901C081E00F
:1051C0008FB9779BFECFCC3011F40E94F627CAE04E
:1051D0000E94F627882324F4C150D1F701C08FEF35
:1051E000CF91FF90EF90DF90CF900895CF92DF9214
:1051F000EF92FF920F931F93CF93DF9300D000D0D5
:10520000CDB7DEB7811199C08091660081FF03C0E0
:10521000809166009FC0699A1AE00E94F62711509B
:10522000E1F740E050E0BA0180E00E94A22881301E
:1052300009F08BC084E680931F024AEA51E060E0E7
:1052400070E088E00E94A228813009F03FC0CE01C2
:1052500001966C017E0195E0E90EF11C86010E9429
:10526000F627F80181938F01EE16FF06C1F78B81B7
:10527000813009F06AC08C818A3A09F066C0809159
:105280001F02882349F040E050E060E070E489EAC2
:105290000E94A2288111F3CF80911F02882309F474
:1052A00054C040E050E0BA018AE30E94A228811174
:1052B0004CC00E94F627F60181936F01EE16FF069F
:1052C000C1F7898186FD3BC084E03AC040E050E0F0
:1052D000BA0189EA0E94A228823018F001E011E0A8
:1052E00002C002E019EA80911F02882341F040E0E9
:1052F00050E0BA01812F0E94A2288111F4CF809141
:105300001F02882311F140E052E060E070E080E18C
:105310000E94A228811119C000931D020E940F282B
:10532000002341F0809166008E7F809366008DB1EE
:105330008C7F8DB9809166000DC081E00BC08CE040
:1053400080931D020E940F28EDCF10921D020E9433
:105350000F28F0CF0F900F900F900F90DF91CF910B
:105360001F910F91FF90EF90DF90CF9008958111E2
:1053700003C080916600089581E008950F93CF9354
:10538000DF93EB01811144C0002309F443C08091F5
:10539000660080FD41C080911D0283FD09C0012E81
:1053A00019E0220F331F441F551F1A95D1F7102DF6
:1053B000013081F4BA01A90181E10E94A228811182
:1053C00020C060E072E0CE010E942428892BC9F041
:1053D00000E017C0BA01A90182E10E94A228811150
:1053E00010C060E072E0CE010E942428892B19F0E1
:1053F000DE5F0150B1F740E050E0BA018CE00E945E
:10540000A2280E940F2881E0011107C080E005C09A
:1054100084E003C084E001C083E0DF91CF910F916D
:105420000895CF92DF92EF92FF920F93CF93DF9385
:10543000EB0169017A01811151C0002309F450C0C8
:105440008091660080FD4EC08091660082FD4CC058
:1054500080911D0283FD09C00B2EB9E0CC0CDD1C30
:10546000EE1CFF1CBA95D1F7B02D013079F4B701CD
:10547000A60188E10E94A228811129C06EEFCE0109
:105480000E946A28892B19F100E021C0867039F04A
:10549000402F50E060E070E087E90E94A228B70149
:1054A000A60189E10E94A228811111C06CEFCE01F2
:1054B0000E946A28892B19F0DE5F0150B9F76DEF61
:1054C00080E090E00E946A28892B09F401E00E94A4
:1054D0000F2881E0011109C080E007C084E005C009
:1054E00084E003C083E001C082E0DF91CF910F919F
:1054F000FF90EF90DF90CF900895EF92FF920F937F
:105500001F93CF93DF93CDB7DEB760970FB6F894B4
:10551000DEBF0FBECDBF811196C1653071F4FA01B7
:105520008081882319F0813019F08FC180E090C10B
:1055300081E0FA01818380E08BC18091660080FD6B
:1055400086C18A01862F90E08F30910508F060C1F6
:10555000FC01E655FF4F0C9445330E941328892B1C
:1055600009F458C10E940F2810E069C140E050E0E2
:10557000BA0189E00E94A22881114EC160E170E069
:10558000CE0101960E942428892B09F447C1898104
:1055900082958695869583708130D9F4898590E0CF
:1055A000382F22278A8590E00196820F931FA0E072
:1055B000B0E0072E7AE0880F991FAA1FBB1F7A95CB
:1055C000D1F7702DF80180839183A283B38310E01B
:1055D00036C1298522952695269523708885F4E085
:1055E0008F9FC0011124820F911D9C012F5F3F4F9F
:1055F0008F81837090E0982F8827990F990F820FE1
:10560000931FA0E0B0E03E813F702B85221F222730
:10561000221F320F2A852370220F230F275004C028
:10562000880F991FAA1FBB1F2A95D2F7F801808304
:105630009183A283B38310E002C180E092E0FA017B
:105640009183808310E0FBC0F0901D02F2FE31C018
:1056500040E050E0BA018DE80E94A2288111E0C02C
:105660000E94F62760E170E0CE0101960E94242896
:10567000892B09F4D7C00F2EF0E3FF2EF02D0E94E6
:10568000F627FA94F110FBCF2B8522952F7080E13D
:1056900090E0A0E0B0E004C0880F991FAA1FBB1FD4
:1056A0002A95D2F7F80180839183A283B38310E017
:1056B000C6C040E050E0BA0189E00E94A2288111F2
:1056C000B3C060E170E0CE0101960E942428892BCE
:1056D00009F4ACC0F1FE20C02B852F738C85881F88
:1056E0008827881F90E00196820F911D820F911DDF
:1056F0002E852295269526952370215002C0880F6D
:10570000991F2A95E2F7A0E0B0E0F8018083918329
:10571000A283B38310E093C08C85282F23708295D9
:105720008695877090E0F8E02F9F800D911D1124E1
:1057300001962B852C7730E0359527953595279563
:105740002F5F3F4F829FA001839F500D929F500D6E
:105750001124CA01A0E0B0E0F80180839183A28304
:10576000B38310E06CC080911D02FA01808310E0C9
:1057700066C040E050E0BA0189E00E94A228811191
:1057800057C060E170E0C8010E94242811E0892B15
:1057900009F455C010E053C040E050E0BA018AE07F
:1057A0000E94A228811146C060E170E0C8010E94F9
:1057B000242811E0892B09F442C010E040C040E0E9
:1057C00050E0BA018AE30E94A228811135C0780115
:1057D0000C5F1F4F0E94F627F70181937F010E1780
:1057E0001F07C1F710E02BC040E050E0BA018DE880
:1057F0000E94A228811122C00E94F62760E470E076
:10580000C8010E94242811E0892BC9F010E017C0BC
:1058100014E015C011E013C011E011C011E00FC079
:1058200011E00DC011E00BC011E009C011E007C08C
:1058300011E005C011E003C011E001C011E00E94B9
:105840000F28812F05C084E003C084E001C083E0FD
:1058500060960FB6F894DEBF0FBECDBFDF91CF913B
:105860001F910F91FF90EF90089580911F02882360
:1058700019F0815080931F0280911E02882319F035
:10588000815080931E0280916600897F809366001C
:105890000895C79AC69ABF9ABE98BD9ABC9A6C9A48
:1058A000689A699A6B986D986E9A8EB181E0809330
:1058B000DE0208958FB9779BFECF08958FB9779B4D
:1058C000FECF8FB10895EDE2F2E0108211821282D4
:1058D0001382148215821682178210861186128610
:1058E000138610923A020895E0E2F2E010821182EB
:1058F00012821382148215821682178210861186F4
:105900001286138610923A020895092E000CAA0BF3
:10591000BB0B409135025091360260913702709175
:105920003802840F951FA61FB71F009728E0A20713
:10593000B10548F48093350290933602A093370264
:10594000B09338020AC0A770BB27809335029093AA
:105950003602A0933702B0933802EDE2F2E0808580
:105960009185A285B385AC01BD0161707727408325
:10597000518362837383AC01BD01689414F87695FA
:105980006795579547951694D1F75F7066277727E7
:105990004483558366837783072E71E1B695A79577
:1059A000979587957A95D1F7702D848780933A02E1
:1059B0000895CF93DF93EC016130710571F020F011
:1059C0006230710539F011C00E94632CCE010E9433
:1059D000852C0BC00E94852C08C00E94632C882750
:1059E00099278C1B9D0B0E94852CDF91CF910895E8
:1059F000092E000CAA0BBB0B4091280250912902E2
:105A000060912A0270912B02840F951FA61FB71F69
:105A1000009728E0A207B10548F4809328029093EC
:105A20002902A0932A02B0932B020AC0A770BB27B9
:105A30008093280290932902A0932A02B0932B020C
:105A4000E0E2F2E080859185A285B385AC01BD01DD
:105A5000617077274083518362837383AC01BD01FA
:105A6000689414F876956795579547951694D1F7ED
:105A70005F70662777274483558366837783072E75
:105A800071E1B695A795979587957A95D1F7702D81
:105A9000848780933A020895CF93DF93EC016130BD
:105AA000710571F020F06230710539F011C00E946B
:105AB000742CCE010E94F82C0BC00E94F82C08C058
:105AC0000E94742C882799278C1B9D0B0E94F82C10
:105AD000DF91CF9108958FEF0E945E2C089590E0A2
