:100000000C946E000C948B000C948B000C948B0061
:100010000C9432180C943E170C9405180C94AB17E2
:100020000C94D8170C9411170C947E170C94BE16D0
:100030000C948B000C942C190C948B000C94F518D8
:100040000C94C9000C948B000C948B000C948B00C6
:100050000C948B00001F000000001F00001F1010F8
:1000600010101F00001F181818181F00001F1C1C5C
:100070001C1C1F00001F1E1E1E1E1F00001F1F1F16
:100080001F1F1F0003070F1F0F070300001F1F1F65
:100090001F1F1F001B1B1B1B1B1B1B00181C1E1FD5
:1000A0001E1C18000004040E0E1F1F00001F1F0E50
:1000B0000E0404000000000000000000000E1915EE
:1000C000130E0000000E1515150E0000000E13157E
:1000D000190E0000000E111F110E000011241FBE8A
:1000E000CFE5D8E0DEBFCDBF11E0A0E6B0E0E4EEA2
:1000F000F3E302C005900D92A633B107D9F724E0CF
:10010000A6E3B1E001C01D92A233B207E1F70E945D
:100110004F120C94F0190C94000096B1987F892B23
:1001200086B9089527B12F7330E4839FC00111244D
:10013000822B87B90895379A359886E00E948D0002
:1001400081E00E9492003D98339A1092D6017894F3
:10015000089597B1907E8F71892B87B90895349A4D
:10016000369A08951092D60197B1907E8F71892B9F
:1001700087B9349A369A3699FECF84B125B190E08A
:10018000922B08950E94B200969587959695879533
:1001900008951F920F920FB60F9211248F9381E052
:1001A0008093D6018F910F900FBE0F901F901895DE
:1001B000FC018FB7F8947183608353834283178265
:1001C0001682158214828FBF0895FC019FB7F894A0
:1001D0004481558141155105C9F026813781A0819F
:1001E000B181A20FB31F8C912F5F3F4F37832683BE
:1001F000628173812617370720F0261B370B378360
:100200002683415051095583448301C080E09FBF3C
:100210000895FC01362F2FB7F894448155816281EF
:1002200073814617570798F486819781840F951F2D
:100230000E946B19A081B181A80FB91F3C938481E2
:1002400095810196958384832FBF8FEF08952FBFEB
:1002500080E00895CF93DF93DB01FC019A01223007
:10026000310538F0CD91DD91C193D1932250310900
:10027000F6CF9A012E7FFC01E20FF31FDB01A20FE4
:10028000B31F4217530711F02C912083DF91CF91B8
:1002900008954F925F926F927F92AF92BF92CF92EA
:1002A000DF92EF92FF920F931F93CF93DF93FC01A6
:1002B00046A457A460A871A844165506660677069A
:1002C00011F480E050C06A017B01EC01848181114E
:1002D00006C0C114D104E104F10499F335C05F01F3
:1002E000F2E3AF0EB11C01E0A3019201B5018981D7
:1002F0000E942516882311F081E035C01C824AA196
:100300005BA16CA17DA18E8D9F8DA8A1B9A1840F49
:10031000951FA61FB71F481659066A067B06C8F622
:100320001B811230B0F28E8D9F8DA8A1B9A1480E0D
:10033000591E6A1E7B1E01E0A3019201B50189814D
:100340000E9425161150EDCF01E0A7019601BE01D4
:100350006E5C7F4F89810E94D9158111CDCFCEA6C9
:10036000DFA6E8AAF9AADF91CF911F910F91FF9024
:10037000EF90DF90CF90BF90AF907F906F905F90A5
:100380004F9008950F93CF93DF93EC019A01AB0147
:10039000BC016E5C7F4F01E089810E94D9158111FB
:1003A00022C0FE01E05DFD4F8081918185359A4A32
:1003B000E1F4E85CF14080819181A281B381BB27A7
:1003C00086349144A445B10591F0CC57DF4F488164
:1003D00059816A817B81772781E0463451446445A5
:1003E000710531F404C083E003C082E001C080E005
:1003F000DF91CF910F9108952F923F924F925F928C
:100400006F927F928F929F92AF92BF92CF92DF9224
:10041000EF92FF920F931F93CF93DF93CDB7DEB789
:100420002E970FB6F894DEBF0FBECDBFDC01ED9165
:10043000FC911197208130E0205331092A30310599
:1004400038F451815A3321F43296ED93FC9303C072
:100450002091360130E0232B09F00CC2E0913901E4
:10046000F0913A01FE87ED87DB01ED93FC93309725
:1004700009F402C2142F8081882361F081810E94D7
:10048000D21580FD07C0112309F4F8C182FFF6C11F
:100490008AE013C2ED85FE851082118280E00E9401
:1004A000191580FDEDC1112311F082FDF1CF40E05F
:1004B00050E0BA018D859E850E94C2018130C1F451
:1004C000ED85FE85EC50FE4F8081811102C08DE0EC
:1004D000F4C1ED85FE85E850FE4F4080518062807A
:1004E0007380B301A2018D859E850E94C20103C065
:1004F000412C512C3201833009F4C4C18111E7CF62
:10050000AD85BE85DD968D919C91DE9781159240DB
:10051000F1F6ED85FE85E85BFF4F80809180A12C90
:10052000B12C81149104A104B10441F4ED85FE8540
:10053000EA5AFF4F80809180A280B380ED85FE85CE
:10054000868E978EA0A2B1A2EE5BFF4FA081ED85B3
:10055000FE85A3838FEF8A0F823008F0B8CF17ADE6
:100560001283112309F4B3CF812F90E09C01215015
:10057000310982239323892B09F0A9CFED5BFF4F2B
:1005800020803180ED85FE8531862086C1018F7007
:100590009927892B09F09BCFEB5BFF4FC080D1805F
:1005A000E12CF12CC114D104E104F10441F4ED85F6
:1005B000FE85EE5AFF4FC080D180E280F380ED854A
:1005C000FE85E05CFF4F0190F081E02D309709F44B
:1005D0007ECFB0E0A50194010E94A1196D837E83B6
:1005E0008F8398879F0140E050E029873A874B87A7
:1005F0005C87C10164E0969587956A95E1F7280FBD
:10060000391F411D511DDA01C9012D813E814F81E4
:100610005885280F391F4A1F5B1F29833A834B8354
:100620005C83C216D306E406F50608F450CFC70172
:10063000B601621B730B840B950B212F30E040E059
:1006400050E00E947F19211531054105510509F43B
:100650003ECF69017A0162E0C60ED11CE11CF11C9B
:1006600089819A81AB81BC81840D951DA61DB71D22
:1006700089839A83AB83BC8389859A85AB85BC8546
:10068000840D951DA61DB71D263FEFE03E074105D1
:10069000510580F1263F3F4F4105510508F4F4C054
:1006A000ED85FE85C28ED38EE48EF58E29813A814A
:1006B0004B815C8122A733A744A755A782A393A3AC
:1006C000A4A3B5A3232809F002CFE25AFF4F8081EB
:1006D0009181A281B381ED85FE8586A397A3A0A712
:1006E000B1A742E0CC0CDD1CEE1CFF1C4A95D1F7F3
:1006F00013E02BC011E0ED85FE85C28ED38EE48E13
:10070000F58E29813A814B815C8122A733A744A7CA
:1007100055A782A393A3A4A3B5A3232809F4D7CEF6
:100720002D813E814F815885820F931FA41FB51FD5
:10073000ED85FE8586A397A3A0A7B1A7123009F087
:10074000A5C0CC0CDD1CEE1CFF1C2FEFC20E21E05F
:10075000D21EE11CF11C89E0F694E794D794C7946B
:100760008A95D1F78C149D04AE04BF0408F4AFCE73
:100770008FEF9FEFDC01ED85FE8586879787A08B45
:10078000B18BDF011286138614861586133009F0AB
:1007900054C01582EE59FF4F80819181A3019201CF
:1007A000280F391F411D511DFD01228B338B448BB6
:1007B000558B01E0BD016E5C7F4F81810E94D91590
:1007C00081113BC0ED85FE85E05DFD4F808191810B
:1007D00085359A4A91F5ED85FE8582A993A9A4A94C
:1007E000B5A982359245A146B14439F5ED85FE851E
:1007F000EA5EFD4F80819181A281B3818237924769
:10080000A144B146D1F4ED85FE85E25EFD4F8081C5
:100810009181A281B381ED85FE8582879387A4872C
:10082000B587E65EFD4F80819181A281B381ED8520
:10083000FE8586879787A08BB18BAD85BE851C937F
:1008400080913701909138010196909338018093FF
:10085000370117969C938E931697FD0116A617A63F
:1008600010AA11AA148256961D921D921D921C92D6
:10087000599704C08BE021C08CE01FC080E01DC0F0
:1008800083E01BC081E019C012E035CFA3E0B0E0E7
:10089000A70196010E94A119DC01CB01B695A7958D
:1008A00097958795F1E0CF22DD24EE24FF24C80E32
:1008B000D91EEA1EFB1E11E048CF2E960FB6F89403
:1008C000DEBF0FBECDBFDF91CF911F910F91FF9083
:1008D000EF90DF90CF90BF90AF909F908F907F90E0
:1008E0006F905F904F903F902F900895009781F008
:1008F000FC012081222361F02681378126173707EA
:1009000039F481810E94D21580FD04C080E00895F1
:1009100089E0089583E008950F931F93FC019A01E5
:10092000AB012250310941095109828D938DA48D6B
:10093000B58D0297A109B109281739074A075B0746
:1009400068F4A281B0E00E94A11902A513A524A514
:1009500035A5600F711F821F931F03C060E070E018
:10096000CB011F910F910895AF92BF92CF92DF926A
:10097000EF92FF920F931F93CF93DF934230510575
:100980006105710508F4A9C0FC01028D138D248D49
:10099000358D401751076207730708F09EC06A0142
:1009A0007B01EC018081823009F448C0833009F476
:1009B00068C0813009F096C05A01B694A794AC0C77
:1009C000BD1CC501892F992786954AA15BA16CA101
:1009D0007DA1480F591F611D711DCE010E94490163
:1009E000811180C0F501F170EC0FFD1F12A9FFEF1E
:1009F000AF1ABF0AC501892F992786954AA15BA125
:100A00006CA17DA1480F591F611D711DCE010E946F
:100A10004901811167C0C5019170FE01E80FF91FFE
:100A200082A9612F70E0782BC0FE06C054E0769555
:100A300067955A95E1F722C07F7020C077276F2D08
:100A40005E2D4D2D82A193A1A4A1B5A1480F591FE0
:100A50006A1F7B1FCF010E944901811143C0CC0C4A
:100A6000DD1CEE1CFF1CE894C0F881E0D822EE24C7
:100A7000FF24FE01EC0DFD1D62A973A980E090E04A
:100A800034C082A193A1A4A1B5A127E07695679572
:100A9000579547952A95D1F7480F591F6A1F7B1F15
:100AA000CF010E94490181111DC082E0CC0CDD1CE8
:100AB000EE1CFF1C8A95D1F7ECEFCE22E1E0DE229E
:100AC000EE24FF24FE01EC0DFD1D82A993A9A4A92B
:100AD000B5A9BC01CD019F7008C061E070E080E065
:100AE00090E003C06FEF7FEFCB01DF91CF911F91BB
:100AF0000F91FF90EF90DF90CF90BF90AF9008954F
:100B0000EF92FF920F931F93CF93DF938C01EB0132
:100B1000DC0115967C936E93149716964D915D911A
:100B20006D917C911997413051056105710511F462
:100B300082E087C0DC01ED91FC91828D938DA48DC4
:100B4000B58D481759076A077B0790F7411551057E
:100B50006105710519F58081833049F446A157A1DB
:100B600060A571A54115510561057105B9F4D8015C
:100B70001A961D921D921D921C921D97808591853B
:100B8000C817D907A8F686A197A1A0A5B1A59E016F
:100B900054E0369527955A95E1F739C0E280F0E1A7
:100BA000EF9E70011124F80180819181CE15DF053F
:100BB00000F10E94B404AB01BC014F3F8FEF580716
:100BC00068077807E9F1423051056105710508F4BD
:100BD000AFCFD801ED91FC91828D938DA48DB58D11
:100BE000481759076A077B0708F0A2CFCE19DF091B
:100BF000DACF42875387648775870E948C049E01F1
:100C000044E0369527954A95E1F7DC01CB01820F48
:100C1000931FA11DB11DF80186879787A08BB18B0B
:100C200080819181C296CF70DD2725E0CC0FDD1F3A
:100C30002A95E1F7C80FD91FD38BC28B80E001C082
:100C400081E0DF91CF911F910F91FF90EF90089578
:100C50004F925F926F927F92AF92BF92CF92DF924C
:100C6000EF92FF920F931F93CF93DF9300D000D0AA
:100C700000D0CDB7DEB7423051056105710508F4EB
:100C8000F0C0DC015A96CD90DD90ED90FC905D9720
:100C90004C155D056E057F0508F0E3C0280139019C
:100CA0006A017B019E838D83FC018081823009F47F
:100CB0006FC0833009F493C0813009F0CBC05A0172
:100CC000B694A794AC0CBD1CC501892F99278695B5
:100CD00042A153A164A175A1480F591F611D711D47
:100CE000CF010E9449018111B6C0F501F1702D813B
:100CF0003E81E20FF31FD701C60181709927AA2711
:100D0000BB2789839A83AB83BC83C0FE09C082A9B9
:100D1000282F2F70A0E14A9EC0011124822B01C010
:100D2000842D82ABBFEFAB1ABB0A81E0ED81FE815F
:100D30008483C501892F9927869542A153A164A177
:100D400075A1480F591F611D711DCF010E944901F6
:100D5000811181C0F1E0BF22ED81FE81EA0DFB1D12
:100D600029813A814B815C81232B242B252B41F057
:100D700054E076946794579447945A95D1F706C0F7
:100D800002A9007F952D9F70402E492A42AA63C078
:100D900077276F2D5E2D4D2DED81FE8182A193A1D0
:100DA000A4A1B5A1480F591F6A1F7B1FCF010E9444
:100DB0004901811150C0CC0CDD1CEE1CFF1CE894D5
:100DC000C0F8F1E0DF22EE24FF2422E3C20ED11CA2
:100DD000ED81FE81EC0DFD1D518240823CC0ED8114
:100DE000FE8182A193A1A4A1B5A127E07695679584
:100DF000579547952A95D1F7480F591F6A1F7B1FB2
:100E0000CF010E944901811126C092E0CC0CDD1C6B
:100E1000EE1CFF1C9A95D1F7FCEFCF22F1E0DF2208
:100E2000EE24FF2422E3C20ED11CED81FE81EC0DE5
:100E3000FD1D008111812281338100271127222786
:100E4000307F402A512A622A732A4082518262826C
:100E5000738201C082E091E0AD81BE8114969C93C3
:100E600001C082E026960FB6F894DEBF0FBECDBF5C
:100E7000DF91CF911F910F91FF90EF90DF90CF9076
:100E8000BF90AF907F906F905F904F9008954F927A
:100E90005F926F927F928F929F92AF92BF92CF920A
:100EA000DF92EF92FF920F931F93CF93DF93EC01AA
:100EB0002A013B01411551056105710599F48A84A8
:100EC0009B84AC84BD8481149104A104B10409F114
:100ED0008A8D9B8DAC8DBD8D88169906AA06BB06A2
:100EE000E0F017C00E94B4046B017C016230710510
:100EF0008105910508F482C08A8D9B8DAC8DBD8DD6
:100F0000C816D906EA06FB0608F47DC05301420163
:100F100004C0812C912C54018394750164018FEFDE
:100F2000C81AD80AE80AF80A8A8D9B8DAC8DBD8D47
:100F3000C816D906EA06FB0668F022E0821691047C
:100F4000A104B10410F460E05AC082E0C82ED12C94
:100F5000E12CF12CB701A601CE010E94B404611569
:100F6000710581059105B1F06F3F2FEF7207820780
:100F7000920729F46FEF7FEF8FEF9FEF46C061304C
:100F8000710581059105D1F1C814D904EA04FB0467
:100F900031F6D9CF0FEF1FEF2FEF3FE0B701A601DA
:100FA000CE010E942806811126C04114510461041B
:100FB0007104C1F4CA86DB86EC86FD868E859F852A
:100FC000A889B9898F3F2FEF9207A207B207D9F0FE
:100FD0000197A109B1098E879F87A88BB98B81E002
:100FE0008D8311C097018601B301A201CE010E9439
:100FF00028068823F9F2813009F4BCCF61E070E063
:1010000080E090E002C0B601C701DF91CF911F914F
:101010000F91FF90EF90DF90CF90BF90AF909F9097
:101020008F907F906F905F904F9008958F929F92D6
:10103000AF92BF92CF92DF92EF92FF920F931F93E6
:10104000CF93DF93EC016B010C811D810F5F1F4F6C
:1010500011F484E0E2C04E855F8568897989411585
:10106000510561057105A9F378018FE0E822FF249D
:10107000E114F10409F0C0C04F5F5F4F6F4F7F4F25
:101080004E875F87688B798B4A855B856C857D850C
:1010900088819981FC01411551056105710531F483
:1010A0008085918508171907A0F6A6C0228130E037
:1010B00021503109F801A4E0F695E795AA95E1F7EA
:1010C0002E233F23232B09F097C00E94B4044B0129
:1010D0005C01623071058105910510F482E09DC0CC
:1010E0008FEF88169806A806B80611F481E095C01F
:1010F00088819981FC01428D538D648D758D841694
:101100009506A606B70608F469C0CD2809F4A1CF54
:101110004A855B856C857D850E9447074B015C0194
:10112000611571058105910509F476C0613071057D
:101130008105910599F28FEF88169806A806B806E2
:10114000A9F240E050E0BA01888199810E944901EA
:101150008111CCCF88819981FC01F2968E5C9D4FE4
:101160008E179F0711F01192FBCFC880D980B5016F
:10117000A401C6010E948C04F60166A777A780AB84
:1011800091ABD12CCC24C394E881F9818281D8160B
:10119000C8F4C48240E050E0BA01888199810E947D
:1011A00049018111A3CFE881F98186A597A5A0A95E
:1011B000B1A90196A11DB11D86A797A7A0ABB1ABA0
:1011C000D394E2CF86A597A5A0A9B1A98D199109BD
:1011D000A109B10986A797A7A0ABB1AB8A869B8668
:1011E000AC86BD86B501A401888199810E948C04DA
:1011F0006E877F87888B998B1D830C83888199816B
:10120000C29625E0EE0CFF1C2A95E1F7E80EF91EC8
:10121000FB8AEA8A80E001C087E0DF91CF911F91CD
:101220000F91FF90EF90DF90CF90BF90AF909F9085
:101230008F9008956F927F928F929F92AF92BF92FC
:10124000CF92DF92EF92FF920F931F93CF93DF9392
:10125000EC018B01DB018C918F3211F08C3539F46C
:101260000F5F1F4F1E821F82188619860AC0E881F1
:10127000F98186899789A08DB18D8E839F83A887F8
:10128000B987F8018081803228F050E2A52E65E010
:10129000B62E43C060E070E0CE010E9480051B8A3C
:1012A0001A8A06C1EA89FB899081992309F4DDC075
:1012B000938593FD0CC0AC89BD89AF01455F5F4F3D
:1012C0004E175F07A9F021919D912917C9F360E09E
:1012D00070E0CE010E94160881110AC04E855F851C
:1012E00068897989888199810E9449018823D1F28E
:1012F000EC89FD899385882309F4B9C0843009F00D
:10130000D7C0292F247095FFB6C01E821F82188671
:1013100019861B8A1A8A2111ACC06C887D88A301AA
:10132000C3010B96D301A817B90711F0AD92FBCFFB
:10133000D8018C918E3249F0480180E090E060E065
:1013400070E028E030E0A0E031C0F80120E030E0BB
:101350002F5F3F4F81918E3241F42330310509F4E4
:101360007CC0DA018D93AD01F3CF8F3229F08C353B
:1013700019F0813208F071C0020F131F813210F092
:1013800080E201C084E2F301838769C0BF32A9F122
:10139000BC3599F1BE3291F42830310509F05DC0B9
:1013A000AA0FAA0F88E090E02BE030E06F5F7F4F3C
:1013B000F401B1914F01B13248F71DC08217930774
:1013C00008F04BC0B7FF07C0A3604B2F50E040515F
:1013D0005040FA01B081CB2ED12C41E6E42E40E002
:1013E000F42EF70141917F01442321F150E0C4160E
:1013F000D506B9F732C044E001C040E0892B69F15D
:10140000F3018081853E09F4B0822830310511F462
:10141000AA0FAA0F8A2F8370813009F440618A2FA6
:101420008C70843009F44860060F171FD3011B9697
:101430004C9315C04FEB4B0F4A3110F4A26006C01D
:101440004FE94B0F4A3110F4A160B052A301480F8D
:10145000591FFA01B0830196A9CF86E029C060E048
:1014600070E0CE010E94800537CF84E041CF92FF2B
:1014700005C080E01DC02223D1F01AC0EA89FB8993
:10148000838584FF14C084899589A0E0B0E0DC01E5
:1014900099278827428D538D60E070E0842B952B2F
:1014A000A62BB72B8E839F83A887B98736CF85E07D
:1014B000DF91CF911F910F91FF90EF90DF90CF9030
:1014C000BF90AF909F908F907F906F9008951F93E3
:1014D000CF93DF93EC0160E070E00E948005182F4D
:1014E000811138C04E855F856889798988819981A5
:1014F0000E944901182F81112DC0EA89FB89808142
:10150000853E41F0882331F061E070E0CE010E9419
:101510001608E5CF4E855F8568897989888199812C
:101520000E944901182F811115C08A899B89FC01ED
:101530009C01205E3F4FE217F30711F01192FBCFA1
:101540006C897D894BE050E00E942A01E881F98195
:1015500081E08483812FDF91CF911F9108957F9245
:101560008F929F92AF92BF92CF92DF92EF92FF92B3
:101570000F931F93CF93DF93EC016A017B014230FD
:1015800051056105710510F482E04DC08A8D9B8D77
:10159000AC8DBD8D481759076A077B07A8F77724DC
:1015A00073948A8D9B8DAC8DBD8DC816D906EA06C5
:1015B000FB0658F4B701A601CE010E94B4044B010A
:1015C0005C01672B682B692B11F480E02CC081E053
:1015D00088169104A104B104B9F22FEF8216920685
:1015E000A206B206F9F000E010E09801B701A601EA
:1015F000CE010E942806811116C08E859F85A8897C
:10160000B9898F3F2FEF9207A207B20741F00196E9
:10161000A11DB11D8E879F87A88BB98B7D82750117
:101620006401BFCF81E0DF91CF911F910F91FF90B7
:10163000EF90DF90CF90BF90AF909F908F907F9072
:101640000895811112C0E0913901F0913A0130976B
:1016500009F010826115710511F0FB011082709381
:101660003A016093390180E008958BE008954F922C
:101670005F926F927F928F929F92AF92BF92DF9212
:10168000EF92FF920F931F93CF93DF93CDB7DEB707
:10169000A4970FB6F894DEBF0FBECDBF7C017CA32C
:1016A0006BA3B42EDC011D921C92B42FBF71DB2EF4
:1016B0004E71BE016F5F7F4FCE0183960E94FC0189
:1016C0009E01295E3F4F3E8B2D8B811106C06BA181
:1016D0007CA1CE0101960E941A090B891C898111F7
:1016E00004C00115110509F486E09B2D9C7109F4D5
:1016F00064C0882371F0843021F4CE0101960E94E9
:10170000670AED2DE860DE2E8111C0C00B891C89AF
:1017100008C0B2FCB6C0D8011B968C91817109F04B
:10172000B4C0D3FE5AC00E94600FF8016687778765
:10173000808B918B1386148E158E168E178E84884F
:101740009588A12CB12CD40199278827828C938C61
:10175000A12CB12C882A992AAA2ABB2A138E128E70
:10176000158A148A89819A8121E0DC0114962C93D0
:10177000149781149104A104B10461F19E964D90D7
:101780005D906D907C90D197B501A4010E94AF0A45
:1017900081117CC089819A81B1E08B1A9108A108DE
:1017A000B108FC0182869386A486B586B301A201A6
:1017B0000E944901882361F069C0811167C0D80186
:1017C0001B968C9184FD5FC0B1FE02C080FD5DC0A0
:1017D000D3FE03C0BD2DB062DB2EE981FA8146A5A0
:1017E00057A560A971A9D7015A964D935D936D9342
:1017F0007C935D975F961C930E935E971496DC9294
:10180000D80154968D919C915597A0E0B0E05C0171
:1018100099248824D8015A964D915C915B9760E099
:1018200070E0482959296A297B29D7011E964D93D2
:101830005D936D937C935197D8015C964D915D912A
:101840006D917C915F97D7011A964D935D936D933F
:101850007C931D9716961D921D921D921C921997AE
:1018600056961D921D921D921C9259971196FC93AB
:10187000EE938681978113969C938E93129780E0C6
:1018800005C088E003C084E001C087E0A4960FB6DD
:10189000F894DEBF0FBECDBFDF91CF911F910F91A6
:1018A000FF90EF90DF90BF90AF909F908F907F90D0
:1018B0006F905F904F9008952F923F924F925F925A
:1018C0006F927F928F929F92AF92BF92CF92DF9250
:1018D000EF92FF920F931F93CF93DF93EC015B0185
:1018E0006A011901F901118210826A817B81888164
:1018F00099810E94760481110CC18C8187FD06C1FB
:1019000080FF06C18A859B85AC85BD854E815F8140
:1019100068857985841B950BA60BB70BA60160E043
:1019200070E084179507A607B70708F076C06C012A
:1019300074C04E815F8168857985DB01CA01917031
:10194000AA27BB27892B8A2B8B2B09F0B1C0888152
:101950009981FC01228121502A013B01E9E0769422
:10196000679457944794EA95D1F7122F142109F4FC
:1019700059C0888099804A895B896C897D89C401B6
:101980000E948C04611571058105910509F46AC0F6
:101990002B013C01410E511C611C711C7601EF2C86
:1019A000FF24E694E114F10409F47EC0F40182817D
:1019B000212F30E0A9014E0D5F1D90E0841795079F
:1019C00018F47C01E21AF30A0E2DA3019201B5016D
:1019D000F40181810E94D915811180C0E881F981CB
:1019E0008481811143C0FE2CEE24FF0CAE0CBF1C81
:1019F0008E819F81A885B9858E0D9F1DA11DB11D6A
:101A00008E839F83A887B987F101808191818E0D94
:101A10009F1D91838083CE18DF08C114D10409F083
:101A200088CF72C0452B462B472B29F46E857F85C6
:101A30008889998906C04A895B896C897D890E9459
:101A4000B404623071058105910560F06F3FFFEFCE
:101A50007F078F079F0709F441C06A8B7B8B8C8BB4
:101A60009D8B87CF8C8180688C8350C086A597A57D
:101A7000A0A9B1A984199509A609B709A70160E031
:101A800070E084179507A607B70708F0ACCFBF0131
:101A90006E5C7F4F982F8827990F40E052E08A0DA7
:101AA0009B1D0E942A019FCF4E8A5F8A688E798E85
:101AB0008E819F81917020E032E0281B390B7601E6
:101AC0002C153D0508F479014E895F89688D798D63
:101AD000888199810E944901882329F08C8180683E
:101AE0008C8381E016C08E819F81A885B985917015
:101AF000AA27BB27C29668817981680F791FA70141
:101B0000C5010E942A0172CF80E003C082E001C0BB
:101B100087E0DF91CF911F910F91FF90EF90DF90C1
:101B2000CF90BF90AF909F908F907F906F905F907D
:101B30004F903F902F9008954F925F926F927F92B7
:101B40008F929F92AF92BF92CF92DF92EF92FF92CD
:101B50000F931F93CF93DF9300D000D000D0CDB769
:101B6000DEB79E838D836A017B01DC0112966D9145
:101B70007C9113978D919C910E94760481117DC177
:101B8000ED81FE81248127FD70C182859385A48526
:101B9000B5858C159D05AE05BF0520F421FD02C05D
:101BA0006C017D01AD81BE8116964D905D906D906A
:101BB0007C901997FD011682178210861186C11438
:101BC000D104E104F10409F454C1AD81BE810D9149
:101BD0001C91F8018280912CA12CB12C39E0880C49
:101BE000991CAA1CBB1C3A95D1F7411451046104FD
:101BF000710409F440C0F1E04F1A510861087108FE
:101C0000C701B6016150710981099109A5019401CB
:101C10000E947F1929833A834B835C83C301B201FD
:101C2000A50194010E947F1989819A81AB81BC81B1
:101C300082179307A407B507F0F088279927DC01DE
:101C400088199909AA09BB09482259226A227B22CC
:101C5000AD81BE8116964D925D926D927C921997E0
:101C6000C418D508E608F70852964D915D916D911C
:101C70007C9155972EC0ED81FE8146855785608900
:101C800071894115510561057105E9F440E050E0A5
:101C9000BA01C8010E944707AB01BC0141305105A0
:101CA0006105710509F49EC04F3FBFEF5B076B07ED
:101CB0007B0709F462C0AD81BE811E964D935D9392
:101CC0006D937C935197ED81FE81428B538B648B96
:101CD000758B411551056105710589F5C12CD12C14
:101CE000760194C0423051056105710508F451C078
:101CF000AD81BE81ED91FC91828D938DA48DB58DCA
:101D0000481759076A077B0708F043C0AD81BE81B9
:101D100052964D935D936D937C935597FD0186810B
:101D20009781A085B185880D991DAA1DBB1D86834D
:101D30009783A087B187C818D908EA08FB088C14D4
:101D40009D04AE04BF0468F5AD81BE8114962C914C
:101D500014978D919C9121FF17C00E944707AB01FA
:101D6000BC014115510561057105C9F04F3FBFEF39
:101D70005B076B077B0709F0B5CFED81FE8184819E
:101D80008068848381E079C00E94B404AB01BC0107
:101D9000EDCFED81FE8184818068848366C075010A
:101DA0006401ED81FE8186819781A085B1858C0DCE
:101DB0009D1DAE1DBF1D86839783A087B187D70168
:101DC000C6019170AA27BB27892B8A2B8B2B09F47C
:101DD00085CF808191810E948C04611571058105F8
:101DE000910549F4AD81BE8114968C911497806859
:101DF00014968C933AC029E0F694E794D794C7944C
:101E00002A95D1F7C60ED71EE81EF91EED81FE8178
:101E100086819781A085B185AC01BD01517066278F
:101E20007727452B462B472B69F046895789608DCC
:101E3000718DC416D506E606F70621F0C68AD78A44
:101E4000E08EF18EED81FE81428553856485758536
:101E5000481759076A077B0750F482879387A4873E
:101E6000B58784818062848302C082E006C080E0FE
:101E700004C080E090E0DC01E5CF26960FB6F89430
:101E8000DEBF0FBECDBFDF91CF911F910F91FF90AD
:101E9000EF90DF90CF90BF90AF909F908F907F900A
:101EA0006F905F904F9008958E3F49F0682F8EE1BC
:101EB00094E00E940901811102C00C94E718089572
:101EC00060E070E0CB0108958CE983BD85B5886042
:101ED00085BD89B7806889BF85B5876085BD089550
:101EE000D898D098B898B998BA98BB98C09AC19A1F
:101EF000C29AC39A08950F931F93CF93DF938C01D7
:101F0000EB0180E00E94C200F801808396B39170DB
:101F100081E09827988396B3969591709827998336
:101F200096B392FB992790F998279A8396B393FBDF
:101F3000992790F989278B83808190913F01891798
:101F400021F080933F0184E00FC0EBE3F1E080E0FB
:101F500099912081921719F09083913029F08F5F29
:101F600031968430A9F78FEFDF91CF911F910F91B8
:101F700008959298939894988A9A8B9A8C9A8AB397
:101F80008F708ABB8BB3806F8BBB089592988AB396
:101F90008F708ABB8BB3806F8BBB939A949A00002F
:101FA0000000000000000000000000000000000031
:101FB00000000000000000000000CF9B67C0949864
:101FC0000000000000000000000000000000000011
:101FD0000000000000000000000000000000000001
:101FE00000000000000000000000000000000000F1
:101FF0000000000000000000949A000000000000B3
:1020000000000000000000000000000000000000D0
:1020100000000000000000000000000000000000C0
:1020200000000000000000000000000000000000B0
:102030000000949800000000000000000000000074
:102040000000000000000000000000000000000090
:102050000000000000000000000000000000000080
:10206000000000000000000000000000949A000042
:102070000000000000000000000000000000000060
:102080000000000000000000000089CF949808952F
:10209000CF93C82F0E94C60F92989398949A8AB3B0
:1020A000806F8ABB8BB38F709C2F907F892B8BBBEB
:1020B0000000000000000000000000000000000020
:1020C0000000000000000000000000000000000010
:1020D0000000000000000000000000000000000000
:1020E00000000000000000009498000000000000C4
:1020F00000000000000000000000000000000000E0
:1021000000000000000000000000000000000000CF
:1021100000000000000000000000000000000000BF
:102120000000949A8BB3282F2F7030E1C39FC00119
:102130001124822B8BBB0000000000000000000077
:10214000000000000000000000000000000000008F
:10215000000000000000000000000000000000007F
:102160000000000000000000000000000000949843
:102170008AB38F708ABB8BB3806F8BBBCF9108956E
:102180000E94C60F8AB38F708ABB8BB3806F8BBBE4
:102190009298939A949A00000000000000000000BA
:1021A000000000000000000000000000000000002F
:1021B000000000000000000000000000000000001F
:1021C000000000000000000000000000000099B3C3
:1021D00094980000000000000000000000000000D3
:1021E00000000000000000000000000000000000EF
:1021F00000000000000000000000000000000000DF
:1022000000000000000000000000949A00000000A0
:1022100000000000000000000000000000000000BE
:1022200000000000000000000000000000000000AE
:10223000000000000000000000000000000000009E
:102240000000000029B322952F70892F807F949879
:10225000822B0895CF93C82F0E94C60F929A93980D
:10226000949A8AB3806F8ABB8BB38F709C2F907FB8
:10227000892B8BBB00000000000000000000000064
:10228000000000000000000000000000000000004E
:10229000000000000000000000000000000000003E
:1022A0000000000000000000000000009498000002
:1022B000000000000000000000000000000000001E
:1022C000000000000000000000000000000000000E
:1022D00000000000000000000000000000000000FE
:1022E000000000000000949A8BB3282F2F7030E17B
:1022F000C39FC0011124822B8BBB00000000000093
:1023000000000000000000000000000000000000CD
:1023100000000000000000000000000000000000BD
:1023200000000000000000000000000000000000AD
:10233000000094988AB38F708ABB8BB3806F8BBB7D
:10234000CF91089581E00C944810623031F06330F1
:1023500031F0613029F4805C03C08C5E01C08C5A7E
:1023600080680C944810DF92EF92FF920F931F93B6
:10237000CF93DF9300D01F92CDB7DEB77C01062F3D
:10238000D42E0E94C0108F778983DD0CDD0CDD0C0C
:10239000000F000F000F1B821A8210E08A818D0D42
:1023A00080640E944810EA81FB81E00FF11FEE0D6E
:1023B000FF1D84910E942A118A819B8101969B8333
:1023C0008A83089759F7898180680F900F900F9042
:1023D000DF91CF911F910F91FF90EF90DF900C94C0
:1023E00048100E94B90F88E20E94481081E00E94C4
:1023F000481080E69AEE0E94B21686E00E944810CD
:102400008CE00E94481082E00E94481080E80E9400
:10241000481040E060E084E590E00E94B31141E0A4
:1024200061E084E590E00E94B31142E062E084E55F
:1024300090E00E94B31143E063E084E590E00E94E5
:10244000B31144E064E084E590E00E94B31145E0FC
:1024500065E084E590E00E94B31146E066E084E523
:1024600090E00E94B31147E067E084E590E00C94AF
:10247000B3110F931F93CF93DF93009759F0EC01A3
:102480008C01060F111DC017D10721F089910E9400
:102490002A11F9CFDF91CF911F910F910895CF931A
:1024A000DF93CDB7DEB7CF55D1090FB6F894DEBFB5
:1024B0000FBECDBF6F961FAE1EAE6F97A0961FAE1C
:1024C000A0970E94640F0E94F1110E946F180E9451
:1024D00063130E94A1160E94700F0E949B0085E06A
:1024E0000E948D0081E00E94920080E00E94A9007D
:1024F0000E94AF006DE876E186E00E94B31662E1CB
:102500007AE780E090E00E948C1884E59FE00E94CA
:1025100087180E94E71860E080E00E94A51167ED2F
:1025200071E080E00E94210B882321F06CE080EFB5
:1025300090E003C068E08DEF90E00E94391261E006
:1025400080E00E94A51143E066E071E0CE01C596EF
:102550000E94370B882321F06BE080E191E003C0FB
:1025600067E08CE191E00E943912BE016B5A7F4F07
:10257000CE01815A9F4F0E947B0F9E01235A3F4FED
:1025800044E350E0BE016F5F7F4FCE01C5960E94CD
:102590005C0C40E050E0BA01CE01C5960E949C0D53
:1025A00000E010E084E3D82E7E0183E0E80EF11C09
:1025B000BE016B5A7F4FCE01815A9F4F0E947B0F05
:1025C0008F3F09F46CC0823019F12CF4882341F05C
:1025D000813061F026C08330F9F0843049F321C0A6
:1025E00001151105F1F0015011091BC04BAD5CAD97
:1025F0006DAD7EAD23968CAD9DADAEADBFAD2397D9
:10260000481759076A077B0761F00F5F1F4F09C022
:1026100068E084E291E003C068E08DE291E00E940E
:1026200039120E94A21160E080E00E94A5114AE0E8
:10263000BE01675A7F4FC80101960E94BB1962E034
:10264000CE01875A9F4F0E943912D09EA001D19E81
:10265000500D112460E070E0CE01C5960E949C0DE3
:102660009E01235A3F4F44E350E0BE016F5F7F4F0E
:10267000CE01C5960E945C0C61E080E00E94A5112D
:10268000F70101900020E9F73197BF016E197F092A
:10269000C7010E9439126A8189810E947D130E94BC
:1026A000EC18811185CF0E94D318BE01635A7F4F69
:1026B0000E94C113813009F07BCF6E968FAD6E976B
:1026C0000E94671375CF81E080930A0408950F93E9
:1026D0001F93CF93DF93D82F0DE014E0C0E0CD1708
:1026E00039F0F80181918F010E94B118CF5FF7CFC7
:1026F000DF91CF911F910F9108951F93CF93DF9397
:10270000162FCDE0D4E090EB988319828A8383E082
:102710000E94671380EC8883198382E0DF91CF9158
:102720001F910C946713982F907F903F09F0892F89
:10273000813FF9F088F4803BF1F038F48039D9F02A
:10274000803AC9F08038C9F416C0803D91F0803ECF
:1027500091F0803C91F40DC08D3F40F4883F78F4B7
:10276000833F39F040F0863F51F007C08E3F38F488
:1027700004C082E0089583E0089580E0089581E038
:1027800008950F931F93CF93DF93D82F8B01C091A0
:102790000A04C23039F1C33009F44BC0C13001F52D
:1027A000803FF1F00E949313813039F4F801C08327
:1027B000D0930D041092400141C081110AC0809154
:1027C0004001813051F4D0930E0482E080930B04D9
:1027D00004C0D0930D04C0930B0482E080930A04DC
:1027E000C0E02CC00E949313882331F081E08093D5
:1027F0000A0410924001F4CFE0910B04C1E0CE0F27
:10280000C0930B04F0E0E35FFB4FD08380910D0495
:10281000807F0E949313C813E3CF91E090930A0442
:10282000F801C08380910D04807939F090934001C4
:1028300004C0873FA9F681E0D1CFC1E08C2FDF91A2
:10284000CF911F910F9108958FEF8FB9779BFECF96
:102850008FB1089582E3809342010E9424140E9464
:1028600024148F3F39F0809142018111F8CF80E02C
:1028700090E0089581E090E00895C49A0C942414A7
:10288000CF93DF93C4980E942A14EC01892B19F48A
:102890000E943D1402C0C1E0D0E0CE01DF91CF9193
:1028A0000895CF92DF92EF92FF92CF93C82F6A01E3
:1028B0007B0187FF09C040E050E0BA0187E30E9436
:1028C00051148230E0F5CF770E943D140E944014ED
:1028D000892BA1F18C2F80648FB9779BFECF8F2D30
:1028E0009927AA27BB278FB9779BFECFC701AA27B5
:1028F000BB278FB9779BFECFBB27AF2D9E2D8D2D8C
:102900008FB9779BFECFCFB8779BFECFCC2321F03A
:10291000C83021F081E003C085E901C087E88FB9A4
:10292000779BFECFCC3011F40E942414CAE00E94A1
:10293000241487FF04C0C150D1F701C08FEFCF919D
:10294000FF90EF90DF90CF9008950F931F93CF9358
:10295000DF938C01EB0184E1809343010E942414F6
:102960008F3F29F4809143018111F8CF23C08E3F1E
:1029700009F5F8018FEF8FB9779BFECF9FB1908358
:102980008FB9779BFECF9FB191838FB9779BFECF95
:102990009FB192838FB9779BFECF9FB1938324978A
:1029A0003496209741F70E9424140E94241481E059
:1029B00090E002C080E090E0DF91CF911F910F91F5
:1029C00008951F93CF93DF93182FD92FC62F0E94FE
:1029D0002A14009751F1CFB9779BFECFCD3F19F163
:1029E000E12FFD2FCF019E5F20812FB9779BFECF76
:1029F00021812FB9779BFECF3296E817F907A1F70F
:102A00008FEF8FB9779BFECF8FEF8FB9779BFECF7C
:102A10000E9424148F7131E020E0853009F030E00D
:102A2000832F922F02C081E090E0DF91CF911F9120
:102A30000895CF92DF92EF92FF920F931F93CF935F
:102A4000DF9300D000D0CDB7DEB781119DC080915B
:102A5000600081FD96C0699A1AE00E94241411500A
:102A6000E1F740E050E0BA0180E00E94511481306B
:102A700009F076C084E6809343014AEA51E060E0C1
:102A800070E088E00E945114813009F041C08E014D
:102A90000F5F1F4F6E0185E0C80ED11C78010E94A8
:102AA0002414F70181937F01CE16DF06C1F78B81D5
:102AB000813009F055C08C818A3A09F051C080916B
:102AC0004301811106C080914301882309F448C065
:102AD0000AC040E050E060E070E489EA0E945114CE
:102AE0008111EDCFF0CF40E050E0BA018AE30E94BF
:102AF0005114811135C00E942414F80181938F0173
:102B0000CE16DF06C1F7898186FD2CC014E02BC0EC
:102B100040E050E0BA0189EA0E945114823018F076
:102B200011E001E002C012E009EA80914301811145
:102B300005C080914301882399F009C040E050E02E
:102B4000BA01802F0E9451148111EFCFF2CF40E0E3
:102B500052E060E070E080E10E945114882319F097
:102B600010E001C01CE0109341010E943D141123AC
:102B700041F0809160008E7F809360008DB18C7FEA
:102B80008DB98091600001C081E00F900F900F908F
:102B90000F90DF91CF911F910F91FF90EF90DF90F9
:102BA000CF900895811103C080916000089581E065
:102BB00008950F93CF93DF93EB01BA01A90181111F
:102BC0003DC00023D9F18091600080FD39C0809123
:102BD000410183FD07C089E0440F551F661F771F21
:102BE0008A95D1F7013071F481E10E94511481116D
:102BF0001EC060E072E0CE010E94A514892BB9F0DE
:102C000000E015C082E10E945114811110C060E003
:102C100072E0CE010E94A514892B19F0DE5F0150ED
:102C2000B1F740E050E0BA018CE00E9451140E94DC
:102C30003D1481E0011105C080E003C084E001C0C3
:102C400083E0DF91CF910F910895CF92DF92EF92C1
:102C5000FF920F93CF93DF93EB0169017A0181110A
:102C60004FC0002309F44CC08091600080FD4AC031
:102C70008091600082FD48C08091410183FD07C0C2
:102C800099E0CC0CDD1CEE1CFF1C9A95D1F70130AD
:102C900079F4B701A60188E10E945114811128C07E
:102CA0006EEFCE010E94E114892B19F100E021C0E2
:102CB000867039F0402F50E060E070E087E90E94B4
:102CC0005114B701A60189E10E945114811111C06C
:102CD0006CEFCE010E94E114892B19F0DE5F0150E8
:102CE000B9F76DEF80E090E00E94E114892B09F4C0
:102CF00001E00E943D1481E0011107C080E005C0A1
:102D000084E003C083E001C082E0DF91CF910F91A6
:102D1000FF90EF90DF90CF9008958091430188233A
:102D200019F081508093430180914201882319F06A
:102D300081508093420180916000897F8093600080
:102D40000895C79AC69ABF9ABE98BD9ABC9A6C9AC3
:102D5000689A699A6B986D986E9A8EB181E08093AB
:102D6000100408950895883040F4E82FF0E0EE0F45
:102D7000FF1FEC5BFE4F7183608308951F920F92DB
:102D80000FB60F9211242F933F934F935F936F933E
:102D90007F938F939F93AF93BF93EF93FF93809114
:102DA000110490911204A0911304B091140401969F
:102DB000A11DB11D8093110490931204A0931304DC
:102DC000B09314048091150490911604A0911704F7
:102DD000B09118040196A11DB11D80931504909324
:102DE0001604A0931704B0931804809144019091A5
:102DF0004501892B29F0E0914401F09145010995A5
:102E0000FF91EF91BF91AF919F918F917F916F91C2
:102E10005F914F913F912F910F900FBE0F901F9098
:102E200018951F920F920FB60F9211242F933F9374
:102E30004F935F936F937F938F939F93AF93BF93C2
:102E4000EF93FF938091460190914701892B29F0E0
:102E5000E0914601F09147010995FF91EF91BF91F3
:102E6000AF919F918F917F916F915F914F913F9122
:102E70002F910F900FBE0F901F9018951F920F92D9
:102E80000FB60F9211242F933F934F935F936F933D
:102E90007F938F939F93AF93BF93EF93FF93809113
:102EA000190490911A04A0911B04B0911C0401967E
:102EB000A11DB11D8093190490931A04A0931B04C3
:102EC000B0931C0480914E0190914F01892B29F001
:102ED000E0914E01F0914F010995FF91EF91BF9163
:102EE000AF919F918F917F916F915F914F913F91A2
:102EF0002F910F900FBE0F901F9018951F920F9259
:102F00000FB60F9211242F933F934F935F936F93BC
:102F10007F938F939F93AF93BF93EF93FF93809192
:102F2000520190915301892B29F0E0915201F091C7
:102F300053010995FF91EF91BF91AF919F918F91AF
:102F40007F916F915F914F913F912F910F900FBEA5
:102F50000F901F9018951F920F920FB60F92112489
:102F60002F933F934F935F936F937F938F939F9391
:102F7000AF93BF93EF93FF938091480190914901E4
:102F8000892B29F0E0914801F09149010995FF91C1
:102F9000EF91BF91AF919F918F917F916F915F91D1
:102FA0004F913F912F910F900FBE0F901F9018954A
:102FB0001F920F920FB60F9211242F933F934F93AE
:102FC0005F936F937F938F939F93AF93BF93EF9391
:102FD000FF9380914A0190914B01892B29F0E09158
:102FE0004A01F0914B010995FF91EF91BF91AF918B
:102FF0009F918F917F916F915F914F913F912F9111
:103000000F900FBE0F901F9018951F920F920FB642
:103010000F9211242F933F934F935F936F937F935E
:103020008F939F93AF93BF93EF93FF9380914C0146
:1030300090914D01892B29F0E0914C01F0914D01C7
:103040000995FF91EF91BF91AF919F918F917F91E2
:103050006F915F914F913F912F910F900FBE0F9005
:103060001F9018951F920F920FB60F9211242F9355
:103070003F934F935F936F937F938F939F93AF9300
:10308000BF93EF93FF938091500190915101892B51
:1030900029F0E0915001F09151010995FF91EF91D4
:1030A000BF91AF919F918F917F916F915F914F9160
:1030B0003F912F910F900FBE0F901F90189540E4F5
:1030C00050E066E971E08EE194E00E94D80040E4AF
:1030D00050E066E571E088E294E00C94D8000E942C
:1030E0005F18109255011092540188ED8AB986E854
:1030F00080BD87E689B910BC81E080931D041092E1
:10310000270410923104109230047894089590931B
:1031100055018093540108950F931F938B019C01D7
:10312000DC01CB0180589B47A14EBF4FBC01CD01B4
:1031300043E0660F771F881F991F4A95D1F7A901B1
:103140009801E4E0220F331F441F551FEA95D1F781
:103150000E947F192150310929B930BD1F910F916B
:10316000089590911D049923E1F38CB910921D04E8
:103170000895CF93DF932091200430912104232BD5
:1031800071F02091220430912304232B41F0EC01B3
:103190008EE194E00E94E500888381E001C080E038
:1031A000DF91CF910895CF93DF931F92CDB7DEB714
:1031B000CE0101960E94B918882319F0898190E008
:1031C00002C08FEF9FEF0F90DF91CF910895109283
:1031D000230410922204089581E02091220430916A
:1031E0002304232B09F080E008951F920F920FB65D
:1031F0000F9211242F933F934F935F936F937F937D
:103200008F939F93AF93BF93EF93FF938091270486
:10321000882371F080912C0490912D04892B31F03A
:1032200088E294E00E94E5008CB905C01092270462
:1032300081E080931D04FF91EF91BF91AF919F9129
:103240008F917F916F915F914F913F912F910F904F
:103250000FBE0F901F9018951F920F920FB60F92EE
:1032600011242F933F934F935F936F937F938F938B
:103270009F93AF93BF93EF93FF938CB12091540131
:1032800030915501232B31F0E0915401F09155011B
:10329000099510C0682F8EE194E00E940901811108
:1032A00009C08091300490913104019690933104CB
:1032B00080933004FF91EF91BF91AF919F918F91D7
:1032C0007F916F915F914F913F912F910F900FBE22
:1032D0000F901F901895AA1BBB1B51E107C0AA1F96
:1032E000BB1FA617B70710F0A61BB70B881F991FA7
:1032F0005A95A9F780959095BC01CD010895A1E25A
:103300001A2EAA1BBB1BFD010DC0AA1FBB1FEE1F5F
:10331000FF1FA217B307E407F50720F0A21BB30BAA
:10332000E40BF50B661F771F881F991F1A9469F726
:1033300060957095809590959B01AC01BD01CF0182
:1033400008950E94AC19A59F900DB49F900DA49F65
:10335000800D911D11240895A29FB001B39FC0015B
:10336000A39F700D811D1124911DB29F700D811DB1
:103370001124911D0895BB274A3031F4992322F47A
:10338000BDE2909581959F4F0C94C719BB27FB0117
:103390005527AA27880F991FAA1FA41710F0A41B4E
:1033A00083955051B9F7A05DAA3308F0A95DA193A8
:1033B000009779F7B111B1931192CB010C94E019F8
:1033C000DC01FC01672F71917723E1F7329704C08C
:1033D0007C916D9370836291AE17BF07C8F3089517
:0433E000F894FFCF8F
:1033E40001222A2B2C3A3B3C3D3E3F5B5D7C7F0017
:1033F400808182838485868788898A8B8C8D8E8F51
:10340400909192939495969798998A9B8C8D8E8F90
:10341400A0A1A2A3A4A5A6A7A8A9AAABACADAEAF30
:10342400B0B1B2A3B4B5B6B7B8A5AABBBCBDBCAF66
:10343400C0C1C2C3C4C5C6C7C8C9CACBCCCDCECF10
:10344400D0D1D2D3D4D5D6D7D8D9DADBDCDDDEDF00
:10345400C0C1C2C3C4C5C6C7C8C9CACBCCCDCECFF0
:10346400D0D1D2D3D4D5D6F7D8D9DADBDCDDDEFFA0
:103474004D6F756E74206661696C6564004D6F757F
:103484006E74204F4B007069616E6F2E66616D0023
:103494004F70656E206661696C6564004F70656E7F
:1034A400204F4B00427574746F6E20330042757464
:0634B400746F6E2034006D
:00000001FF
