S01000004B6574726F6E33322E737265633C
S11300000C94FD000C941A010C941A010C941A011E
S11300100C94533B0C942D3A0C941C3B0C94AE3A28
S11300200C94E53A0C94F6390C94773A0C9499397B
S11300300C941A010C94F53C0C941A010C94AA3CEF
S11300400C94BC010C941A010C941A010C941A011E
S11300500C941A01D131D331D331D331D331D331CB
S1130060D331D331D331D331D331D331D331D3316C
S1130070D331D331D131D331D331D331D331D3315E
S1130080D331D331D331D331D331D331D331D3314C
S1130090D331D331D131D331D331D331D331D3313E
S11300A0D331D331D331D331D331D331D331D3312C
S11300B0D331D331D131D331D331D331D331D3311E
S11300C0D331D331D331D331D331D331D331D3310C
S11300D0D331D331CF31D331D331D331D331D33100
S11300E0D331D331D331D331D331D331D331D331EC
S11300F0D331D331CF31D331D331D331D331D331E0
S1130100D331D331D331D331D331D331D331D331CB
S1130110D331D331D131D331D331D331D331D331BD
S1130120D331D331D331D331D331D331D331D331AB
S1130130D331D331D331CF31D131CF31D331D331A5
S1130140CD31D331CD31CD31CD31CD31CD31D331AF
S1130150CD31CD31D036D9365B3764377E387E38F1
S11301607E387E387E387E381D38253839384D380B
S11301706A38001F000000001F00001F101010103C
S11301801F00001F181818181F00001F1C1C1C1C1F
S11301901F00001F1E1E1E1E1F00001F1F1F1F1FEB
S11301A01F0003070F1F0F070300001F1F1F1F1F40
S11301B01F001B1B1B1B1B1B1B00181C1E1F1E1CB4
S11301C018000004040E0E1F1F00001F1F0E0E0453
S11301D004000000000000000000000E1915130EBA
S11301E00000000E1515150E0000000E1315190E53
S11301F00000000E111F110E000011241FBECFE5D8
S1130200D8E0DEBFCDBF11E0A0E6B0E0E8EDFBE74B
S113021002C005900D92AA38B107D9F724E0AAE8E4
S1130220B1E001C01D92A838B207E1F70E94B523DE
S11302300C94EA3D0C940000CF93DF93CDB7DEB766
S113024086E290E026E230E0F90120812068FC019A
S1130250208386E290E026E230E0F90120812F7DC0
S1130260FC01208386E00E94510181E00E94680124
S113027087E290E027E230E0F90120812F7DFC0144
S1130280208386E290E026E230E0F90120812860B4
S1130290FC01208310922D0278940000DF91CF910D
S11302A00895CF93DF931F92CDB7DEB7898386E29B
S11302B090E026E230E0F9012081322F387F298155
S11302C0232BFC01208300000F90DF91CF91089530
S11302D0CF93DF931F92CDB7DEB7898387E290E097
S11302E027E230E0F9012081422F4F732981222F28
S11302F030E0002436952795079436952795079482
S1130300322F202D242BFC01208300000F90DF913D
S1130310CF910895CF93DF931F92CDB7DEB7898332
S113032087E290E027E230E0F9012081322F307E2D
S113033029812F71232BFC01208300000F90DF9172
S1130340CF910895CF93DF93CDB7DEB786E290E0E7
S113035026E230E0F90120812061FC01208386E25D
S113036090E026E230E0F90120812064FC01208342
S11303700000DF91CF9108951F920F9200905F00CB
S11303800F9211248F93CF93DF93CDB7DEB781E023
S113039080932D020000DF91CF918F910F900092F6
S11303A05F000F901F901895CF93DF93CDB7DEB702
S11303B027970FB6F894DEBF0FBECDBF9B838A8309
S11303C07D836C835F834E838FE590E0FC018081A5
S11303D08983F8948A819B812C813D81FC0131833E
S11303E020838A819B812E813F81FC013383228378
S11303F08A819B81FC01178216828A819B81FC0180
S1130400158214828FE590E02981FC01208300008D
S113041027960FB6F894DEBF0FBECDBFDF91CF9104
S11304200895CF93DF9300D000D0CDB7DEB79C837F
S11304308B8319828FE590E0FC0180818A83F89494
S11304408B819C81FC0184819581892B09F447C0AF
S11304508B819C81FC01208131818B819C81FC01F9
S113046086819781820F931FFC01808189838B8110
S11304709C81FC01868197819C012F5F3F4F8B817A
S11304809C81FC01378326838B819C81FC0126811E
S113049037818B819C81FC018281938128173907E4
S11304A088F08B819C81FC01268137818B819C8122
S11304B0FC0182819381281B390B8B819C81FC0177
S11304C0378326838B819C81FC01848195819C01E7
S11304D0215031098B819C81FC01358324838FE574
S11304E090E02A81FC01208389810F900F900F9066
S11304F00F90DF91CF910895CF93DF9300D000D078
S1130500CDB7DEB79B838A836C838FE590E0FC01D3
S113051080818983F8948A819B81FC0124813581BF
S11305208A819B81FC018281938128173907A0F578
S11305308A819B81FC01208131818A819B81FC011C
S1130540468157818A819B81FC0184819581BA010E
S1130550680F791F8A819B81FC0142815381CB0101
S1130560BA010E94553D820F931F2C81FC01208308
S11305708A819B81FC01848195819C012F5F3F4F7F
S11305808A819B81FC01358324838FE590E0298156
S1130590FC0120838FEF06C08FE590E02981FC01E8
S11305A0208380E00F900F900F900F90DF91CF91F8
S11305B00895CF93DF93CDB7DEB72A970FB6F8949B
S11305C0DEBF0FBECDBF9E838D8378876F835A872E
S11305D049878D819E819A8389838F8198859C83A5
S11305E08B8319C08B819C81FC012081318189819D
S11305F09A81FC013183208389819A8102969A83AE
S113060089838B819C8102969C838B8389859A85BF
S113061002979A87898789859A85029718F712C065
S113062089819A819C012F5F3F4F3A8329832B81D3
S11306303C81A9014F5F5F4F5C834B83F9012081AB
S1130640FC01208389859A859C01215031093A87D0
S11306502987892B29F700002A960FB6F894DEBF64
S11306600FBECDBFDF91CF910895CF93DF93CDB768
S1130670DEB728970FB6F894DEBF0FBECDBF9C83BC
S11306808B837E836D8358874F838B819C819A8370
S113069089830AC089819A819C012F5F3F4F3A83E5
S11306A029832D81FC0120838F8198859C01215011
S11306B0310938872F83892B69F7000028960FB6F4
S11306C0F894DEBF0FBECDBFDF91CF910895CF93D5
S11306D0DF93CDB7DEB72C970FB6F894DEBF0FBE0D
S11306E0CDBF98878F837A8769875C874B878F8193
S11306F098859A83898389859A859C838B831E82B6
S11307001D8200008B859C859C01215031093C870A
S11307102B87892B01F189819A819C012F5F3F4F9F
S11307203A832983FC018081282F30E08B819C81CE
S1130730AC014F5F5F4F5C834B83FC018081882F4A
S113074090E0A901481B590BCA019E838D838D81BA
S11307509E81892BB9F28D819E812C960FB6F894D7
S1130760DEBF0FBECDBFDF91CF910895CF93DF934E
S113077000D000D0CDB7DEB79A8389837C836B83A6
S113078005C089819A8101969A83898389819A8196
S1130790FC018081882359F089819A81FC01808140
S11307A0282F30E08B819C812817390751F78981E4
S11307B09A81FC018081882F90E00F900F900F9018
S11307C00F90DF91CF9108950F93CF93DF93CDB71F
S11307D0DEB72B970FB6F894DEBF0FBECDBF9F8355
S11307E08E83488759876A877B878E819F81FC0126
S11307F086A597A5A0A9B1A989839A83AB83BC8355
S113080029813A814B815C8188859985AA85BB853C
S1130810281739074A075B0709F4A0C08E819F8116
S1130820DC0114968C91882309F46DC08E819F811C
S1130830BC016E5C7F4F8E819F81DC011196EC912F
S113084089819A81AB81BC8101E09C01AD018E2F2D
S11308500E94CA35882311F081E081C08E819F8176
S1130860FC0114828E819F81DC0192962D913D9131
S11308704D915C9195978E819F81FC01868D978D1A
S1130880A0A1B1A1280F391F4A1F5B1F89819A813A
S1130890AB81BC8182179307A407B507A0F58E81AD
S11308A09F81DC0113968C918D832AC08E819F8158
S11308B0FC01868D978DA0A1B1A129813A814B813C
S11308C05C81820F931FA41FB51F89839A83AB8316
S11308D0BC838E819F81BC016E5C7F4F8E819F8122
S11308E0DC011196EC9189819A81AB81BC8101E094
S11308F09C01AD018E2F0E94CA358D8181508D835C
S11309008D81823098F688859985AA85BB85892B47
S11309108A2B8B2B19F18E819F81BC016E5C7F4FDA
S11309208E819F81DC011196EC9188859985AA8539
S1130930BB8501E09C01AD018E2F0E943D358823CB
S113094011F081E00CC02E813F8188859985AA85AC
S1130950BB85F90186A797A7A0ABB1AB80E02B9626
S11309600FB6F894DEBF0FBECDBFDF91CF910F91CC
S113097008950F93CF93DF9300D000D0CDB7DEB7A7
S11309809B838A838A819B8140E050E0BA010E9464
S1130990E40389838981882309F091C08A819B813A
S11309A0FC018081833009F07DC08A819B81FC0138
S11309B08581882309F476C08A819B81FC0116A66F
S11309C017A610AA11AA8A819B81C29640E052E020
S11309D060E070E00E9435038A819B81C296825058
S11309E09E4F25E53AEAFC01318320838A819B816D
S11309F09C012E5C3F4F82E592E5A1E6B1E4F9014A
S1130A0080839183A283B3838A819B81C2969C0154
S1130A102C513E4F82E792E7A1E4B1E6F9018083CD
S1130A209183A283B3838A819B81C2969C012851BE
S1130A303E4F8A819B81FC0186859785A089B18977
S1130A40F90180839183A283B3838A819B81C296B7
S1130A509C0124513E4F8A819B81FC0182859385B0
S1130A60A485B585F90180839183A283B3838A81A8
S1130A709B81FC0182899389A489B5892A813B8160
S1130A80B9016E5C7F4F2A813B81F901F181FC83BE
S1130A9001E09C01AD018C810E94CA358A819B8151
S1130AA0FC0115828A819B81FC01818140E050E038
S1130AB060E00E947536882311F081E08983898182
S1130AC00F900F900F900F90DF91CF910F91089599
S1130AD0CF93DF9300D000D000D0CDB7DEB79A8398
S1130AE089834B835C836D837E838B819C81AD8101
S1130AF0BE810297A109B1098B839C83AD83BE8318
S1130B0089819A81FC01828D938DA48DB58D9C0180
S1130B10AD0122503109410951098B819C81AD817C
S1130B20BE8182179307A407B50720F080E090E008
S1130B30DC011DC089819A81FC018281282F30E06B
S1130B4040E050E08B819C81AD81BE81BC01CD0130
S1130B500E94453D9B01AC0189819A81FC0182A5DB
S1130B6093A5A4A5B5A5820F931FA41FB51FBC010F
S1130B70CD0126960FB6F894DEBF0FBECDBFDF9130
S1130B80CF910895CF93DF93CDB7DEB72C970FB6EF
S1130B90F894DEBF0FBECDBF98878F8349875A87ED
S1130BA06B877C8789859A85AB85BC850297A1056F
S1130BB0B10580F08F819885FC01228D338D448DA1
S1130BC0558D89859A85AB85BC8582179307A407C3
S1130BD0B50728F081E090E0A0E0B0E025C18F8166
S1130BE09885FC018081882F90E08230910509F47A
S1130BF098C08330910509F4CDC0019709F011C163
S1130C0089859A859A83898389819A81969587951E
S1130C1029813A81820F931F9A8389838F819885D2
S1130C20FC0122A133A144A155A189819A81892F74
S1130C3099278695CC01A0E0B0E0820F931FA41FF2
S1130C40B51F2F813885AC01BD01C9010E94E403A1
S1130C50882309F0DFC089819A8191702F813885BA
S1130C60820F931FC296FC018081882F90E09C83A1
S1130C708B8389819A8101969A8389838F81988550
S1130C80FC0122A133A144A155A189819A81892F14
S1130C9099278695CC01A0E0B0E0820F931FA41F92
S1130CA0B51F2F813885AC01BD01C9010E94E40341
S1130CB0882309F0B1C089819A8191702F81388588
S1130CC0820F931FC296FC018081882F90E0982F99
S1130CD088279C018B819C81822B932B9C838B8303
S1130CE089859A85AB85BC8581709927AA27BB27FE
S1130CF0892B8A2B8B2B61F08B819C819295829519
S1130D008F7089279F708927CC01A0E0B0E08CC048
S1130D108B819C81CC01A0E0B0E09F70AA27BB2707
S1130D2083C08F819885FC0122A133A144A155A1E0
S1130D3089859A85AB85BC85892F9A2FAB2FBB27D4
S1130D40820F931FA41FB51F2F813885AC01BD01ED
S1130D50C9010E94E403882309F060C089859A854B
S1130D60AB85BC85880F991FAA1FBB1F8E7F91700E
S1130D70AA27BB27C2962F813885820F931F9E8393
S1130D808D838D819E81FC0180819181CC01A0E0C5
S1130D90B0E04AC08F819885FC0122A133A144A10F
S1130DA055A189859A85AB85BC85689416F8B69556
S1130DB0A795979587951694D1F7820F931FA41F33
S1130DC0B51F2F813885AC01BD01C9010E94E40320
S1130DD0882331F589859A85AB85BC85880F991F51
S1130DE0AA1FBB1F880F991FAA1FBB1F8C7F91705E
S1130DF0AA27BB27C2962F813885820F931F9E8313
S1130E008D838D819E81FC0180819181A281B3813A
S1130E10BF700AC0000005C0000003C0000001C08C
S1130E2000008FEF9FEFDC01BC01CD012C960FB6C3
S1130E30F894DEBF0FBECDBFDF91CF9108950F931D
S1130E401F93CF93DF93CDB7DEB72F970FB6F894E8
S1130E50DEBF0FBECDBF9F838E83488759876A87C5
S1130E607B870C871D872E873F8788859985AA8570
S1130E70BB850297A105B10580F08E819F81FC019D
S1130E80228D338D448D558D88859985AA85BB85A2
S1130E9082179307A407B50718F082E0898374C109
S1130EA08E819F81FC018081882F90E082309105A2
S1130EB009F4C4C08330910509F4FAC0019709F01C
S1130EC054C1888599859B838A838A819B81969561
S1130ED087952A813B81820F931F9B838A838E810E
S1130EE09F81FC0122A133A144A155A18A819B8148
S1130EF0892F99278695CC01A0E0B0E0820F931F3B
S1130F00A41FB51F2E813F81AC01BD01C9010E9400
S1130F10E40389838981882309F02AC18A819B811A
S1130F209170C2962E813F81820F931F9D838C8383
S1130F3088859985AA85BB8581709927AA27BB27AF
S1130F40892B8A2B8B2B91F08C819D81FC018081D4
S1130F50282F2F708C85882F90E082959295907F12
S1130F609827807F9827822B282F01C02C858C817D
S1130F709D81FC0120838A819B8101969B838A83C6
S1130F808E819F8121E0FC0124838E819F81FC015D
S1130F9022A133A144A155A18A819B81892F99273C
S1130FA08695CC01A0E0B0E0820F931FA41FB51F6B
S1130FB02E813F81AC01BD01C9010E94E4038983F4
S1130FC08981882309F0D6C08A819B819170C29659
S1130FD02E813F81820F931F9D838C838885998501
S1130FE0AA85BB8581709927AA27BB27892B8A2BC1
S1130FF08B2B71F08C859D85AE85BF85689413F825
S1131000B695A795979587951694D1F7282F11C073
S11310108C819D81FC018081282F207F8C859D857A
S1131020AE85BF85892F9A2FAB2FBB278F70822B5C
S1131030282F8C819D81FC012083A1C08E819F81FA
S1131040FC0122A133A144A155A188859985AA85D3
S1131050BB85892F9A2FAB2FBB27820F931FA41F09
S1131060B51F2E813F81AC01BD01C9010E94E4037B
S113107089838981882309F07FC088859985AA8519
S1131080BB85880F991FAA1FBB1F8E7F9170AA274B
S1131090BB27C2962E813F81820F931F9D838C8331
S11310A02C853D858C819D81FC013183208367C023
S11310B08E819F81FC0122A133A144A155A1888581
S11310C09985AA85BB85689416F8B695A7959795D2
S11310D087951694D1F7820F931FA41FB51F2E81F5
S11310E03F81AC01BD01C9010E94E4038983898168
S11310F0882309F043C088859985AA85BB85880F14
S1131100991FAA1FBB1F880F991FAA1FBB1F8C7F83
S11311109170AA27BB27C2962E813F81820F931F0D
S11311209D838C838C819D81FC0180819181A2812E
S1131130B38188279927AA27B07F2C853D854E85C2
S11311405F85822B932BA42BB52B8C879D87AE8731
S1131150BF872C813D818C859D85AE85BF85F90136
S113116080839183A283B3830AC082E0898307C00A
S1131170000005C0000003C0000001C000008E8113
S11311809F8121E0FC01248389812F960FB6F89476
S1131190DEBF0FBECDBFDF91CF911F910F91089598
S11311A00F931F93CF93DF93CDB7DEB72B970FB673
S11311B0F894DEBF0FBECDBF9F838E8348875987C7
S11311C06A877B8788859985AA85BB850297A1054F
S11311D0B10580F08E819F81FC01228D338D448D79
S11311E0558D88859985AA85BB8582179307A407A1
S11311F0B50718F082E0898385C019826EC088859E
S11312009985AA85BB852E813F81AC01BD01C901A9
S11312100E94C205DC01CB018A839B83AC83BD831E
S11312208A819B81AC81BD81892B8A2B8B2B09F40C
S113123066C08A819B81AC81BD810197A105B105FE
S113124019F482E089835EC08A819B81AC81BD816F
S11312508F3F9F4FAF4FBF4F19F481E0898352C036
S113126088859985AA85BB85EE81FF8100E010E021
S11312709801AC01BD01CF010E941F0789838981B8
S1131280882309F03EC08E819F81FC018685978565
S1131290A089B1898F3F9F4FAF4FBF4FB1F08E816F
S11312A09F81FC0186859785A089B1890196A11D3E
S11312B0B11D2E813F81F90186879787A08BB18B61
S11312C08E819F8121E0FC0125838A819B81AC81F1
S11312D0BD8188879987AA87BB878E819F81FC01FE
S11312E0228D338D448D558D88859985AA85BB853E
S11312F082179307A407B50708F481CF03C0000041
S113130001C0000089812B960FB6F894DEBF0FBE92
S1131310CDBFDF91CF911F910F9108950F931F932C
S1131320CF93DF93CDB7DEB763970FB6F894DEBFE4
S11313300FBECDBF9F878E87488B598B6A8B7B8B63
S113134088899989AA89BB89892B8A2B8B2B69F572
S11313508E859F85FC0182859385A485B5858D83C3
S11313609E83AF83B8878D819E81AF81B885892B99
S11313708A2B8B2B89F08E859F85FC01228D338DE2
S1131380448D558D8D819E81AF81B88582179307D9
S1131390A407B50708F444C081E090E0A0E0B0E001
S11313A08D839E83AF83B8873BC088899989AA8936
S11313B0BB892E853F85AC01BD01C9010E94C205D0
S11313C0DC01CB018A879B87AC87BD878A859B8597
S11313D0AC85BD850297A105B10528F481E090E0B4
S11313E0A0E0B0E00CC18E859F85FC01228D338D79
S11313F0448D558D8A859B85AC85BD858217930761
S1131400A407B50728F48A859B85AC85BD85F7C0FC
S113141088899989AA89BB898D839E83AF83B8877C
S11314208D819E81AF81B88589839A83AB83BC8388
S113143089819A81AB81BC810196A11DB11D8983EB
S11314409A83AB83BC838E859F85FC01228D338D6B
S1131450448D558D89819A81AB81BC818217930714
S1131460A407B507C8F082E090E0A0E0B0E089836B
S11314709A83AB83BC8329813A814B815C818D81C2
S11314809E81AF81B88582179307A407B50720F41E
S113149080E090E0DC01B3C089819A81AB81BC819A
S11314A02E853F85AC01BD01C9010E94C205DC0146
S11314B0CB018A879B87AC87BD878A859B85AC8552
S11314C0BD85892B8A2B8B2B41F18A859B85AC8525
S11314D0BD858F3F9F4FAF4FBF4F41F08A859B859E
S11314E0AC85BD850197A105B10529F48A859B8545
S11314F0AC85BD8584C029813A814B815C818D8115
S11315009E81AF81B885281739074A075B0709F020
S11315108FCF80E090E0DC0172C0000089819A8165
S1131520AB81BC81EE85FF850FEF1FEF2FEF3FE00E
S1131530AC01BD01CF010E941F07898789858823DB
S1131540D1F488899989AA89BB89892B8A2B8B2B09
S113155091F029813A814B815C8188899989AA8992
S1131560BB89EE85FF8589019A01AC01BD01CF01DC
S11315700E941F0789878985882371F52E853F85F9
S113158089819A81AB81BC81F90182879387A48781
S1131590B5878E859F85FC0186859785A089B1894D
S11315A08F3F9F4FAF4FBF4F31F18E859F85FC0119
S11315B086859785A089B1890197A109B1092E85EE
S11315C03F85F90186879787A08BB18B8E859F8590
S11315D021E0FC0125830FC08985813021F48FEF40
S11315E09FEFDC0104C081E090E0A0E0B0E08983DB
S11315F09A83AB83BC8389819A81AB81BC81BC0112
S1131600CD0163960FB6F894DEBF0FBECDBFDF9158
S1131610CF911F910F910895CF93DF93CDB7DEB78C
S11316202A970FB6F894DEBF0FBECDBF98878F837D
S11316307A8769878F81988529853A85FC01358366
S113164024838F819885FC0186819781A085B1854B
S113165089839A83AB83BC8389819A81AB81BC8162
S11316600197A105B10599F08F819885FC018081CE
S11316709181FC01228D338D448D558D89819A8110
S1131680AB81BC8182179307A407B50710F082E0F1
S11316900FC189819A81AB81BC81892B8A2B8B2BC9
S11316A0B9F48F819885FC0180819181FC0180814E
S11316B0833071F48F819885FC0180819181FC01D4
S11316C086A197A1A0A5B1A589839A83AB83BC8386
S11316D089819A81AB81BC81892B8A2B8B2BD9F58B
S11316E02F81388589819A81AB81BC81F9018287F8
S11316F09387A487B5878F819885FC018081918128
S1131700FC012085318589859A858217930710F01D
S113171082E0CEC08F819885FC0180819181FC019B
S113172026A137A140A551A589859A8592958295D0
S11317308F7089279F708927CC01A0E0B0E0820FC9
S1131740931FA41FB51F2F813885F90186879787BA
S1131750A08BB18B91C08F819885FC018081918190
S1131760FC018281882F90E082959295907F982742
S1131770807F98279E838D8346C08F819885FC0146
S11317802081318189819A81AB81BC81AC01BD0109
S1131790C9010E94C205DC01CB0189839A83AB8312
S11317A0BC8389819A81AB81BC818F3F9F4FAF4FAE
S11317B0BF4F11F481E07CC089819A81AB81BC81E7
S11317C00297A105B10598F08F819885FC0180816D
S11317D09181FC01228D338D448D558D89819A81AF
S11317E0AB81BC8182179307A407B50710F082E090
S11317F05FC029853A858D819E81A901481B590BBB
S1131800CA019A87898729853A858D819E812817FF
S1131810390708F0B2CF2F81388589819A81AB814D
S1131820BC81F90182879387A487B5878F819885C6
S1131830FC012081318189819A81AB81BC81AC0119
S1131840BD01C9010E9468059B01AC0189859A8587
S1131850929582958F7089279F708927CC01A0E08B
S1131860B0E0820F931FA41FB51F2F813885F901A3
S113187086879787A08BB18B8F819885FC018081A7
S113188091819C012E5C3F4F89859A858F709927A1
S1131890880F991F82959295907F9827807F98272B
S11318A0280F391F8F819885FC01338B228B80E0B0
S11318B02A960FB6F894DEBF0FBECDBFDF91CF914D
S11318C00895EF92FF920F931F93CF93DF93CDB7B9
S11318D0DEB72B970FB6F894DEBF0FBECDBF998746
S11318E088877B876A8788859985FC0184819581AF
S11318F001969F838E838E819F81892B59F08885E1
S11319009985FC0186859785A089B189892B8A2BC5
S11319108B2B11F484E098C18E819F818F7099275D
S1131920892B09F06EC188859985FC018685978588
S1131930A089B1890196A11DB11D28853985F901B8
S113194086879787A08BB18B88859985FC018285D2
S11319509385A485B585892B8A2B8B2B81F4888567
S11319609985FC0180819181FC01208531858E81DE
S11319709F818217930708F444C184E065C18E8176
S11319809F81929582958F7089279F7089272885DA
S11319903985F90120813181F9012281222F30E03A
S11319A02150310982239323892B09F02AC1888588
S11319B09985FC0182859385A485B585288539851B
S11319C0F90120813181AC01BD01C9010E94C20528
S11319D0DC01CB0189839A83AB83BC8389819A819F
S11319E0AB81BC810297A105B10510F482E02CC142
S11319F089819A81AB81BC818F3F9F4FAF4FBF4F8D
S1131A0011F481E021C188859985FC01808191814F
S1131A10FC01228D338D448D558D89819A81AB8152
S1131A20BC8182179307A407B50708F4C8C08A8548
S1131A309B85892B11F484E007C188859985FC0175
S1131A4082859385A485B58528853985F90120810A
S1131A503181AC01BD01C9010E948E09DC01CB01B9
S1131A6089839A83AB83BC8389819A81AB81BC814E
S1131A70892B8A2B8B2B11F487E0E6C089819A810C
S1131A80AB81BC810197A105B10511F482E0DCC0F2
S1131A9089819A81AB81BC818F3F9F4FAF4FBF4FEC
S1131AA011F481E0D1C088859985FC018081918100
S1131AB040E050E0BA010E94E403882311F081E081
S1131AC0C3C088859985FC0180819181C29640E0DC
S1131AD052E060E070E00E94350388859985FC013E
S1131AE00081118188859985FC012081318189815A
S1131AF09A81AB81BC81AC01BD01C9010E9468051A
S1131B00DC01CB01F80186A797A7A0ABB1AB1D827E
S1131B102BC088859985FC018081918121E0FC019D
S1131B20248388859985FC018081918140E050E07F
S1131B30BA010E94E403882311F081E085C08885FE
S1131B409985FC0120813181F90186A597A5A0A979
S1131B50B1A90196A11DB11DF90186A797A7A0AB54
S1131B60B1AB8D818F5F8D8388859985FC018081E0
S1131B709181FC0192818D81891758F2888599851C
S1131B80FC016081718188859985FC018081918146
S1131B90FC0126A537A540A951A98D81882F90E085
S1131BA0A0E0B0E079018A01E81AF90A0A0B1B0BDC
S1131BB0D801C701FB0186A797A7A0ABB1AB2885C5
S1131BC0398589819A81AB81BC81F90182879387A8
S1131BD0A487B58788859985FC0120813181898115
S1131BE09A81AB81BC81AC01BD01C9010E94680529
S1131BF0DC01CB0128853985F90186879787A08B7D
S1131C00B18B888599852E813F81FC01358324839E
S1131C1088859985FC01808191819C012E5C3F4FD0
S1131C208E819F818F709927880F991F8295929535
S1131C30907F9827807F9827280F391F888599855A
S1131C40FC01338B228B80E02B960FB6F894DEBF19
S1131C500FBECDBFDF91CF911F910F91FF90EF90F9
S1131C600895CF93DF9300D000D000D0CDB7DEB776
S1131C709E838D838D819E8160E070E00E940C0BB9
S1131C8089838981882311F0898150C08D819E8147
S1131C90FC0186859785A089B1892D813E81F90152
S1131CA020813181AC01BD01C9010E94E403898313
S1131CB089818823B9F58D819E81FC01828993896C
S1131CC09B838A838A819B81FC0180818C838C81A4
S1131CD0882319F484E0898328C08A819B810B9628
S1131CE0FC018081882F90E088709927892B71F4FA
S1131CF08D819E81FC01248935898A819B814BE0F9
S1131D0050E0B9010E946703892B71F08D819E8197
S1131D1060E070E00E94610C89838981882309F462
S1131D20B5CF03C0000001C00000898126960FB61C
S1131D30F894DEBF0FBECDBFDF91CF910895CF934E
S1131D40DF9300D000D000D0CDB7DEB79E838D8363
S1131D508D819E8160E070E00E940C0B89838981F3
S1131D60882379F58D819E81FC0186859785A089DC
S1131D70B1892D813E81F90120813181AC01BD0100
S1131D80C9010E94E403898389818823C9F48D8170
S1131D909E81FC0182899389FC0180818A838A81E6
S1131DA0853E79F08A81882361F08D819E8161E08E
S1131DB070E00E94610C89838981882399F201C0B3
S1131DC0000089818823C1F58D819E81FC0186856F
S1131DD09785A089B1892D813E81F90120813181C6
S1131DE0AC01BD01C9010E94E40389838981882370
S1131DF019F58D819E81FC01828993899C838B8353
S1131E008B819C8140E250E060E070E00E943503E9
S1131E108D819E81FC01248935898B819C814BE0D5
S1131E2050E0B9010E94D9028D819E81FC0180811C
S1131E30918121E0FC012483898126960FB6F894D0
S1131E40DEBF0FBECDBFDF91CF910895CF93DF9357
S1131E50CDB7DEB760970FB6F894DEBF0FBECDBF27
S1131E609E878D87788B6F878D859E85FC018489FD
S1131E7095899A87898789859A854BE050E060E245
S1131E8070E00E943503198218861F828F8198851D
S1131E909E838D8388E090E09C838B838F859889D3
S1131EA0FC01808191819C878B872B853C858D816A
S1131EB09E81820F931FFC0180818E3209F047C0FE
S1131EC08D819E819C012F5F3F4F3E832D832B8507
S1131ED03C85820F931FFC0180818A838A818E3224
S1131EE099F48D819E81039778F48F8198859C0164
S1131EF02F5F3F4F38872F8329853A85820F931FA1
S1131F002A81FC012083DCCF8A818F3241F08A81CF
S1131F108C3529F08A81813210F086E0D9C02B8576
S1131F203C858D819E81280F391F8F859889FC01FE
S1131F303183208389859A850B962A81213210F476
S1131F4024E201C020E2FC01208380E0C1C08D8135
S1131F509E819C012F5F3F4F3E832D832B853C85C3
S1131F60820F931FFC0180818A838A81813208F465
S1131F7069C08A818F3209F465C08A818C3509F47D
S1131F8061C08A818E3239F02F8138858B819C81A2
S1131F9028173907B0F08B819C81089719F48A813E
S1131FA08E3211F086E094C088E090E098878F83A9
S1131FB08BE090E09C838B838981880F880F8983D1
S1131FC040C08A8188236CF48981836089838A81F3
S1131FD0882F90E080589109865F9E4FFC01808194
S1131FE08A838A81882F90E0BC0181E690E00E9478
S1131FF0B603892B11F086E06BC08A81813438F0F6
S11320008A818B3520F48981826089830CC08A811E
S1132010813648F08A818B3730F4898181608983E5
S11320208A8180528A838F8198859C012F5F3F4FDC
S113203038872F8329853A85820F931F2A81FC01D3
S1132040208385CF2B853C858D819E81280F391F68
S11320508F859889FC01318320838A81813210F431
S113206084E001C080E08A838F819885892B11F4F4
S113207086E02EC089859A85FC018081853E29F4FD
S113208089859A8525E0FC0120838B819C810897B2
S113209021F48981880F880F89838981882F90E0B2
S11320A083709927019719F48A8180618A838981D1
S11320B0882F90E08C709927049719F48A8188609E
S11320C08A8389859A850B962A81FC01208380E086
S11320D060960FB6F894DEBF0FBECDBFDF91CF91EF
S11320E00895CF93DF93CDB7DEB728970FB6F89452
S11320F0DEBF0FBECDBF9E838D8378876F838F81B4
S11321009885FC0180818F3231F08F819885FC01A4
S113211080818C3569F48F819885019698878F83A7
S11321208D819E81FC01168217821086118611C052
S11321308D819E81FC0180819181FC018689978932
S1132140A08DB18D2D813E81F90186839783A0876F
S1132150B1878F819885FC018081803268F48D81FC
S11321609E8160E070E00E940C0B89838D819E81CA
S1132170FC01138A128A8DC09E01295F3F4F8D8115
S11321809E81B9010E94260F89838981882309F0E1
S113219079C08D819E810E94310E89838D819E81BB
S11321A0FC0184899589FC0183858A83898188233C
S11321B061F18981843009F067C08A81882F90E0B9
S11321C080729927892BB1F08D819E81FC01168242
S11321D01782108611868D819E81FC01138A128AD2
S11321E019828A81882F90E084709927892B09F0BD
S11321F04DC047C08A81882F90E084709927892B2D
S113220009F044C085E0898341C08A81882F90E029
S113221084709927892BE1F58D819E81FC01828947
S113222093899C838B838B819C810B96FC01808199
S1132230882F90E080719927892B19F485E0898390
S113224028C08B819C814496FC0180819181CC01C2
S1132250A0E0B0E0AC01332722278B819C814A9611
S1132260FC0180819181CC01A0E0B0E0822B932B12
S1132270A42BB52B2D813E81F90186839783A087FA
S1132280B1877ACF000005C0000003C0000001C080
S11322900000898128960FB6F894DEBF0FBECDBF2B
S11322A0DF91CF9108950F93CF93DF9300D000D0A7
S11322B000D0CDB7DEB79A8389834B835C836D836B
S11322C07E8389819A81BC016E5C7F4F89819A816A
S11322D0DC011196EC918B819C81AD81BE8101E082
S11322E09C01AD018E2F0E943D35882311F083E0BF
S11322F02FC089819A81805D9D4FFC0180819181ED
S113230085359A4A11F082E023C089819A818859DF
S11323109F4FFC0180819181A281B381BB278634C8
S11323209144A445B10511F480E012C089819A81D9
S11323308C579F4FFC0180819181A281B381BB277F
S113234086349144A445B10511F480E001C081E0D4
S113235026960FB6F894DEBF0FBECDBFDF91CF91A6
S11323600F910895EF92FF920F931F93CF93DF93F2
S1132370CDB7DEB7AB970FB6F894DEBF0FBECDBFB7
S11323809FA38EA379A768A74AA78EA19FA1FC014A
S1132390808191819D8B8C8B8C899D89FC018081AE
S11323A0882F90E0C0979B838A838A819B810A97B8
S11323B0A0F48C899D890196FC0180818A3369F49B
S11323C08C899D8902969D8B8C8B8EA19FA12C89D3
S11323D03D89FC013183208306C080918E01882FC2
S11323E090E09B838A838A819B81892B11F08BE007
S11323F077C38A819B81880F991F86579E4FFC0162
S1132400808191819F8B8E8B88A599A52E893F8988
S1132410FC01318320838E899F89892B11F48CE000
S11324205FC38E899F89FC0180818823E1F08E89B6
S11324309F89FC0181810E942C35888F888D882F8B
S113244090E081709927892B71F48AA5882349F03B
S1132450888D882F90E084709927892B11F08AE069
S11324603FC380E03DC38E899F89FC0110822A818D
S11324708E899F89FC0121838E899F89FC0181813A
S11324800E943834888F888D882F90E08170992736
S1132490892B11F083E024C38AA5882349F0888D11
S11324A0882F90E084709927892B11F08AE018C353
S11324B01C821D821E821F828C819D81AE81BF8100
S11324C02E893F89AC01BD01C9010E945311898342
S11324D08981813029F58E899F8980519E4F9A8FF9
S11324E0898F898D9A8D0496FC0180818823C1F09F
S11324F0898D9A8D0896FC0180819181A281B38196
S11325008C839D83AE83BF838C819D81AE81BF818B
S11325102E893F89AC01BD01C9010E9453118983F1
S11325208981833011F481E0DBC28981882311F031
S11325308DE0D6C28E899F89C2960B96FC0180815C
S113254091818115924011F08DE0CAC28E899F89D4
S1132550C2964696FC0180819181CC01A0E0B0E056
S113256088879987AA87BB8788859985AA85BB852B
S1132570892B8A2B8B2B69F48E899F89C29684962A
S1132580FC0180819181A281B38188879987AA8780
S1132590BB872E893F8988859985AA85BB85F901E2
S11325A0868F978FA0A3B1A38E899F898E5B9F4F3F
S11325B0FC0180818B8F8E899F892B8DFC01238365
S11325C08B8D813029F08B8D823011F08DE088C2A3
S11325D08B8D882F90E0A0E0B0E0288539854A856E
S11325E05B85BC01CD010E94453DDC01CB018887A0
S11325F09987AA87BB878E899F89FC0187AD8B8FBA
S11326008E899F892B8DFC0122838B8D882359F021
S11326108B8D282F30E08B8D882F90E001978223BB
S11326209323892B11F08DE05BC28E899F89C2961A
S11326304196FC01208131818E899F89FC0131877B
S113264020878E899F89FC01808591858F709927C9
S1132650892B11F08DE044C28E899F89C2964396DE
S1132660FC0180819181CC01A0E0B0E08C879D8742
S1132670AE87BF878C859D85AE85BF85892B8A2BC8
S11326808B2B69F48E899F89C2968096FC01808188
S11326909181A281B3818C879D87AE87BF878E8904
S11326A09F89C2960E96FC01808191819D8F8C8FAB
S11326B08C8D9D8D892B11F48DE012C28C8D9D8D96
S11326C09C0140E050E088859985AA85BB85280F48
S11326D0391F4A1F5B1F8E899F89FC018085918564
S11326E0929582958F7089279F708927CC01A0E0ED
S11326F0B0E0820F931FA41FB51F8E8F9F8FA8A3D6
S1132700B9A32C853D854E855F858E8D9F8DA8A1AF
S1132710B9A1281739074A075B0710F48DE0E0C117
S11327202C853D854E855F858E8D9F8DA8A1B9A191
S113273079018A01E81AF90A0A0B1B0BD801C701AF
S11327402E893F89F9012281222F30E040E050E0B8
S1132750BC01CD010E94693DDA01C9018AA39BA392
S1132760ACA3BDA38AA19BA1ACA1BDA1892B8A2B3B
S11327708B2B11F48DE0B4C181E089838AA19BA1E4
S1132780ACA1BDA1863F9F40A105B10510F082E038
S113279089838AA19BA1ACA1BDA1863F9F4FA105BE
S11327A0B10510F083E089838AA19BA1ACA1BDA1EE
S11327B00296A11DB11D2E893F89F901828F938F45
S11327C0A48FB58F2C813D814E815F818E8D9F8D2D
S11327D0A8A1B9A1820F931FA41FB51F2E893F89F9
S11327E0F90182A793A7A4A7B5A78C8D9D8D9C0101
S11327F040E050E08C819D81AE81BF81820F931FA8
S1132800A41FB51F2E893F89F90182A393A3A4A312
S1132810B5A38981833069F58E899F89FC01808500
S11328209185892B11F08DE05BC18E899F89C296B9
S11328308C96FC0180819181A281B3812E893F898C
S1132840F90186A397A3A0A7B1A78E899F89FC014C
S1132850828D938DA48DB58D880F991FAA1FBB1FE0
S1132860880F991FAA1FBB1F888B998BAA8BBB8BC0
S113287058C08E899F89FC0180859185892B11F42C
S11328808DE02EC18E899F89FC0122A133A144A130
S113289055A188859985AA85BB85820F931FA41F9E
S11328A0B51F2E893F89F90186A397A3A0A7B1A7D5
S11328B08981823061F48E899F89FC01828D938D98
S11328C0A48DB58D880F991FAA1FBB1F26C08E89A2
S11328D09F89FC01228D338D448D558DDA01C90108
S11328E0880F991FAA1FBB1F820F931FA41FB51F18
S11328F09C01AD0156954795379527958E899F89FB
S1132900FC01828D938DA48DB58D81709927AA27A2
S1132910BB27820F931FA41FB51F888B998BAA8B8B
S1132920BB8B8E899F89FC01268D378D40A151A1D7
S113293088899989AA89BB8981509E4FAF4FBF4F1F
S1132940072E79E0B695A795979587957A95D1F74F
S1132950702D281739074A075B0710F48DE0C0C0B3
S11329602E893F898FEF9FEFDC01F90186879787D6
S1132970A08BB18B8E899F89FC01128613861486E5
S113298015868981833009F081C08E899F89FC0175
S113299015828E899F89C296C096FC01808191819F
S11329A09C0140E050E08C819D81AE81BF81820F0B
S11329B0931FA41FB51F2E893F89F901828B938B26
S11329C0A48BB58B8E899F89FC0182899389A48904
S11329D0B5892E893F89B9016E5C7F4F2E893F8965
S11329E0F901F181FBA701E09C01AD018BA50E94D7
S11329F03D35882309F04AC08E899F89C29682504A
S1132A009E4FFC018081918185359A4A09F03EC030
S1132A108E899F89C296FC0180819181A281B381B4
S1132A2082359245A146B14489F58E899F89C29623
S1132A308C519E4FFC0180819181A281B3818237A8
S1132A409247A144B14611F58E899F89C29684515B
S1132A509E4FFC0180819181A281B3812E893F899F
S1132A60F90182879387A487B5878E899F89C29647
S1132A7088519E4FFC0180819181A281B3812E896E
S1132A803F89F90186879787A08BB18B8E899F89AF
S1132A902981FC01208380918C0190918D01019604
S1132AA090938D0180938C0120918C0130918D0144
S1132AB08E899F89FC01378326838E899F89FC0137
S1132AC016A617A610AA11AA8E899F89FC01148242
S1132AD08E899F89FC01168A178A108E118E80E0D8
S1132AE0AB960FB6F894DEBF0FBECDBFDF91CF918A
S1132AF01F910F91FF90EF900895CF93DF9300D033
S1132B0000D0CDB7DEB79A8389837C836B838981B8
S1132B109A81892B81F089819A81FC0180818823A3
S1132B2051F089819A81FC01268137818B819C81B6
S1132B302817390711F089E00FC089819A81FC01B7
S1132B4081810E942C35882F90E081709927892BF0
S1132B5011F083E001C080E00F900F900F900F9070
S1132B60DF91CF910895CF93DF9300D000D01F92CF
S1132B70CDB7DEB78B837D836C838B81882311F083
S1132B808BE029C08B81882F90E0880F991F86578E
S1132B909E4FFC01808191819A83898389819A81E6
S1132BA0892B21F089819A81FC0110828C819D817D
S1132BB0892B21F08C819D81FC0110828B81882FCF
S1132BC090E0880F991F86579E4F2C813D81FC0110
S1132BD03183208380E00F900F900F900F900F901F
S1132BE0DF91CF910895CF93DF93CDB7DEB7E2970E
S1132BF00FB6F894DEBF0FBECDBF9FA78EA779ABEB
S1132C0068AB4AAB8EA59FA5FC01118210828AA9EC
S1132C108F718AAB8AA9482F4E7F9E01245F3F4F54
S1132C20CE01C096B9010E94B2118983CE01829669
S1132C3099A388A38981882341F428A939A9CE01BD
S1132C400C96B9010E94711089838E8D9F8D9B8390
S1132C508A838981882331F48A819B81892B11F4A9
S1132C6086E089838AA9882F90E08C719927892B23
S1132C7009F4C6C08981882381F08981843029F4CC
S1132C80CE010C960E949F0E89838AA988608AAB24
S1132C908E8D9F8D9B838A8317C08AA9882F90E08D
S1132CA084709927892B19F088E089830DC08A8163
S1132CB09B810B96FC018081882F90E0817199277C
S1132CC0892B11F087E089838981882309F0BDC0AD
S1132CD08AA9882F90E088709927892B09F4B5C0B8
S1132CE00E942D1EDC01CB018C839D83AE83BF83A8
S1132CF08A819B819C01225F3F4F8C819D81AE81A3
S1132D00BF81F90180839183A283B3838A819B81EC
S1132D100B96FC0110828A819B814C96FC011082E7
S1132D201182128213828A819B814496FC018081E4
S1132D309181CC01A0E0B0E0AC01332722278A8145
S1132D409B814A96FC0180819181CC01A0E0B0E096
S1132D50822B932BA42BB52B88879987AA87BB87B3
S1132D608A819B814A96FC01118210828A819B810F
S1132D704496FC01118210828C859D8521E0FC0122
S1132D80248388859985AA85BB85892B8A2B8B2BDF
S1132D9009F45BC08C859D85FC0186A597A5A0A937
S1132DA0B1A98C839D83AE83BF832C853D858885A3
S1132DB09985AA85BB85AC01BD01C9010E94D008D3
S1132DC089838981882309F040C02C853D858885C5
S1132DD09985AA85BB850197A109B109F901828763
S1132DE09387A487B5872C853D858C819D81AE8191
S1132DF0BF81AC01BD01C9010E94E403898325C0E0
S1132E008981882311F58A819B810B96FC0180813D
S1132E10882F90E080719927892B19F084E08983A9
S1132E2014C08AA9882F90E082709927892B69F0B1
S1132E308A819B810B96FC018081882F90E08170B0
S1132E409927892B11F087E0898389818823F9F4F4
S1132E508AA9882F90E088709927892B19F08AA96C
S1132E6080628AAB8C859D85FC0186A597A5A0A967
S1132E70B1A92EA53FA5F901828F938FA48FB58F99
S1132E808EA59FA52A813B81FC01378F268F8981DE
S1132E90882309F053C08EA59FA52AA9FC01248389
S1132EA08A819B814496FC0180819181CC01A0E0C0
S1132EB0B0E0AC01332722278A819B814A96FC012A
S1132EC080819181CC01A0E0B0E0822B932BA42BD4
S1132ED0B52B2EA53FA5F90186879787A08BB18BCB
S1132EE08A819B814C96FC0180819181A281B3816E
S1132EF02EA53FA5F90182879387A487B5878EA560
S1132F009FA5FC0116821782108611868EA59FA5A7
S1132F10FC01168A178A108E118E2C853D858EA58C
S1132F209FA5FC01318320838C859D85FC0126812E
S1132F3037818EA59FA5FC01338322838981E29684
S1132F400FB6F894DEBF0FBECDBFDF91CF910895C9
S1132F50EF92FF920F931F93CF93DF93CDB7DEB71A
S1132F606C970FB6F894DEBF0FBECDBF9E8B8D8BD2
S1132F70788F6F8B5A8F498F3C8F2B8F8F89988DC9
S1132F809E838D838B8D9C8DDC011D921C928D897B
S1132F909E89FC01228133818D899E89DC018D917A
S1132FA09C91B9010E947D158F838F81882311F034
S1132FB08F815BC28D899E89FC018481882314F4EE
S1132FC082E053C28D899E89DC0114968C91882FEE
S1132FD090E081709927892B11F487E046C28D898E
S1132FE09E89FC0122853385448555858D899E897A
S1132FF0FC0186819781A085B18579018A01E81A4F
S1133000F90A0A0B1B0BD801C70188879987AA877D
S1133010BB87898D9A8D9C0140E050E08885998515
S1133020AA85BB8582179307A407B50708F017C2C2
S1133030888599859A8F898F12C28D899E89FC0112
S113304086819781A085B1859170AA27BB27892B9A
S11330508A2B8B2B09F076C18D899E89FC01868190
S11330609781A085B185072E79E0B695A7959795A8
S113307087957A95D1F7702D282F8D899E89DC014B
S11330808D919C91FC018281815082238C878C8557
S1133090882309F060C08D899E89FC01868197810F
S11330A0A085B185892B8A2B8B2B41F48D899E8930
S11330B0FC0186859785A089B18913C08D899E8975
S11330C0FC0182899389A489B5892D893E89F901F6
S11330D020813181AC01BD01C9010E94C205DC011E
S11330E0CB01898B9A8BAB8BBC8B89899A89AB89F1
S11330F0BC890297A105B10568F48D899E89DC011C
S113310014968C91282F20688D899E89FC01248334
S113311082E0ABC189899A89AB89BC898F3F9F4F73
S1133120AF4FBF4F69F48D899E89DC0114968C9151
S1133130282F20688D899E89FC01248381E095C114
S11331402D893E8989899A89AB89BC89F901828B49
S1133150938BA48BB58B8D899E89FC01828993897D
S1133160A489B5892D893E89F90120813181AC0179
S1133170BD01C9010E946805DC01CB018D879E87D2
S1133180AF87B88B8D859E85AF85B889892B8A2BAF
S11331908B2B69F48D899E89DC0114968C91282FE0
S11331A020688D899E89FC01248382E05EC18C8520
S11331B0882F90E0A0E0B0E02D853E854F855889AA
S11331C0820F931FA41FB51F8D879E87AF87B88B6F
S11331D0898D9A8D892F992786959C838B838B81E2
S11331E09C81892B09F4A3C08C85282F30E08B8126
S11331F09C81280F391F8D899E89DC018D919C91BA
S1133200FC018281882F90E08217930790F48D89C6
S11332109E89DC018D919C91FC018281282F30E0F4
S11332208C85882F90E07901E81AF90AC7019C83FC
S11332308B832B818D899E89DC018D919C91DC018E
S11332401196EC918D859E85AF85B8896D817E81BF
S1133250022F9C01AD018E2F0E943D35882369F019
S11332608D899E89FC018481282F20688D899E89FF
S1133270DC0114962C9381E0F8C08D899E89FC01B1
S113328080819181DC0114968C91882309F447C0D4
S11332908D899E89FC0180819181DC019E962D910E
S11332A03D914D915C91D1978D859E85AF85B8896F
S11332B0281B390B4A0B5B0B8B819C81CC01A0E052
S11332C0B0E0281739074A075B0748F58D899E89BE
S11332D0FC0180819181BC016E5C7F4F8D899E8948
S11332E0DC018D919C91FC0126A537A540A951A92B
S11332F08D859E85AF85B88979018A01E81AF90A16
S11333000A0B1B0BD801C701982F8827990F2D8111
S11333103E81820F931F40E052E00E94D9028B81CC
S11333209C81982F8827990F9A8389835FC02D8960
S11333303E898D859E85AF85B889F901868B978BEB
S1133340A08FB18F8D899E89FC0186819781A0858C
S1133350B185917020E032E07901E81AF90AC701D9
S11333609A83898329813A81898D9A8D821793075B
S113337020F4898D9A8D9A8389838D899E89FC0195
S113338086899789A08DB18D2D893E89F901208187
S11333903181AC01BD01C9010E94E403882369F0B5
S11333A08D899E89DC0114968C91282F20688D8943
S11333B09E89FC01248381E058C08D899E89DC01AB
S11333C02D913C918D899E89FC0186819781A085F0
S11333D0B1859170AA27BB27C296280F391F49814E
S11333E05A818D819E81B9010E94D9022D813E812D
S11333F089819A81820F931F9E838D838D899E89F3
S1133400DC0116962D913D914D915C91199789811E
S11334109A81CC01A0E0B0E0820F931FA41FB51FD6
S11334202D893E89F90186839783A087B1878B8D87
S11334309C8DDC012D913C9189819A81280F391F43
S11334408B8D9C8DFC0131832083298D3A8D89815C
S11334509A817901E81AF90AC7019A8F898F898DAF
S11334609A8D892B09F0E9CD80E06C960FB6F8941B
S1133470DEBF0FBECDBFDF91CF911F910F91FF90A3
S1133480EF900895CF93DF93CDB7DEB729970FB6AA
S1133490F894DEBF0FBECDBF99878887888599854C
S11334A0FC012281338188859985FC018081918189
S11334B0B9010E947D1589838981882309F096C00A
S11334C088859985FC018481882F90E080729927F2
S11334D0892B09F48BC088859985FC01828D938D95
S11334E0A48DB58D28853985F90120813181AC0100
S11334F0BD01C9010E94E40389838981882309F0FD
S113350075C088859985FC01868D978D9B838A83F8
S11335108A819B810B962A813B81255F3F4FF9016C
S113352020812062FC0120838A819B819C01245E8E
S11335303F4F88859985FC0182859385A485B5854F
S1133540F90180839183A283B3838A819B819C0147
S1133550265E3F4F88859985FC0186859785A089DD
S1133560B189F901918380838A819B819C012C5EBE
S11335703F4F88859985FC0186859785A089B18907
S1133580CD01AA27BB27F901918380830E942D1EB8
S1133590DC01CB018C839D83AE83BF838A819B81B5
S11335A09C012A5E3F4F8C819D81AE81BF81F901D0
S11335B080839183A283B38388859985FC01848168
S11335C0282F2F7D88859985FC01248388859985FA
S11335D0FC018081918121E0FC0124838885998507
S11335E0FC01808191810E94B90489838981299693
S11335F00FB6F894DEBF0FBECDBFDF91CF91089513
S1133600CF93DF9300D01F92CDB7DEB79B838A831D
S11336108A819B810E94421A89838981882329F4A3
S11336208A819B81FC011182108289810F900F9005
S11336300F90DF91CF910895EF92FF920F931F9314
S1133640CF93DF93CDB7DEB767970FB6F894DEBF9D
S11336500FBECDBF9B8B8A8B4C8B5D8B6E8B7F8B10
S11336608A899B89FC01228133818A899B89FC0197
S113367080819181B9010E947D158987898588237C
S113368011F08985C5C28A899B89FC0184818823BC
S113369014F482E0BDC28A899B89FC0122853385AA
S11336A0448555858C899D89AE89BF89281739073A
S11336B04A075B07A8F48A899B89FC018481882FC7
S11336C090E082709927892B59F48A899B89FC019F
S11336D082859385A485B5858C8B9D8BAE8BBF8BA2
S11336E08A899B89FC0186819781A085B1858A8717
S11336F09B87AC87BD871D821E821F8218862A89FC
S11337003B898D819E81AF81B885F901868397833A
S1133710A087B1878C899D89AE89BF89892B8A2B23
S11337208B2B09F420C28A899B89FC0180819181B9
S1133730FC018281882F90E0A0E0B0E0072E79E0C0
S1133740880F991FAA1FBB1F7A95D1F7702D8E87FA
S11337509F87A88BB98B8A859B85AC85BD85892B72
S11337608A2B8B2B09F46DC08C899D89AE89BF8906
S11337700197A109B1092E853F8548895989BC0162
S1133780CD010E94693DDA01C9017C018D018A8560
S11337909B85AC85BD850197A109B1092E853F851F
S11337A048895989BC01CD010E94693DDA01C901EA
S11337B0E816F9060A071B0708F443C08A859B85A7
S11337C0AC85BD859C01AD012150310941095109E8
S11337D08E859F85A889B989B095A0959095819586
S11337E09F4FAF4FBF4F82239323A423B5232A892E
S11337F03B89F90186839783A087B1878A899B894E
S1133800FC0186819781A085B1852C893D894E89EB
S11338105F8979018A01E81AF90A0A0B1B0BD8019E
S1133820C7018C8B9D8BAE8BBF8B8A899B89FC01D6
S113383082899389A489B58989839A83AB83BC835C
S113384063C08A899B89FC0186859785A089B18993
S113385089839A83AB83BC8389819A81AB81BC8140
S1133860892B8A2B8B2B09F044C08A899B89FC0104
S11338708081918140E050E0BA010E948E09DC0110
S1133880CB0189839A83AB83BC8389819A81AB8181
S1133890BC810197A105B10561F48A899B89FC016A
S11338A08481282F20688A899B89FC01248382E0F3
S11338B0AFC189819A81AB81BC818F3F9F4FAF4F4C
S11338C0BF4F61F48A899B89FC018481282F206879
S11338D08A899B89FC01248381E09AC12A893B89D6
S11338E089819A81AB81BC81F90186879787A08BF6
S11338F0B18B2A893B8989819A81AB81BC81F90189
S1133900828B938BA48BB58B89819A81AB81BC818B
S1133910892B8A2B8B2B09F426C1B4C08A899B89F5
S1133920FC018481882F90E082709927892B29F1EA
S11339308A899B89FC012081318189819A81AB81AB
S1133940BC81AC01BD01C9010E948E09DC01CB011F
S113395089839A83AB83BC8389819A81AB81BC813F
S1133960892B8A2B8B2BE9F48E859F85A889B989AD
S11339708C8B9D8BAE8BBF8B93C08A899B89FC01FA
S11339802081318189819A81AB81BC81AC01BD01E7
S1133990C9010E94C205DC01CB0189839A83AB83F0
S11339A0BC8389819A81AB81BC818F3F9F4FAF4F8C
S11339B0BF4F61F48A899B89FC018481282F206888
S11339C08A899B89FC01248381E022C189819A81AF
S11339D0AB81BC810297A105B10598F08A899B89C6
S11339E0FC0180819181FC01228D338D448D558DA4
S11339F089819A81AB81BC8182179307A407B5079B
S1133A0060F08A899B89FC018481282F20688A8937
S1133A109B89FC01248382E0FBC02A893B8989813C
S1133A209A81AB81BC81F901828B938BA48BB58B7A
S1133A308A899B89FC0126813781408551858E8541
S1133A409F85A889B989820F931FA41FB51F2A894E
S1133A503B89F90186839783A087B1872C893D89A7
S1133A604E895F898E859F85A889B98979018A01E4
S1133A70E81AF90A0A0B1B0BD801C7018C8B9D8B22
S1133A80AE8BBF8B2C893D894E895F898E859F853E
S1133A90A889B98982179307A407B50708F43ECF0C
S1133AA08A899B89FC0126813781408551858C89CF
S1133AB09D89AE89BF89820F931FA41FB51F2A89D0
S1133AC03B89F90186839783A087B1878C899D8977
S1133AD0AE89BF899170AA27BB27892B8A2B8B2B90
S1133AE009F441C08A899B89FC0120813181898143
S1133AF09A81AB81BC81AC01BD01C9010E946805FA
S1133B00DC01CB018D839E83AF83B8878D819E8139
S1133B10AF81B885892B8A2B8B2B61F48A899B8989
S1133B20FC018481282F20688A899B89FC012483D5
S1133B3082E06EC08C899D89AE89BF89072E79E0A9
S1133B40B695A795979587957A95D1F7702D2D8180
S1133B503E814F815885820F931FA41FB51F8D830B
S1133B609E83AF83B8878A899B89FC01868197816C
S1133B70A085B1859170AA27BB27892B8A2B8B2B13
S1133B80D9F08A899B89FC0126893789408D518D1A
S1133B908D819E81AF81B885281739074A075B0755
S1133BA059F02A893B898D819E81AF81B885F901BD
S1133BB0868B978BA08FB18F8A899B89FC01268184
S1133BC03781408551858A899B89FC01828593854B
S1133BD0A485B58582179307A407B507C0F48A891D
S1133BE09B89FC0186819781A085B1852A893B89BF
S1133BF0F90182879387A487B5878A899B89FC0109
S1133C008481282F20628A899B89FC0124838985E9
S1133C1067960FB6F894DEBF0FBECDBFDF91CF918C
S1133C201F910F91FF90EF900895CF93DF931F9210
S1133C30CDB7DEB7898389818E3F51F0698184E7EE
S1133C4094E00E947C02882321F40E948E3C01C0EF
S1133C5000000F90DF91CF910895CF93DF93CDB7FC
S1133C60DEB780E090E0DC01BC01CD01DF91CF91B3
S1133C700895CF93DF93CDB7DEB78EE490E02EE4C2
S1133C8030E0F90120812A60FC0120838AE490E07D
S1133C9020ED37E0FC013183208389E590E029E5BC
S1133CA030E0F90120812061FC01208383E490E06D
S1133CB02CE9FC01208385E490E025E430E0F9015F
S1133CC020812860FC01208389E590E029E530E02B
S1133CD0F90120812068FC01208385E490E025E43B
S1133CE030E0F90120812760FC0120830000DF918E
S1133CF0CF910895CF93DF931F92CDB7DEB78FE5B1
S1133D0090E0FC0180818983F8948CE490E0FC01CC
S1133D10118210828FE590E02981FC01208300004C
S1133D200F90DF91CF910895CF93DF9300D0CDB75B
S1133D30DEB78FE590E0FC0180818983F8948CE400
S1133D4090E0FC01808191818A838FE590E0298154
S1133D50FC01208320918F013091900140919101C9
S1133D605091920188EE93E0DC010E94BF3D9B01DB
S1133D70AC018A818695882F90E0A0E0B0E0820FA4
S1133D80931FA41FB51FBC01CD010F900F90DF91AD
S1133D90CF910895CF93DF931F92CDB7DEB78FE510
S1133DA090E0FC018081898380918F019091900142
S1133DB0A0919101B09192010196A11DB11D809332
S1133DC08F0190939001A0939101B09392018091FF
S1133DD08F0190919001A0919101B091920128EEF0
S1133DE033E040E050E0BC01CD010E94693DDC01BC
S1133DF0CB0121E0892B8A2B8B2B09F020E0822F29
S1133E0090E09C01990F440B550B80919301909184
S1133E109401A0919501B0919601820F931FA41F64
S1133E20B51F8093930190939401A0939501B0934F
S1133E3096018FE590E02981FC01208300000F901A
S1133E40DF91CF910895CF93DF93CDB7DEB782E3AF
S1133E5090E022E330E0F90120812B7FFC012083F4
S1133E6082E390E022E330E0F9012081277FFC0126
S1133E70208382E390E022E330E0F90120812F7E69
S1133E80FC01208381E390E021E330E0F90120810B
S1133E902460FC01208381E390E021E330E0F90118
S1133EA020812860FC01208381E390E021E330E05D
S1133EB0F90120812061FC0120838AE390E02AE358
S1133EC030E0F90120812F70FC0120838BE390E026
S1133ED02BE330E0F9012081206FFC0120830000F6
S1133EE0DF91CF910895CF93DF93CDB7DEB782E30F
S1133EF090E022E330E0F90120812B7FFC01208354
S1133F008AE390E02AE330E0F90120812F70FC017C
S1133F1020838BE390E02BE330E0F9012081206FD4
S1133F20FC01208382E390E022E330E0F901208168
S1133F302860FC01208382E390E022E330E0F90171
S1133F4020812061FC0120830000000000000000AB
S1133F50000000000000000000000000000000005D
S1133F600000000094C082E390E022E330E0F90115
S1133F7020812F7EFC01208300000000000000004F
S1133F80000000000000000000000000000000002D
S1133F90000000000000000000000000000000001D
S1133FA0000000000000000000000000000000000D
S1133FB082E390E022E330E0F90120812061FC01FA
S1133FC0208300000000000000000000000000004A
S1133FD000000000000000000000000000000000DD
S1133FE000000000000000000000000000000000CD
S1133FF00000000000000000000082E390E022E3E3
S113400030E0F90120812F7EFC01208300000000B4
S1134010000000000000000000000000000000009C
S1134020000000000000000000000000000000008C
S1134030000000000000000000000000000000007C
S11340400000000082E390E022E330E0F9012081E7
S11340502061FC012083000000000000000000003B
S1134060000000000000000000000000000000004C
S1134070000000000000000000000000000000003C
S1134080000000000000000000000000000089E3C0
S113409090E0FC01808188230CF465CF82E390E0FA
S11340A022E330E0F90120812F7EFC01208300000F
S11340B0DF91CF910895CF93DF931F92CDB7DEB7F1
S11340C089830E94731F82E390E022E330E0F901C8
S11340D020812B7FFC01208382E390E022E330E007
S11340E0F9012081277FFC01208382E390E022E311
S11340F030E0F90120812061FC0120838AE390E013
S11341002AE330E0F9012081206FFC0120838BE356
S113411090E02BE330E0F9012081322F3F702981B8
S1134120207F232BFC0120830000000000000000FE
S1134130000000000000000000000000000000007B
S1134140000000000000000000000000000000006B
S1134150000000000000000000000000000000005B
S113416082E390E022E330E0F90120812F7EFC011C
S11341702083000000000000000000000000000098
S1134180000000000000000000000000000000002B
S1134190000000000000000000000000000000001B
S11341A00000000000000000000082E390E022E331
S11341B030E0F90120812061FC0120838BE390E051
S11341C02BE330E0F9012081422F4F702981222F07
S11341D030E022953295307F3227207F3227242BFE
S11341E0FC0120830000000000000000000000002B
S11341F000000000000000000000000000000000BB
S113420000000000000000000000000000000000AA
S113421000000000000000000000000082E390E0C5
S113422022E330E0F90120812F7EFC0120838AE320
S113423090E02AE330E0F90120812F70FC01208313
S11342408BE390E02BE330E0F9012081206FFC0147
S1134250208300000F90DF91CF9108951F93CF9397
S1134260DF93CDB7DEB70E94731F8AE390E02AE3A1
S113427030E0F90120812F70FC0120838BE390E072
S11342802BE330E0F9012081206FFC01208382E3DD
S113429090E022E330E0F90120812B7FFC012083B0
S11342A082E390E022E330E0F90120812860FC0100
S11342B0208382E390E022E330E0F9012081206151
S11342C0FC0120830000000000000000000000004A
S11342D000000000000000000000000000000000DA
S11342E000000000000000000000000000000000CA
S11342F000000000000000000000000089E390E0DE
S1134300FC018081182F107F82E390E022E330E0EB
S1134310F90120812F7EFC012083000000000000B1
S11343200000000000000000000000000000000089
S11343300000000000000000000000000000000079
S11343400000000000000000000000000000000069
S1134350000082E390E022E330E0F9012081206153
S1134360FC012083000000000000000000000000A9
S11343700000000000000000000000000000000039
S11343800000000000000000000000000000000029
S113439000000000000000000000000089E390E03D
S11343A0FC01808182958F70882F90E0982F812F57
S11343B0892B182F82E390E022E330E0F901208179
S11343C02F7EFC012083812FDF91CF911F910895CF
S11343D0CF93DF931F92CDB7DEB789830E94731FFB
S11343E082E390E022E330E0F90120812460FC01C3
S11343F0208382E390E022E330E0F9012081277FEB
S1134400FC01208382E390E022E330E0F901208183
S11344102061FC0120838AE390E02AE330E0F90183
S11344202081206FFC0120838BE390E02BE330E0BC
S1134430F9012081322F3F702981207F232BFC0139
S113444020830000000000000000000000000000C5
S11344500000000000000000000000000000000058
S11344600000000000000000000000000000000048
S11344700000000000000000000082E390E022E35E
S113448030E0F90120812F7EFC0120830000000030
S11344900000000000000000000000000000000018
S11344A00000000000000000000000000000000008
S11344B000000000000000000000000000000000F8
S11344C00000000082E390E022E330E0F901208163
S11344D02061FC0120838BE390E02BE330E0F901C1
S11344E02081422F4F702981222F30E0229532956E
S11344F0307F3227207F3227242BFC0120830000C9
S113450000000000000000000000000000000000A7
S11345100000000000000000000000000000000097
S11345200000000000000000000000000000000087
S113453000000000000082E390E022E330E0F90193
S113454020812F7EFC0120838AE390E02AE330E07F
S1134550F90120812F70FC0120838BE390E02BE391
S113456030E0F9012081206FFC01208300000F90CE
S1134570DF91CF910895CF93DF93CDB7DEB70E943B
S1134580231F88E20E945B2081E00E945B2080E67A
S11345909AEE0E94463986E00E945B208CE00E94DD
S11345A05B2082E00E945B2080E80E945B2040E068
S11345B060E082E791E00E943F2341E061E082E70E
S11345C091E00E943F2342E062E082E791E00E9492
S11345D03F2343E063E082E791E00E943F2344E00D
S11345E064E082E791E00E943F2345E065E082E7D2
S11345F091E00E943F2346E066E082E791E00E945A
S11346003F2347E067E082E791E00E943F230000F8
S1134610DF91CF9108951F93CF93DF9300D0CDB74F
S1134620DEB789836A838A81882F90E0813091057F
S113463071F0823091051CF4892B39F014C082305A
S1134640910549F0039759F00EC019810DC0898175
S113465010E4180F09C0898114E1180F05C089817D
S113466014E5180F01C01981812F80680E945B2016
S113467000000F900F90DF91CF911F9108951F9329
S1134680CF93DF93CDB7DEB728970FB6F894DEBF8C
S11346900FBECDBF9E838D836F8348870E942E21DA
S11346A08F7789838885880F880F880F88878F8103
S11346B0880F880F880F8F8310E01DC08885810FB5
S11346C080640E945B208F81282F30E0812F90E04E
S11346D0820F931F2D813E81820F931F9B838A83B8
S11346E08A819B81FC0184918C838C810E94E821C6
S11346F0812F11E0180F183008F3898180680E9417
S11347005B20000028960FB6F894DEBF0FBECDBF25
S1134710DF91CF911F9108951F93CF93DF9300D022
S11347201F92CDB7DEB79A8389836B8389819A817F
S1134730892B99F010E00DC0812F90E029813A81F6
S1134740820F931FFC0180810E94E821812F11E0D8
S1134750180F8B81181780F301C000000F900F9081
S11347600F90DF91CF911F910895CF93DF93CDB731
S1134770DEB7C757D2400FB6F894DEBF0FBECDBF29
S113478019821B821A82CE018E509E4FFC01108228
S1134790CE018D509E4FFC0110828FEF8C838AE3F3
S11347A090E02AE330E0F90120812260FC012083BB
S11347B00E94391E0E94BB220E948A3B0E94C6307E
S11347C00E94CB380E941C0185E00E94510181E0C7
S11347D00E94680180E00E948A010E94A2016CE9A3
S11347E078E386E00E947A396AEC7EE182E00E94F6
S11347F07A3962E17AE780E090E00E94DD3B85E16E
S11348009EE10E94CA3B0E948E3C60E080E00E94D0
S11348100B236EE272E080E00E94B315882331F02E
S11348206CE080E790E00E948C2305C068E08DE78F
S113483090E00E948C2361E080E00E940B23CE0173
S1134840845D9D4F41E066E870E00E94F3158D831E
S11348508D81882331F06BE08FE890E00E948C23F7
S113486005C067E08BE990E00E948C23CE01845D53
S11348709D4F0E94001BCE0106964BED51E060E077
S113488070E00E94CA3DCE01069666E870E00E9480
S11348905B29CE0106960E940428019631F06BE054
S11348A08FE890E00E948C23FFCFCE01069662EF42
S11348B071E30E94AB24CE01069665EE71E30E947B
S11348C0DD24CE01069668ED71E30E94C424CE0176
S11348D0885B9F4FFC011082CE01875B9F4FFC01D8
S11348E0108283E298E0A0E0B0E09E01235C3F4F99
S11348F0F90180839183A283B3830E947A1E1BC033
S1134900CE0106960E9465270E949A3C882399F45A
S11349100E94533C8983CE018E509E4FBC018981F5
S11349200E94D130813039F4CE018E509E4FFC016B
S113493080810E946431CE0106960E943C26882321
S1134940F9F2CE0106960E942F2568E083EA90E0F2
S11349500E948C23FFCFCF93DF9300D000D0CDB73C
S1134960DEB79A8389837C836B8389819A812B81C7
S11349703C81FC013183208300000F900F900F9045
S11349800F90DF91CF910895CF93DF9300D000D0A3
S1134990CDB7DEB79A8389837C836B8389819A81BF
S11349A02B813C81FC013583248300000F900F9000
S11349B00F900F90DF91CF910895CF93DF9300D0A4
S11349C000D0CDB7DEB79A8389837C836B838981DA
S11349D09A812B813C81FC013383228300000F9058
S11349E00F900F900F90DF91CF910895CF93DF93A5
S11349F000D01F92CDB7DEB79B838A83198214C07F
S1134A008981282F30E049E1429FC001439F900DE6
S1134A101124855B9F4F2A813B81820F931F0E9443
S1134A206B2A89818F5F89838A819B81FC0194A988
S1134A308981891728F30E94941EDC01CB012A8105
S1134A403B81235C3F4FF90180839183A283B3832D
S1134A5000000F900F900F90DF91CF910895CF93A6
S1134A60DF9300D01F92CDB7DEB79B838A83198270
S1134A7014C08981282F30E049E1429FC001439F3F
S1134A80900D1124855B9F4F2A813B81820F931FD8
S1134A900E944A2A89818F5F89838A819B81FC01D4
S1134AA094A98981891728F38A819B81FC0114AA1E
S1134AB08A819B818F5B9F4FFC0110828A819B813D
S1134AC08E5B9F4FFC0110828A819B816CEA70E0AF
S1134AD00E945B298A819B8106960E94001B00002C
S1134AE00F900F900F90DF91CF910895CF93DF93A4
S1134AF000D000D0CDB7DEB79A8389836B834C8313
S1134B0089819A81885B9F4F2B81FC012083898155
S1134B109A81875B9F4F2C81FC01208389819A8134
S1134B200E94CB2500000F900F900F900F90DF9103
S1134B30CF910895CF93DF9300D000D000D0CDB7AC
S1134B40DEB79A8389834B835C836D837E8380E0A5
S1134B5097E8A3E9B3E02B813C814D815E81BC01E0
S1134B60CD010E94693DDA01C9019C0189819A81C4
S1134B708C5B9F4FFC013183208389819A810E9441
S1134B80CB25000026960FB6F894DEBF0FBECDBF2E
S1134B90DF91CF910895CF93DF9300D0CDB7DEB7E7
S1134BA09A83898389819A818C5B9F4FFC018081E0
S1134BB0918129813A812A5B3F4FF901208131811A
S1134BC0820F931F892B09F451C089819A81FC01BA
S1134BD085A996A9892B09F449C089819A81875BA3
S1134BE09F4FFC018081882309F440C089819A8108
S1134BF08C5B9F4FFC018081918129813A812A5BE2
S1134C003F4FF90120813181820F931F9C0140E0C5
S1134C1050E080E097E8A3E9B3E0BC01CD010E9435
S1134C208B3DDA01C90129813A81F90187AB90AF43
S1134C30A1AFB2AF89819A81FC0187A990ADA1ADE2
S1134C40B2AD29813A81F90125A936A9990140E03B
S1134C5050E0BC01CD010E94693DDA01C9012981FE
S1134C603A81F90187AB90AFA1AFB2AF00000F90CA
S1134C700F90DF91CF910895CF93DF9300D000D0B0
S1134C80CDB7DEB79C838B8381E089831A821FC0F2
S1134C908A81282F30E049E1429FC001439F900D53
S1134CA01124855B9F4F2B813C81820F931F0E94AF
S1134CB05B2A882331F08981882319F081E090E010
S1134CC002C080E090E089838A818F5F8A838B8130
S1134CD09C81FC0194A98A81891718F4898188230D
S1134CE0B9F68981882369F08B819C818D5B9F4F04
S1134CF0FC018081882329F08B819C810E94892674
S1134D00198289810F900F900F900F90DF91CF91AE
S1134D100895CF93DF9300D01F92CDB7DEB79B8366
S1134D208A838A819B818D5B9F4FFC0180818823CC
S1134D3049F08A819B81FC0184A9823018F081E0CA
S1134D4090E002C080E090E0898314C08981282F1C
S1134D5030E049E1429FC001439F900D1124855BDF
S1134D609F4F2A813B81820F931F0E947F2A898152
S1134D708F5F89838A819B81FC0194A9898189172A
S1134D8028F38A819B818F5B9F4FFC011082000076
S1134D900F900F900F90DF91CF910895EF92FF92B3
S1134DA00F931F93CF93DF93CDB7DEB72C970FB636
S1134DB0F894DEBF0FBECDBF9C878B871A82198201
S1134DC00E94941EDC01CB018B839C83AD83BE8344
S1134DD08B859C85FC0183AD94AD9C0140E050E043
S1134DE08B819C81AD81BE81280F391F4A1F5B1FB7
S1134DF08B859C85CD96FC0180819181A281B381B4
S1134E0079018A01E81AF90A0A0B1B0BD801C701B8
S1134E108F839887A987BA878B859C85FC0127A9EE
S1134E2030AD41AD52AD8F819885A985BA85821781
S1134E309307A407B507D0F18B859C85FC0127A9AE
S1134E4030AD41AD52AD8F819885A985BA85BC013D
S1134E50CD010E94693DDA01C9019A8389832F81BA
S1134E6038858B859C85FC0187A990ADA1ADB2AD39
S1134E70BC0149815A81649FC001659F900D749F54
S1134E80900D1124281B390B8B859C85FC0134AFB4
S1134E9023AF0E94941EDC01CB012B853C85235C4F
S1134EA03F4FF90180839183A283B38389819A81DF
S1134EB02C960FB6F894DEBF0FBECDBFDF91CF9115
S1134EC01F910F91FF90EF900895CF93DF9300D03F
S1134ED000D0CDB7DEB79C838B838B819C818E5BA6
S1134EE09F4FFC018081882311F080E027C08B81D3
S1134EF09C818F5B9F4FFC018081882359F48B81B7
S1134F009C810E94F6248B819C818F5B9F4F21E0C2
S1134F10FC0120838B819C810E94CE269A83898305
S1134F2089819A81892B11F480E008C029813A8112
S1134F308B819C81B9010E94A52781E00F900F907D
S1134F400F900F90DF91CF910895CF93DF93CDB75A
S1134F50DEB728970FB6F894DEBF0FBECDBF9E8391
S1134F608D8378876F8319823CC01A821B822CC080
S1134F708981882319F44F81588502C040E050E0AC
S1134F808B81282F30E069E1629FC001639F900DFF
S1134F901124855B9F4F2D813E81280F391F8D8100
S1134FA09E81B9010E949E2A8C838A81882319F4E8
S1134FB08C81882319F081E090E002C080E090E0C9
S1134FC08A838B818F5F8B838D819E81FC0194A961
S1134FD08B81891768F28A81882359F089818F5FD0
S1134FE089838981843630F48A81882309F4BDCF8A
S1134FF001C00000000028960FB6F894DEBF0FBE73
S1135000CDBFDF91CF910895CF93DF93CDB7DEB7B6
S113501065970FB6F894DEBF0FBECDBF9D8B8C8B0A
S11350208C899D89FC0186A1882319F480E090E095
S113503039C18C899D899C012A5D3F4F8C899D894A
S1135040069641E0B9010E94F3158E838E81882370
S113505019F082E090E026C18C899D8906969E0114
S1135060255F3F4FBE01615F7F4F44E050E00E94E7
S1135070A8171B8ACE010F966DEA70E00E94D13DFD
S1135080892B41F08C899D8906960E94001B83E040
S113509090E008C18C899D89069664E00E94792974
S11350A0DC01CB018B879C87AD87BE878B859C8574
S11350B0AD85BE850697A105B10541F08C899D8912
S11350C006960E94001B84E090E0ECC08C899D89C8
S11350D0069662E00E947929DC01CB019A838983D8
S11350E089819A81892B61F089819A81019741F0A4
S11350F08C899D8906960E94001B85E090E0D2C0B1
S113510029818C899D89FC0123AB8C899D89069614
S113511062E00E947929DC01CB019A8389838C891E
S11351209D89FC0183A9882361F489819A8101976F
S113513041F08C899D8906960E94001B86E090E0D0
S1135140B1C089819A81419740F08C899D890696E6
S11351500E94001B87E090E0A5C029818C899D896D
S1135160FC0124AB8C899D89069662E00E94792912
S1135170DC01CB019A83898389819A8199230CF07C
S113518046C089819A81892F99279C838B83898141
S11351909A81992798878F838B819C81833E91057F
S11351A0B9F0843E910524F4823E9105B1F01AC011
S11351B0873E910541F0883E9105A1F488E190E095
S11351C09C838B8317C089E190E09C838B8312C0FE
S11351D08DE190E09C838B830DC08EE190E09C83F5
S11351E08B8308C08C899D8906960E94001B87E0EA
S11351F090E058C04B815C812F813885429FC0016B
S1135200439F900D529F900D11249A8389838C891A
S11352109D8929813A81FC0136AB25AB8C899D8916
S11352200E94CB251D8235C08D81282F30E049E1B5
S1135230429FC001439F900D1124855B9F4F2C8991
S11352403D89820F931F2C893D89A9016D810E949C
S11352503A309A87898789859A850196B9F08C892D
S11352609D8906960E94001B8D81882F90E00196EF
S1135270880F991F9C01220F331F220F331F280F01
S1135280391F89859A85820F931F0CC08D818F5F8A
S11352908D838C899D89FC0194A98D81891720F2C5
S11352A08FEF9FEF65960FB6F894DEBF0FBECDBFAC
S11352B0DF91CF910895CF93DF9300D000D0CDB785
S11352C0DEB79A8389837C836B838B819C81892B52
S11352D041F089819A8186962B813C81B9010E9493
S11352E0DA3D00000F900F900F900F90DF91CF9157
S11352F00895CF93DF93CDB7DEB72B970FB6F8940D
S1135300DEBF0FBECDBF9A8789876B8719821A8249
S11353101B821C821D8224C09E01295F3F4FBE0157
S11353206A5F7F4F89859A8541E050E00E94A81703
S113533089819A81AB81BC812227382F492F5A2F2A
S11353408E81882F90E0A0E0B0E0820F931FA41F0D
S1135350B51F89839A83AB83BC838D818F5F8D83D3
S11353609D818B859817C0F289819A81AB81BC811C
S1135370BC01CD012B960FB6F894DEBF0FBECDBF96
S1135380DF91CF910895CF93DF93CDB7DEB72A97FE
S11353900FB6F894DEBF0FBECDBF9A8789871982F6
S11353A01A821B821C829E01295F3F4FBE016A5FE5
S11353B07F4F89859A8541E050E00E94A8178D832C
S11353C089819A81AB81BC81880F991FAA1FBB1F59
S11353D0880F991FAA1FBB1F880F991FAA1FBB1FE5
S11353E0880F991FAA1FBB1F880F991FAA1FBB1FD5
S11353F0880F991FAA1FBB1F880F991FAA1FBB1FC5
S11354009C01AD018E81882F90E0A0E0B0E08F7701
S11354109927AA27BB27820F931FA41FB51F89832F
S11354209A83AB83BC838E8188230CF4BCCF89819F
S11354309A81AB81BC81BC01CD012A960FB6F89448
S1135440DEBF0FBECDBFDF91CF910895CF93DF9321
S113545000D0CDB7DEB79A83898389819A81FC0114
S1135460118212821382148289819A81FC0115822D
S113547016821782108689819A810E947F2A8981E7
S11354809A812FEFFC01208300000F900F90DF9191
S1135490CF910895CF93DF9300D0CDB7DEB79A8331
S11354A0898389819A810E94262A00000F900F9097
S11354B0DF91CF910895CF93DF9300D0CDB7DEB7BE
S11354C09A83898389819A81FC0185850F900F9045
S11354D0DF91CF910895CF93DF9300D0CDB7DEB79E
S11354E09A83898389819A81FC0116861786108A9A
S11354F0118A00000F900F90DF91CF910895CF9300
S1135500DF9300D0CDB7DEB79A83898389819A81EE
S1135510FC01118612861386148689819A81FC0106
S1135520158689819A81FC0116861786108A118A4C
S113553000000F900F90DF91CF910895EF92FF92AA
S11355400F931F93CF93DF93CDB7DEB72A970FB690
S1135550F894DEBF0FBECDBF9E838D8378876F83A3
S11355605A8749878F819885FC018585882311F0A6
S113557080E0B1C08F819885FC0125813681478107
S113558050858F819885FC0181859285A385B4859A
S1135590820F931FA41FB51F2D813E812A5F3F4FA9
S11355A0AC01BD01C9010E941C1B8F819885FC01BF
S11355B0268537854089518989859A85CC01A0E063
S11355C0B0E0820F931FA41FB51F2F813885F90106
S11355D086879787A08BB18B8D819E8106960E94CA
S11355E0C329DC01CB0189839A83AB83BC838F817C
S11355F09885FC01268537854089518989819A815E
S1135600AB81BC81281739074A075B0710F480E097
S113561062C08F819885FC01268537854089518930
S113562089819A81AB81BC8179018A01E81AF90ADE
S11356300A0B1B0BD801C7012F813885F901868716
S11356409787A08BB18B2F8138858D819E81B9017D
S11356500E94782B8D819E81FC01248535854685A9
S113566057858F819885FC0185819681A781B085B6
S113567079018A01E81AF90A0A0B1B0BD801C70140
S11356802F813885F90181879287A387B4878F8119
S11356909885FC018585882399F48F819885FC0180
S11356A021853285438554858F819885FC018181CC
S11356B09281A381B481281739074A075B0718F040
S11356C081E090E002C080E090E0282F8F819885EF
S11356D0FC01258781E02A960FB6F894DEBF0FBE41
S11356E0CDBFDF91CF911F910F91FF90EF9008955F
S11356F0CF93DF93CDB7DEB7C957D1090FB6F8946E
S1135700DEBF0FBECDBF9E012A583F4FF9019183E2
S11357108083CE0188589F4FFC0171836083CE0142
S11357208A589F4FFC018081918106969E012A5ED2
S11357303F4FBE016B5E7F4F41E050E00E94A817CF
S11357408D89882F90E0803E910564F4803C91051A
S11357500CF09BC099230CF46FC4803891050CF4B1
S113576000C110C0803F910509F45BC1803F9105E1
S11357704CF0873F910509F454C18F3F910509F41A
S1135780FEC15AC4CE0188589F4FFC01808191818B
S113579023E0FC01248B2D89CE0188589F4FFC0106
S11357A080819181FC01258BCE0188589F4FFC019B
S11357B080819181FC018589282F2F70CE01885822
S11357C09F4FFC0180819181FC01238BCE0188587D
S11357D09F4FFC0180819181FC018589282F207FC6
S11357E0CE0188589F4FFC0180819181FC01258B5B
S11357F0CE0188589F4FFC0180819181BC016A5E73
S11358007F4FCE018A589F4FFC018081918106967B
S11358109E012A5E3F4F41E050E00E94A817CE014E
S113582088589F4FFC0180819181BC01695E7F4F44
S1135830CE018A589F4FFC018081918106969E017A
S11358402A5E3F4F41E050E00E94A817CE018A58DB
S11358509F4FFC0180819181FC0180819181892B82
S113586009F4F4C3CE018A589F4FFC0180819181D1
S1135870FC0120813181CE0188589F4FFC01808139
S113588091814296F9010995E1C3CE0188589F4F51
S1135890FC018081918122E0FC01248B2D89CE01C1
S11358A088589F4FFC0180819181FC01258BCE019A
S11358B088589F4FFC0180819181FC018589282FA4
S11358C02F70CE0188589F4FFC0180819181FC018B
S11358D0238BCE0188589F4FFC0180819181FC016C
S11358E08589282F207FCE0188589F4FFC01808115
S11358F09181FC01258BCE0188589F4FFC0180814A
S11359009181BC016A5E7F4FCE018A589F4FFC0192
S11359108081918106969E012A5E3F4F41E050E0CE
S11359200E94A817CE018A589F4FFC018081918163
S1135930FC0180819181892B09F48AC3CE018A58A4
S11359409F4FFC0180819181FC0120813181CE0136
S113595088589F4FFC01808191814296F9010995F5
S113596077C32D89CE0188589F4FFC018081918196
S1135970FC01268B82E089831AC0CE0188589F4F90
S1135980FC0180819181BC016A5E7F4FCE018A58FF
S11359909F4FFC018081918106969E012A5E3F4FB4
S11359A041E050E00E94A81789818F5F8983CE016E
S11359B088589F4FFC0180819181FC0194898981E1
S11359C08917D8F21A8203C08A818F5F8A83CE0135
S11359D088589F4FFC0180819181FC0194898A81C0
S11359E0891790F3CE018A589F4FFC0180819181E1
S11359F0FC0180819181892B09F42CC3CE018A5842
S1135A009F4FFC0180819181FC0120813181CE0175
S1135A1088589F4FFC01808191814296F901099534
S1135A2019C31C821B82CE0188589F4FFC018081C0
S1135A309181FC0180818C8FCE018A589F4FFC019B
S1135A408081918106960E94C329DC01CB0188875D
S1135A509987AA87BB87888599859E8F8D8F8D8925
S1135A60803FA1F48B819C819C012F5F3F4F3C833D
S1135A702B834D899E01215E3F4F820F931FFC01B2
S1135A8040838D8D9E8D01969E8F8D8F8D8D9E8DE5
S1135A908333910510F082E390E09D878C878B819E
S1135AA09C819E838D831CC09E01245E3F4F8D810B
S1135AB09E810396B901680F791FCE018A589F4FC2
S1135AC0FC018081918106969E012A5E3F4F41E050
S1135AD050E00E94A8178D819E8101969E838D833C
S1135AE02D813E818C859D8528173907E8F22D8DFF
S1135AF03E8D8C859D858217930738F5CE018A5893
S1135B009F4FFC0180819181FC0124853585468568
S1135B1057856D8D7E8D8C859D85FB01E81BF90B6A
S1135B20CF01CC01A0E0B0E0820F931FA41FB51FEA
S1135B309E012A583F4FF901208131812A5F3F4F4E
S1135B40AC01BD01C9010E941C1BCE018A589F4FA4
S1135B50FC0180819181FC0182819381892B09F46C
S1135B607BC2CE018A589F4FFC0180819181FC0148
S1135B7022813381CE014C96F90109956DC2CE0183
S1135B808A589F4FFC018081918106969E012A5E6E
S1135B903F4FBE016B5E7F4F41E050E00E94A8176B
S1135BA0CE018A589F4FFC018081918106960E9404
S1135BB0C329DC01CB0188879987AA87BB87CE01DB
S1135BC088589F4FFC0180819181FC0180818C8FDA
S1135BD0888599859E8F8D8F8D898F8F8D89882F4C
S1135BE090E08F329105D9F08033910564F48032CE
S1135BF0910509F487C18132910509F491C1892B7A
S1135C0009F46AC19BC18835910509F445C08935F9
S1135C10910509F4A3C08135910559F08FC1CE01D6
S1135C2088589F4FFC018081918121E0FC012587E8
S1135C30EAC1CE018A589F4FFC018081918106966A
S1135C4063E00E947929DC01CB018E879F87A88BB2
S1135C50B98B8E859F85A889B9899E012A583F4FA3
S1135C60F90120813181AC01BD01C9010E949A254D
S1135C708E859F85A889B989CD01AA27BB2788A3CA
S1135C808E859F85A889B989892F9A2FAB2FBB2729
S1135C9089A38E858AA3B7C1CE018A589F4FFC0180
S1135CA08081918106969E012A5E3F4FBE01685E07
S1135CB07F4F41E050E00E94A817CE018A589F4FC1
S1135CC0FC018081918106969E012A5E3F4FBE01B0
S1135CD0675E7F4F41E050E00E94A817898D282F0E
S1135CE030E081E090E002C0880F991F2A95E2F726
