:100000000C9487010C94A4010C94A4010C94A401F9
:100010000C947B340C9487330C944E340C94F4334E
:100020000C9421340C945A330C94C7330C9407333A
:100030000C94A4010C948A350C94A4010C944F35B3
:100040000C94E2010C94A4010C94A4010C94A4015E
:100050000C94A401A31D551FB41DC51D211E541EC3
:100060006B1EA81EBF1E9B1D102635252E2527257D
:100070002025192512250B25F626F626F626F62626
:10008000F626F626F626F626F626F626F626F62690
:10009000F626F626F626F626F626F626F626F62680
:1000A000F626F626F626F62617261D26F626F62628
:1000B000F626F626F626F626F626F626F626F62660
:1000C000F626F626F6263C25F626F626F626F6260B
:1000D000F626F626F626F626F626F626F626F62640
:1000E000F626F626F626F626F626F626F626F62630
:1000F000F626F626F626F626F626F626F626F62620
:10010000F626F626F626F626F6264125F626F626C5
:100110000425F626F626F62653259025F626F626FD
:10012000F626F626F626F626F626F626F626F626EF
:10013000F626F626F626F626F626F626F626F626DF
:10014000F626F626F626F626F626F626F626F626CF
:10015000F626F626F626F626F626F626F626F626BF
:10016000F626F626F626FD24E328E528E528E528E8
:10017000E528E528E528E528E528E528E528E52817
:10018000E528E528E528E528E328E528E528E52809
:10019000E528E528E528E528E528E528E528E528F7
:1001A000E528E528E528E528E328E528E528E528E9
:1001B000E528E528E528E528E528E528E528E528D7
:1001C000E528E528E528E528E328E528E528E528C9
:1001D000E528E528E528E528E528E528E528E528B7
:1001E000E528E528E528E528E128E528E528E528AB
:1001F000E528E528E528E528E528E528E528E52897
:10020000E528E528E528E528E128E528E528E5288A
:10021000E528E528E528E528E528E528E528E52876
:10022000E528E528E528E528E328E528E528E52868
:10023000E528E528E528E528E528E528E528E52856
:10024000E528E528E528E528E528E128E328E12850
:10025000E528E528E728E528E728E728E728E7282C
:10026000E728E528E728E7282F2C382C9F2CA62CF8
:100270008A2D8A2D8A2D8A2D8A2D8A2D352D3B2D6A
:100280004E2D612D762D001F000000001F00001F65
:10029000101010101F00001F181818181F00001F42
:1002A0001C1C1C1C1F00001F1E1E1E1E1F00001FEA
:1002B0001F1F1F1F1F0003070F1F0F070300001F33
:1002C0001F1F1F1F1F001B1B1B1B1B1B1B00181CA2
:1002D0001E1F1E1C18000004040E0E1F1F00001F0E
:1002E0001F0E0E0404000000000000000000000EBD
:1002F0001915130E0000000E1515150E0000000E46
:100300001315190E0000000E111F110E000011240C
:100310001FBECFE5D8E0DEBFCDBF11E0A0E6B0E064
:10032000ECE8F2E702C005900D92AC37B107D9F7BF
:1003300024E0ACE7B1E001C01D92AF3BB207E1F7AA
:100340000E94D21C0C9444390C94000096B1987F02
:10035000892B86B9089527B12F7330E4839FC0019C
:100360001124822B87B90895379A359886E00E9428
:10037000A60181E00E94AB013D98339A109256028B
:100380007894089597B1907E8F71892B87B90895DD
:10039000349A369A08951092560297B1907E8F71D2
:1003A000892B87B9349A369A3699FECF84B125B114
:1003B00090E0922B08950E94CB0196958795969593
:1003C000879508951F920F920FB60F9211248F9365
:1003D00081E0809356028F910F900FBE0F901F9077
:1003E0001895FC018FB7F89471836083538342831F
:1003F00017821682158214828FBF0895FC019FB761
:10040000F8944481558141155105C9F02681378101
:10041000A081B181A20FB31F8C912F5F3F4F378313
:100420002683628173812617370720F0261B370B3E
:1004300037832683415051095583448301C080E0AE
:100440009FBF0895CF93FC01C62F4FB7F894248126
:100450003581628173812617370798F486819781E9
:10046000820F931F0E946537A081B181A80FB91F29
:10047000CC93848195810196958384834FBF8FEFC0
:1004800002C04FBF80E0CF910895CF93DF934230F9
:100490005105C0F0DB01FC019A01CD91DD91C193C2
:1004A000D1932250310922303105B8F79A012250F8
:1004B00031092E7F2E5F3F4F820F931F620F731FF4
:1004C000417055274115510549F0DB01FC01480FEA
:1004D000591F9D919193E417F507D9F7DF91CF91BB
:1004E00008950F931F93CF93DF93FB013996DC019F
:1004F0001E960D911D912D913C915197012B022B30
:10050000032B09F451C052964D915C915397EA0127
:1005100088818032B9F09A012F5F3F4FDB015196FD
:1005200095EE05C0E90189919E01803269F0853020
:1005300009F4892F3196EF0121978883EA17FB0789
:1005400089F703C0DF0101C0DF01FA018085803235
:1005500069F08EE28C938085803241F5FD01319601
:1005600006C0FD01349613968C9301C0FD01DA019B
:100570001B968C911B97EB0188875C968D919D91C2
:100580000D90BC91A02D88839983AA83BB83DA0147
:1005900058968D919C9159979D838C8356968D91F9
:1005A0009C9157979F838E83108211C0FD013296D4
:1005B00011968C931197EA0189858032C1F23196A8
:1005C00012968C9312978A85803259F6D0CFDF919C
:1005D000CF911F910F9108954F925F926F927F92EA
:1005E000AF92BF92CF92DF92EF92FF920F931F9341
:1005F000CF93DF93FC01C6A4D7A4E0A8F1A8C4164A
:10060000D506E606F70609F44FC02A013B01EC01C6
:1006100084818823A1F15F01F2E3AF0EB11C01E0F8
:10062000A7019601B50189810E94932B81113EC0DB
:100630001C824AA15BA16CA17DA18E8D9F8DA8A17A
:10064000B9A1840F951FA61FB71FC816D906EA06C1
:10065000FB06A8F41B81123090F08E8D9F8DA8A10F
:10066000B9A1C80ED91EEA1EFB1E01E0A701960122
:10067000B50189810E94932B1150113071F74114FB
:10068000510461047104A1F001E0A3019201BE01D3
:100690006E5C7F4F89810E94402B81110BC04EA65A
:1006A0005FA668AA79AA07C080E005C081E003C000
:1006B00080E001C081E0DF91CF911F910F91FF9009
:1006C000EF90DF90CF90BF90AF907F906F905F9052
:1006D0004F9008950F93CF93DF93EC019A01AB01F4
:1006E000BC016E5C7F4F01E089810E94402B81112B
:1006F00023C0FE01E05DFD4F8081918185359A4ADE
:10070000E9F4E85CF14080819181A281B381BB274B
:1007100086349144A445B10599F0CC57DF4F488108
:1007200059816A817B81772781E046345144644551
:10073000710539F480E005C083E003C082E001C0A8
:1007400080E0DF91CF910F910895009781F0FC0137
:100750002081222371F0268137812617370759F42B
:1007600081810E94392B80FD08C080E0089589E0D6
:10077000089589E0089589E0089583E008952F920F
:100780003F924F925F926F927F928F929F92AF9221
:10079000BF92CF92DF92EF92FF920F931F93CF936E
:1007A000DF93CDB7DEB72E970FB6F894DEBF0FBE3E
:1007B000CDBFDC01ED91FC911197208130E02053F9
:1007C00031092A30310538F451815A3321F43296F7
:1007D000ED93FC9303C020917C0130E0232B09F0C2
:1007E000C0C1E0917F01F0918001FE87ED87DB01C0
:1007F000ED93FC93309709F4B6C1142F80818823C0
:1008000061F081810E94392B80FD07C0112309F41A
:10081000ACC182FFACC18AE07FC2ED85FE8510824B
:10082000118280E00E94782A80FDA3C1112311F07B
:1008300082FDA1C140E050E0BA018D859E850E94F5
:100840006A038130B9F4ED85FE85EC50FE4F80815E
:10085000882309F492C1ED85FE85E850FE4FC080E3
:10086000D180E280F380B701A6018D859E850E942C
:100870006A0303C0C12CD12C7601833009F47FC1F7
:1008800081117FC1AD85BE85DD968D919C91DE97EE
:100890008115924009F077C1ED85FE85E85BFF4F39
:1008A00040805180612C712C411451046104710409
:1008B00041F4ED85FE85EA5AFF4F40805180628009
:1008C0007380ED85FE85468E578E60A271A2EE5B29
:1008D000FF4FA081ED85FE85A3838FEF8A0F8230C5
:1008E00008F053C117AD1283112309F450C1812FB1
:1008F00090E09C012150310982239323892B09F038
:1009000048C1ED5BFF4F20803180ED85FE8531864B
:100910002086C1018F709927892B09F03CC1EB5BC0
:10092000FF4F80809180A12CB12C81149104A104EF
:10093000B10441F4ED85FE85EE5AFF4F8080918031
:10094000A280B380ED85FE85E05CFF4F0190F081D1
:10095000E02D309709F421C1B0E0A30192010E947B
:10096000CF3769877A878B879C879F0140E050E06B
:100970002D833E834F835887C101929582958F7056
:1009800089279F708927280F391F411D511DDA01C2
:10099000C90129853A854B855C85280F391F4A1F77
:1009A0005B1F29833A834B835C8382169306A406DC
:1009B000B50608F4F4C0C501B401621B730B840BC7
:1009C000950B212F30E040E050E00E947937DA01AA
:1009D000C901211531054105510509F4E2C0263F41
:1009E0006FE036074105510508F08EC1F1E08DC179
:1009F000ED85FE85E25AFF4F80819181A281B3810E
:100A0000ED85FE8586A397A3A0A7B1A7880C991CA6
:100A1000AA1CBB1C880C991CAA1CBB1CFFEF8F0EC8
:100A2000F1E09F1EA11CB11C072E79E0B694A7949B
:100A3000979487947A95D1F7702D481459046A04D5
:100A40007B0408F4B0C007C129853A854B855C85D5
:100A5000C20ED31EE41EF51EAD85BE859696CD92C0
:100A6000DD92ED92FC929997F23029F4880C991C52
:100A7000AA1CBB1CDAC0A3E0B0E0A50194010E944F
:100A8000CF37DC01CB01B695A79597958795E1E027
:100A90008E229924AA24BB24880E991EAA1EBB1E4E
:100AA000C4C0ED85FE85E05DFD4F80819181853577
:100AB0009A4AA1F5ED85FE8582A993A9A4A9B5A9B5
:100AC00082359245A146B14459F5ED85FE85EA5E31
:100AD000FD4F80819181A281B38182379247A144E9
:100AE000B14601F5ED85FE85E25EFD4F8081918185
:100AF000A281B381ED85FE8582879387A487B58720
:100B0000E65EFD4F80819181A281B381ED85FE85F6
:100B100086879787A08BB18BF3E005C0F3E003C015
:100B2000F3E001C0F3E0AD85BE85FC9380917D01CB
:100B300090917E01019690937E0180937D0117969E
:100B40009C938E931697FD0116A617A610AA11AABC
:100B5000148256961D921D921D921C92599780E008
:100B6000DBC08BE0D9C08CE0D7C080E0D5C080E08E
:100B7000D3C083E0D1C08AE0CFC08DE0CDC081E09A
:100B8000CBC08DE0C9C08DE0C7C08DE0C5C08DE091
:100B9000C3C08DE0C1C08DE0BFC08DE0BDC08DE0A1
:100BA000BBC08DE0B9C08DE0B7C08DE0B5C08DE0B1
:100BB000B3C08DE0B1C049015A01B2E08B0E911C67
:100BC000A11CB11CED85FE85828E938EA48EB58E00
:100BD00089819A81AB81BC818C0D9D1DAE1DBF1D8D
:100BE00082A793A7A4A7B5A78D819E81AF81B88561
:100BF0008C0D9D1DAE1DBF1D82A393A3A4A3B5A301
:100C0000232899F6F5CE4FEF5FEFBA01AD85BE858B
:100C10001E964D935D936D937C9351971A961D92FA
:100C20001D921D921C921D977ECFBFEF8B0EB1E0DF
:100C30009B1EA11CB11C072E79E0B694A794979433
:100C400087947A95D1F7702D481459046A047B046F
:100C500008F4ADCFD8CF8FEF9FEFDC01ED85FE8597
:100C600086879787A08BB18BDF0112861386148647
:100C700015861582EE59FF4F80819181A70196015B
:100C8000280F391F411D511DFD01228B338B448BD1
:100C9000558B01E0BD016E5C7F4F81810E94402B2E
:100CA000882309F4FECEF3E03ECF49015A0162E009
:100CB000860E911CA11CB11CAD85BE855A968D92E5
:100CC0009D92AD92BC925D9749815A816B817C81E6
:100CD0004C0D5D1D6E1D7F1D9A964D935D936D931A
:100CE0007C939D972D813E814F815885C20ED31EE6
:100CF000E41EF51E9296CD92DD92ED92FC929597B0
:100D0000232809F456CFA0CEF2E0863F9F4FA105DD
:100D1000B10508F050CFC9CF2E960FB6F894DEBFBC
:100D20000FBECDBFDF91CF911F910F91FF90EF903C
:100D3000DF90CF90BF90AF909F908F907F906F90FB
:100D40005F904F903F902F9008950F93CF93DF9334
:100D5000EC0140E050E0BA010E94EC02982F8111B2
:100D600054C08881833009F046C08D81882309F4FE
:100D700042C01EA61FA618AA19AABE016E5C7F4F0C
:100D8000FB01CE018E5C9D4F1192E817F907E1F748
:100D900085E59AEAFE01E05DFD4F9183808382E55F
:100DA00092E5A1E6B1E48AAB9BABACABBDAB82E70D
:100DB00092E7A1E4B1E67A9780839183A283B3831B
:100DC0008E859F85A889B989349680839183A28373
:100DD000B3838A859B85AC85BD853496808391835A
:100DE000A283B3832A893B894C895D8901E089818B
:100DF0000E94932B1D8240E050E060E089810E94B8
:100E0000FF2B91E0811101C090E0892FDF91CF91FC
:100E10000F9108950F931F93FC019A01AB0122508B
:100E2000310941095109828D938DA48DB58D0297A9
:100E3000A109B109281739074A075B0768F4A2819D
:100E4000B0E00E94CF3702A513A524A535A5600FF9
:100E5000711F821F931F03C060E070E0CB011F91E0
:100E60000F910895AF92BF92CF92DF92EF92FF92CF
:100E70001F93CF93DF93423051056105710508F44C
:100E8000ADC0FC01C28CD38CE48CF58C4C155D0597
:100E90006E057F0508F0A7C06A017B01EC01808127
:100EA000823009F44CC0833009F46BC0813009F002
:100EB0009FC05A01B694A794A40EB51EC501892FF0
:100EC0009927869542A153A164A175A1480F591F86
:100ED000611D711DCF010E94EC0281118DC0F501D1
:100EE000F170EC0FFD1F12A9FFEFAF1ABF0AC50189
:100EF000892F992786954AA15BA16CA17DA1480FF6
:100F0000591F611D711DCE010E94EC02811178C034
:100F100081E0B822CA0DDB1D8AA9612F70E0782B11
:100F2000C0FE09C0729562956F7067277F70672752
:100F300080E090E070C07F7080E090E06CC0452F52
:100F4000562F672F772782A193A1A4A1B5A1480F9F
:100F5000591F6A1F7B1FCF010E94EC02811154C0F0
:100F6000B701A601440F551F661F771F4E7F5170B2
:100F700066277727C40FD51F6AA97BA980E090E078
:100F80004AC082A193A1A4A1B5A1689416F8769550
:100F90006795579547951694D1F7480F591F6A1FC3
:100FA0007B1FCF010E94EC02811132C0B701A60164
:100FB000440F551F661F771F440F551F661F771F6D
:100FC0004C7F517066277727C40FD51F8AA99BA92C
:100FD000ACA9BDA9BC01CD019F701DC061E070E04E
:100FE00080E090E018C061E070E080E090E013C025
:100FF0006FEF7FEFCB010FC06FEF7FEFCB010BC027
:101000006FEF7FEFCB0107C06FEF7FEFCB0103C026
:101010006FEF7FEFCB01DF91CF911F91FF90EF90AA
:10102000DF90CF90BF90AF900895EF92FF920F9313
:101030001F93CF93DF93EC018B017D836C834E81F3
:101040005F8168857985413051056105710509F435
:1010500092C0E881F981828D938DA48DB58D48175A
:1010600059076A077B0708F088C0411551056105DB
:10107000710551F58081833049F446A157A160A5DF
:1010800071A54115510561057105F1F41A861B869C
:101090001C861D86808591850817190708F06FC08A
:1010A00086A197A1A0A5B1A59801329522952F7090
:1010B00023273F702327820F931FA11DB11D8E8709
:1010C0009F87A88BB98B44C0E28080E1E89E7001C5
:1010D00011240E151F0518F1888199810E9432078D
:1010E000AB01BC014F3F8FEF58076807780709F441
:1010F00048C0423051056105710508F444C0E881DB
:10110000F981828D938DA48DB58D481759076A0793
:101110007B07D8F50E191F090E151F05E8F64A873B
:101120005B876C877D87888199810E940A07980177
:10113000329522952F7023273F702327DC01CB01A6
:10114000820F931FA11DB11D8E879F87A88BB98B1E
:1011500088819981C2960F701127000F111F029587
:101160001295107F1027007F1027080F191F1B8B67
:101170000A8B80E00BC082E009C082E007C082E0F9
:1011800005C081E003C082E001C082E0DF91CF9121
:101190001F910F91FF90EF9008956F927F928F9221
:1011A0009F92AF92BF92CF92DF92EF92FF920F93F6
:1011B0001F93CF93DF93423051056105710508F409
:1011C000E1C0FC01C28CD38CE48CF58C4C155D0520
:1011D0006E057F0508F0D8C0680179014A015B01FE
:1011E000EC018081823009F467C0833009F488C043
:1011F000813009F0BFC08A01169507953801640E49
:10120000751EC301892F9927869542A153A164A118
:1012100075A1480F591F611D711DCF010E94EC027D
:10122000182F8111ACC0C301917080FE24C0FE0153
:10123000E80FF91F82A9282F2F7030E1C39EC0014B
:101240001124822B82AB53018FEFA81AB80A81E0D8
:101250008C83C501892F992786954AA15BA16CA132
:101260007DA1480F591F611D711DCE010E94EC0226
:10127000811182C08BC0FE01E80FF91FC2AA530181
:10128000EFEFAE1ABE0A81E08C83C501892F992742
:1012900086954AA15BA16CA17DA1480F591F611DD4
:1012A000711DCE010E94EC02811168C07AC0FE015E
:1012B000E80FF91FC2AA63C0452F562F672F772763
:1012C00082A193A1A4A1B5A1480F591F6A1F7B1F3A
:1012D000CF010E94EC02182F811151C0B501A40169
:1012E000440F551F661F771F4E7F51706627772763
:1012F0004E5C5F4FFE01E40FF51FD182C0823FC0FC
:1013000082A193A1A4A1B5A1689416F876956795DA
:10131000579547951694D1F7480F591F6A1F7B1FA1
:10132000CF010E94EC02182F811129C0B501A40140
:10133000440F551F661F771F440F551F661F771FE9
:101340004C7F5170662777274E5C5F4FFE01E40F9C
:10135000F51F80819181A281B38188279927AA27CF
:10136000B07FC82AD92AEA2AFB2AC082D182E28227
:10137000F38205C012E003C0182F01C0182F81E0CE
:101380008C831BC012E019C012E017C0C501917018
:10139000689413F8F694E794D794C7941694D1F709
:1013A00086CFC5019170FE01E80FF91F32A9307F89
:1013B0002D2D2F70C32EC22A7ACF812FDF91CF918E
:1013C0001F910F91FF90EF90DF90CF90BF90AF9063
:1013D0009F908F907F906F9008954F925F926F9241
:1013E0007F928F929F92AF92BF92CF92DF92EF92B5
:1013F000FF920F931F93CF93DF93EC012A013B01E0
:101400004115510561057105B9F48A849B84AC844A
:10141000BD8481149104A104B10429F18A8D9B8DAE
:10142000AC8DBD8D88169906AA06BB0600F1812CED
:10143000912C540183941BC00E9432076B017C01E4
:10144000623071058105910508F486C08A8D9B8DF7
:10145000AC8DBD8DC816D906EA06FB0608F481C01E
:101460005301420104C0812C912C540183947501D5
:1014700064018FEFC81AD80AE80AF80A8A8D9B8D92
:10148000AC8DBD8DC816D906EA06FB0660F022E0D9
:1014900082169104A104B10408F468C0C12CD12CB7
:1014A00076016894C1F8B701A601CE010E94320707
:1014B000611571058105910599F06F3F2FEF720756
:1014C0008207920709F457C06130710581059105C3
:1014D00009F456C0C814D904EA04FB0451F655C0F7
:1014E0000FEF1FEF2FEF3FE0B701A601CE010E94E3
:1014F000CD0881112AC0411451046104710449F0DE
:1015000097018601B301A201CE010E94CD0881118D
:101510001CC0CA86DB86EC86FD868E859F85A889E1
:10152000B9898F3F2FEF9207A207B20799F1019770
:10153000A109B1098E879F87A88BB98B81E08D8324
:101540006C2D7D2D8E2D9F2D2EC0813041F161E0BF
:1015500070E080E090E027C061E070E080E090E023
:1015600022C06C2D7D2D8E2D9F2D1DC060E070E062
:1015700080E090E018C06FEF7FEF8FEF9FEF13C018
:1015800061E070E080E090E00EC060E070E080E03C
:1015900090E009C06C2D7D2D8E2D9F2D04C06FEF26
:1015A0007FEF8FEF9FEFDF91CF911F910F91FF9012
:1015B000EF90DF90CF90BF90AF909F908F907F90F3
:1015C0006F905F904F9008958F929F92AF92BF92CD
:1015D000CF92DF92EF92FF920F931F93CF93DF93FF
:1015E000DC011496CD91DC911597219609F402C186
:1015F0001E968D909D90AD90BC9051978114910452
:10160000A104B10409F4F8C07B018C016E01BFE0B4
:10161000CB22DD24C114D10409F0D6C0EFEF8E1A1D
:101620009E0AAE0ABE0ADC011E968D929D92AD9274
:10163000BC9251971A964D915D916D917C911D9739
:10164000411551056105710549F4ED91FC918085C5
:101650009185C817D90708F0D1C0B6C0DC01ED915B
:10166000FC91228130E021503109CE019295829582
:101670008F7089279F70892728233923232B09F00E
:10168000A3C0CF010E9432074B015C01623071059B
:101690008105910508F4B4C06F3F7F4F8F4F9F4F76
:1016A00009F4B0C0D801ED91FC91828D938DA48D89
:1016B000B58D88169906AA06BB0608F473C0EF28F4
:1016C00009F4A2C0D8011A964D915D916D917C915B
:1016D0001D97CF010E94ED094B015C016115710559
:1016E0008105910509F492C061307105810591056C
:1016F00009F48EC06F3F7F4F8F4F9F4F09F48AC010
:1017000040E050E0BA01D8018D919C910E94EC021A
:10171000811182C0F80180819181FC01F2968E5C7A
:101720009D4F1192E817F907E1F7D801ED90FC9071
:10173000B501A401C7010E940A07F70166A777A7B0
:1017400080AB91ABF12CEE24E3941AC0E48240E02C
:1017500050E0BA01D8018D919C910E94EC02811158
:101760005DC0D801ED91FC9186A597A5A0A9B1A96E
:101770000196A11DB11D86A797A7A0ABB1ABF394AD
:10178000D801ED91FC918281F81600F386A597A50A
:10179000A0A9B1A98F199109A109B10986A797A795
:1017A000A0ABB1ABF80182869386A486B586B5015D
:1017B000A401808191810E940A07D8011E966D9331
:1017C0007D938D939C935197F801D583C483808139
:1017D0009181C296CC0CDD1CCC0CDD1CCC0CDD1C2C
:1017E000CC0CDD1CCC0CDD1CC80ED91ED38AC28AE1
:1017F00080E015C084E013C084E011C084E00FC015
:1018000082E00DC081E00BC084E009C087E007C022
:1018100082E005C081E003C081E001C081E0DF918A
:10182000CF911F910F91FF90EF90DF90CF90BF90DD
:10183000AF909F908F9008952F923F924F925F921A
:101840006F927F928F929F92AF92BF92CF92DF92D0
:10185000EF92FF920F931F93CF93DF9300D000D0AE
:101860001F92CDB7DEB79A8389834B01DB018C9140
:101870008F3211F08C3551F4BFEF8B1A9B0AE9813E
:10188000FA8116821782108611860EC0A981BA814C
:10189000ED91FC9186899789A08DB18DE981FA81BE
:1018A00086839783A087B187D4018C91803258F4C6
:1018B00060E070E089819A810E941508E981FA81CF
:1018C000138A128A6BC110E20F2EFEE27F2EF02DDA
:1018D00000E0B12C6894662463F8512C362C252C3A
:1018E0000F2EFBE04F2EF02D29813A813C832B8374
:1018F000EB81FC81A489B589FD01CD010B96119383
:10190000E817F907E1F7F40180818E3261F0740184
:10191000402F5B2D60E070E0C62CD52CA12CBA8343
:10192000A983AD821EC07C92F40181818E3251F474
:1019300011967C92119782818E3209F475C023E052
:1019400030E002C022E030E08F3209F4D6C08C359E
:1019500009F4D3C0813208F4D4C0F4C01B968C9330
:10196000F3C06F5F7F4FF701B1917F01B13208F48F
:10197000E2C0BF3209F4D8C0BC3509F4D5C0BE32CC
:1019800009F406C14C155D0508F0DCC009C0FD81F5
:10199000FF0FFF0FFD83432D522DC42CD12CE1CF1F
:1019A000BB230CF0B2C02D8123602D83EB2FF0E020
:1019B000ED5CFF4FB081A9C08191882309F4AEC0CE
:1019C00090E028173907C1F72FC03D8132603D8371
:1019D00008C08FE98B0F8A3120F48D8181608D835F
:1019E000B052E981FA81E40FF51FB0834F5F5F4F7A
:1019F000B8CF452B09F4A6C09C91953E11F495E013
:101A00009C93E8E0CE16D10411F4AA0CAA0C9A2DEE
:101A10009370913009F480619A2D9C70943009F490
:101A200088601B968C9390C086E0B8C0AB81BC8167
:101A30001E964D915D916D917C9151978D919C91E8
:101A40000E94EC02811199C0EB81FC81428953898B
:101A5000DA019C91992309F481C01B96EC90E3FC78
:101A600011C064897589FA01DB016A012BE0C20E9D
:101A7000D11C04C0EC15FD0509F479C021919D919C
:101A80002917C1F3602F7B2D8B819C810E94E40A72
:101A9000882361F272C095FF0CC0EB81FC81168235
:101AA000178210861186138A128A92FF21CF80E056
:101AB00075C092FD1EC085E071C0E4FE1CC0DA0155
:101AC00054968D919C915597A0E0B0E0DC01992748
:101AD0008827FA01428D538D60E070E0842B952BAE
:101AE000A62BB72BEB81FC8186839783A087B187D8
:101AF000FFCE84E053C085E051C0820E931E812F3B
:101B00002DCF820E931E84E229CF2B2F30E022327C
:101B1000310509F489CFE5EAF0E04ECF8FEB8B0F6A
:101B20008A3108F452CF55CFA981BA81AD80860E93
:101B3000971E80E05ECFA981BA81AD80860E971E88
:101B400084E057CF86E02AC0602F7B2D8B819C815B
:101B50000E941508882309F469CF0FC08B819C81EE
:101B6000DC015496ED91FC915597938594CFDB0160
:101B70001B969C9192FFA1CF11C0AB81BC81549662
:101B8000ED91FC9155979385843009F484CF06C07C
:101B9000B8E0CB16D10409F4FACED4CF0F900F9051
:101BA0000F900F900F90DF91CF911F910F91FF90A9
:101BB000EF90DF90CF90BF90AF909F908F907F90ED
:101BC0006F905F904F903F902F9008950F931F93C9
:101BD000CF938C0160E070E00E941508C82F81113E
:101BE00047C0D8011E964D915D916D917C915197A2
:101BF0008D919C910E94EC02C82F811139C0D801AF
:101C00005296ED91FC9153978081853E29F188236E
:101C100019F161E070E0C8010E94E40AC82F88232E
:101C200001F326C0F80182899389FC019C01205EA2
:101C30003F4F1192E217F307E1F7D80154966D91E7
:101C40007C9155974BE050E00E944502D801ED9100
:101C5000FC9181E084830CC0F8014685578560893A
:101C60007189808191810E94EC02C82F8823D1F272
:101C70008C2FCF911F910F910895CF93DF93EC019B
:101C800084E017C0888199810E94EC0281111CC0F8
:101C9000EA89FB8990819923E1F0953E19F09385BB
:101CA00093FF19C060E070E0CE010E94E40A811148
:101CB0000BC04E855F85688979894115510561059D
:101CC000710501F7882339F01E861F86188A198A44
:101CD00002C084E0F9CFDF91CF9108957F928F9277
:101CE0009F92AF92BF92CF92DF92EF92FF920F93AB
:101CF0001F93CF93DF93EC016A017B0142305105C2
:101D00006105710508F44CC08A8D9B8DAC8DBD8D2D
:101D1000481759076A077B0708F044C07724739473
:101D2000B701A601CE010E9432074B015C01672B6F
:101D3000682B692BC9F191E089169104A104B104C3
:101D4000A9F18FEF88169806A806B80689F100E079
:101D500010E09801B701A601CE010E94CD088111C3
:101D600028C04E855F85688979894F3F9FEF590765
:101D70006907790749F04F5F5F4F6F4F7F4F4E877D
:101D80005F87688B798B7D82750164014A8D5B8DDD
:101D90006C8D7D8D84169506A606B70608F209C0DF
:101DA00082E007C082E005C080E003C082E001C09D
:101DB00081E0DF91CF911F910F91FF90EF90DF9025
:101DC000CF90BF90AF909F908F907F90089581119A
:101DD00012C0E0917F01F0918001309709F01082EC
:101DE0006115710511F0FB01108270938001609301
:101DF0007F0180E008958BE008954F925F926F928B
:101E00007F928F929F92AF92BF92CF92DF92EF928A
:101E1000FF920F931F93CF93DF93CDB7DEB7A497B5
:101E20000FB6F894DEBF0FBECDBF8C017CA36BA3B1
:101E3000F42EDC011D921C92B42FBF71EB2E4E715B
:101E4000BE016F5F7F4FCE0183960E94BF039E014C
:101E5000295E3F4F3E8B2D8B8111BDC06BA17CA1B4
:101E6000CE0101960E941C0CCB88DC888111BAC07F
:101E7000C114D10409F0C0C0BAC0843021F4CE012D
:101E800001960E94E60DEE2DE860EE2ECB88DC88F0
:101E9000882349F0CCC0F2FCC3C0D6011B968C91BC
:101EA000817109F0BFC0E3FE51C00E946117F601C5
:101EB00066877787808B918B1386148E158E168E8E
:101EC000178E84889588A12CB12CD4019927882756
:101ED000828C938CA12CB12C882A992AAA2ABB2AFD
:101EE000138E128E158A148AE981FA8181E0848327
:101EF00081149104A104B10431F146A457A460A84F
:101F000071A8B501A401CF010E946E0E81118FC08E
:101F100089819A81F1E08F1A9108A108B108DC014A
:101F20001A968D929D92AD92BC921D97B301A2011B
:101F30000E94EC02882339F07AC0F1FE02C080FDD5
:101F400073C0F3FE03C0BE2DB062EB2EE981FA81AF
:101F500086A597A5A0A9B1A9F801828F938FA48F18
:101F6000B58FD78EC68ED8011496EC92F60184896F
:101F70009589A0E0B0E0DC0199278827428D538D38
:101F800060E070E0842B952BA62BB72BF801868799
:101F90009787A08BB18BF601848D958DA68DB78D1B
:101FA000F80182879387A487B587D80116821782A4
:101FB00010861186168A178A108E118EE981FA8191
:101FC0001196FC93EE938681978113969C938E9342
:101FD000129780E02CC0CB88DC889F2D9C7109F083
:101FE0004CCF0FC09F2D9C7109F047CF0AC08F2D99
:101FF0008C7151F486E005C08F2D8C7109F04BCFA8
:102000000AC0811114C0AFCFBE2DB860EB2ECB88B3
:10201000DC8886E0F6CFF601838584FD07C08DCF8E
:1020200088E005C087E003C087E001C084E0A49693
:102030000FB6F894DEBF0FBECDBFDF91CF911F91D9
:102040000F91FF90EF90DF90CF90BF90AF909F9057
:102050008F907F906F905F904F9008952F923F9256
:102060004F925F926F927F928F929F92AF92BF92A8
:10207000CF92DF92EF92FF920F931F93CF93DF9354
:10208000EC014B016A015901F901118210826A8148
:102090007B81888199810E94A503811118C18C815F
:1020A00088230CF40FC180FF0FC18A859B85AC8506
:1020B000BD854E815F8168857985841B950BA60B54
:1020C000B70BA60160E070E084179507A607B70775
:1020D00008F46C01C114D10409F4F8C04E815F8189
:1020E00068857985DB01CA019170AA27BB27892BF6
:1020F0008A2B8B2B09F0A0C0E881F9811281115045
:10210000DB01CA01072E79E0B695A79597958795CB
:102110007A95D1F7702D182349F5452B462B472B7F
:1021200029F46E857F858889998907C04A895B89EA
:102130006C897D89CF010E9432076230710581056B
:10214000910528F48C8180688C8382E0C0C06F3F49
:10215000FFEF7F078F079F0729F48C8180688C83AE
:1021600081E0B5C06A8B7B8B8C8B9D8B28803980FE
:102170004A895B896C897D89C1010E940A076115C2
:1021800071058105910529F48C8180688C8382E03A
:102190009EC02B013C01410E511C611C711C76013B
:1021A000EF2CFF24E694E114F10409F441C0F1019D
:1021B0004281242F30E0C701810F911D2817390774
:1021C00018F47901E11AF1080E2DA3019201B4016E
:1021D000F10181810E94402B882329F08C81806845
:1021E0008C8381E074C0E881F98184818823E1F0E7
:1021F00086A597A5A0A9B1A984199509A609B7092B
:10220000A70160E070E084179507A607B70760F4A0
:10221000BF016E5C7F4F982F8827990F40E052E0F6
:10222000880D991D0E944502FE2CEE24FF0C2FC044
:102230004E8A5F8A688E798E8E819F81917020E0B0
:1022400032E07901E81AF90ACE14DF0408F47601C5
:102250004E895F89688D798D888199810E94EC0211
:10226000882329F08C8180688C8381E030C08E8146
:102270009F81A885B9859170AA27BB27C2966881DE
:102280007981680F791FA701C4010E9445028E0C55
:102290009F1C8E819F81A885B9858E0D9F1DA11DD4
:1022A000B11D8E839F83A887B987F50180819181B5
:1022B0008E0D9F1D91838083CE18DF0809F00ECF0D
:1022C00080E005C082E003C087E001C080E0DF91CC
:1022D000CF911F910F91FF90EF90DF90CF90BF9023
:1022E000AF909F908F907F906F905F904F903F90B6
:1022F0002F9008952F923F924F925F926F927F920C
:102300008F929F92AF92BF92CF92DF92EF92FF9205
:102310000F931F93CF93DF93EC014B016A01590197
:10232000F901118210826A817B81888199810E94E2
:10233000A50381117AC18C8188230CF473C181FFBC
:1023400073C18A859B85AC85BD85AC01BD014C0DF3
:102350005D1D611D711D481759076A077B0708F449
:102360004BC1C114D10409F447C14E815F81688516
:102370007985DB01CA019170AA27BB27892B8A2B9B
:102380008B2B09F0F1C0E881F98112811150DB013A
:10239000CA01072E79E0B695A795979587957A9506
:1023A000D1F7702D1823F1F5452B462B472BA1F4BF
:1023B0006E857F85888999896115710581059105EB
:1023C000C1F440E050E0BA01CF010E94ED096E87F0
:1023D0007F87888B998B07C04A895B896C897D8947
:1023E000CF010E94ED09611571058105910509F480
:1023F00003C1613071058105910529F48C818068E4
:102400008C8382E012C16F3FFFEF7F078F079F072A
:1024100029F48C8180688C8381E007C16A8B7B8B77
:102420008C8B9D8BE881F98146A557A560A971A980
:102430008E899F89A88DB98D481759076A077B0730
:1024400069F440E050E0BA01CF010E94EC02882319
:1024500029F08C8180688C8381E0E7C028803980F6
:102460004A895B896C897D89C1010E940A076115CF
:1024700071058105910529F48C8180688C8382E047
:10248000D4C02B013C01410E511C611C711C760112
:10249000EF2CFF24E694E114F10409F441C0F101AA
:1024A0004281242F30E0C701810F911D2817390781
:1024B00018F47901E11AF1080E2DA3019201B4017B
:1024C000F10181810E94932B882329F08C818068FF
:1024D0008C8381E0AAC0E881F98186A597A5A0A98F
:1024E000B1A984199509A609B709A70160E070E0B0
:1024F00084179507A607B70778F4982F8827990FB0
:10250000B401680F791F40E052E0CF01C2960E94EB
:102510004502E881F9811482FE2CEE24FF0C53C0A1
:102520004E815F81688579858A859B85AC85BD856F
:10253000481759076A077B0798F040E050E0BA0156
:10254000C1010E94EC02882329F08C8180688C8371
:1025500081E06BC0E881F98146A657A660AA71AAFE
:102560004E8A5F8A688E798E8E819F81917020E07D
:1025700032E07901E81AF90ACE14DF0408F4760192
:102580004E895F89688D798D888199810E94EC02DE
:10259000882329F08C8180688C8381E046C08E81FD
:1025A0009F81A885B9859170AA27BB27C2962881EB
:1025B0003981A701B401820F931F0E944502E8816F
:1025C000F98121E024838E0C9F1C8E819F81A88538
:1025D000B9858E0D9F1DA11DB11D8E839F83A88778
:1025E000B987F501808191818E0D9F1D9183808334
:1025F000CE18DF0809F0B9CE8E819F81A885B985F4
:102600004A855B856C857D85481759076A077B0776
:1026100020F48A879B87AC87BD878C8180628C83FE
:1026200080E003C082E001C087E0DF91CF911F917D
:102630000F91FF90EF90DF90CF90BF90AF909F9061
:102640008F907F906F905F904F903F902F90089564
:102650000F931F93CF93DF93EC016A817B81888175
:1026600099810E94A503811137C09C8195FF34C0D8
:102670004A8D5B8D6C8D7D8D888199810E94EC02E5
:1026800081112AC00E8D1F8DF8018385806283879A
:102690008A859B85AC85BD85848F958FA68FB78FE6
:1026A0008E859F85938F828F8E859F85A889B98916
:1026B000B58BA48B0E946117F801668B778B808F96
:1026C000918F8C818F7D8C83E881F98181E0848377
:1026D000888199810E94A506DF91CF911F910F916A
:1026E0000895CF93DF93EC010E942813811102C05B
:1026F00019821882DF91CF9108954F925F926F9265
:102700007F929F92AF92BF92CF92DF92EF92FF9211
:102710000F931F93CF93DF93CDB7DEB7EA970FB632
:10272000F894DEBF0FBECDBF9AAF89AF5B01FC014D
:10273000108240E0BE016F5F7F4FCE01C9960E94BC
:10274000BF03982E811103C1CE018D969E8B8D8B78
:10275000E981FA8146885788608C718C4F8258864F
:1027600069867A86411451046104710409F4E6C053
:1027700065017E01F0E2EF0EF11C0FE261E070E016
:10278000CE0101960E9415088111B2C0CE010196BA
:102790000E943D0E8111AEC0EB89FC898489958928
:1027A000A0E0B0E0DC0199278827428D538D60E0DE
:1027B00070E0842B952BA62BB72B8F839887A98746
:1027C000BA8760E070E0CE0101960E941508811181
:1027D00093C0CE0101960E943D0E182F81119AC020
:1027E000EB89FC8984899589A0E0B0E0DC01992718
:1027F0008827428D538D60E070E0842B952BA62BAB
:10280000B72B84159505A605B70509F487C060E0C8
:1028100070E0CE0101960E94E40A182F8823C9F2C5
:1028200079C0DE019196E0E0F0E001C0F9019F017E
:102830002F5F3F4F8D918111F9CFCF010496C816BC
:10284000D90608F45BC021153105A1F03A9687E15D
:1028500090E08C0F9D1FE80FF91FC6010197429170
:10286000A9ADBAADA80FB91F4C93EE15FF05B1F78E
:10287000C21AD30A91E0C91AD108E9ADFAADEC0D3C
:10288000FD1D00834F80588469847A84411451046B
:102890006104710409F072CF1DC0A9ADBAAD68948E
:1028A000992491F815C0DF0113968FE2828310C03E
:1028B0001196E9ADFAADEC0DFD1D8081FD0131975A
:1028C0008083F60131966F01EA15FB0588F3912E9E
:1028D0001C923DC0E9ADFAAD80917C01805D8083A2
:1028E0008AE38183AC14BD04F1F2DF011296E0CFDC
:1028F000982E0DC0982E0BC0982E09C00F2EF1E116
:102900009F2EF02D04C00F2EF1E19F2EF02DA9ADCA
:10291000BAADDECF143009F2912EF9CFBE01695E57
:102920007F4FCE0101960E94710288A1811179CF5B
:10293000F3E0CF16D10408F09DCFE5CFE9ADFAADB5
:1029400080917C01805D80838AE38183ACCF892D77
:10295000EA960FB6F894DEBF0FBECDBFDF91CF91E0
:102960001F910F91FF90EF90DF90CF90BF90AF90AD
:102970009F907F906F905F904F9008954F925F92DD
:102980006F927F928F929F92AF92BF92CF92DF927F
:10299000EF92FF920F931F93CF93DF9300D000D05D
:1029A00000D0CDB7DEB79E838D836A017B01DC0149
:1029B00012966D917C9113978D919C910E94A50325
:1029C00081119DC1ED81FE81848188230CF492C127
:1029D00042855385648575854C155D056E057F05BB
:1029E00020F481FD02C06A017B01AD81BE81169693
:1029F0004D905D906D907C901997FD011682178225
:102A000010861186C114D104E104F10409F474C1E3
:102A100000811181D80112968C90912CA12CB12C9F
:102A2000072E79E0880C991CAA1CBB1C7A95D1F75B
:102A3000702D411451046104710409F440C0B1E0E7
:102A40004B1A510861087108C701B601615071093C
:102A500081099109A50194010E94793729833A835C
:102A60004B835C83C301B201A50194010E947937B5
:102A700089819A81AB81BC8182179307A407B5072E
:102A8000F0F088279927DC0188199909AA09BB0960
:102A9000482259226A227B22AD81BE8116964D9230
:102AA0005D926D927C921997C418D508E608F708D4
:102AB00052964D915D916D917C9155973DC0ED8100
:102AC000FE814685578560897189411551056105EB
:102AD000710561F540E050E0BA01C8010E94ED09BE
:102AE000AB01BC01413051056105710551F4AD8167
:102AF000BE8114968C911497806814968C9382E012
:102B0000FEC04F3FBFEF5B076B077B0739F4ED81DA
:102B1000FE8184818068848381E0F1C0AD81BE81C3
:102B20001E964D935D936D937C935197ED81FE813D
:102B3000428B538B648B758B411551056105710573
:102B400009F4A1C08C149D04AE04BF0408F063C056
:102B5000AD81BE8114968C91149781FF0CC08D912C
:102B60009C910E94ED09AB01BC0141155105610525
:102B7000710549F44EC0AD81BE818D919C910E943A
:102B80003207AB01BC014F3FBFEF5B076B077B0711
:102B900039F4ED81FE8184818068848381E0AFC057
:102BA000423051056105710568F0AD81BE81ED913E
:102BB000FC91828D938DA48DB58D481759076A07B6
:102BC0007B0738F0ED81FE8184818068848382E018
:102BD00096C0AD81BE8152964D935D936D937C936B
:102BE0005597FD0186819781A085B185880D991D36
:102BF000AA1DBB1D86839783A087B187C818D908F3
:102C0000EA08FB088C149D04AE04BF0408F4A0CFAE
:102C100002C075016401ED81FE8186819781A085E6
:102C2000B1858C0D9D1DAE1DBF1D86839783A0872A
:102C3000B187D701C6019170AA27BB27892B8A2BA0
:102C40008B2B29F1808191810E940A076115710502
:102C50008105910551F4AD81BE8114968C91149734
:102C6000806814968C9382E04AC00B2EB9E0F694EB
:102C7000E794D794C794BA95D1F7B02DC60ED71E56
:102C8000E81EF91E07C0C12CD12C760103C0C12C4F
:102C9000D12C7601ED81FE8186819781A085B18559
:102CA000AC01BD01517066277727452B462B472B7A
:102CB00069F046895789608D718DC416D506E60680
:102CC000F70621F0C68AD78AE08EF18EED81FE816B
:102CD0004285538564857585481759076A077B07C0
:102CE00068F482879387A487B58784818062848310
:102CF00080E005C082E003C080E001C080E026964D
:102D00000FB6F894DEBF0FBECDBFDF91CF911F91FC
:102D10000F91FF90EF90DF90CF90BF90AF909F907A
:102D20008F907F906F905F904F9008950F931F93B7
:102D3000CF93DF93CDB7DEB72E970FB6F894DEBFF3
:102D40000FBECDBF8C017E876D8740E0BC01CE01F8
:102D50000D960E94BF03811143C0CE010196D80198
:102D600055969C938E9354976D857E85C8010E94DD
:102D70001C0C81111FC0D8015296ED91FC91539704
:102D80003097F1F0838584FF19C084899589A0E08C
:102D9000B0E0DC0199278827428D538D60E070E018
:102DA000842B952BA62BB72BF80186839783A087BE
:102DB000B18706C08430A1F485E012C085E010C060
:102DC000D801ED91FC9111978681978113969C9380
:102DD0008E93129760E070E0C8010E941508EACF58
:102DE0002E960FB6F894DEBF0FBECDBFDF91CF9108
:102DF0001F910F910895CF92DF92FF920F931F932F
:102E0000CF93DF93CDB7DEB72C970FB6F894DEBF24
:102E10000FBECDBF8C016B01FC016281738180818B
:102E200091810E94A503F82E811130C0C114D104F4
:102E300039F460E070E0C8010E941508F82E26C041
:102E4000CE010196F801958B848BC8010E943D0E3E
:102E5000843031F4F80116861786108A118A02C070
:102E6000811111C0B601C8010E94710260E070E0DA
:102E7000C8010E94E40A843041F4F80116861786DE
:102E8000108A118A03C0F82E01C0F82E8F2D2C96BF
:102E90000FB6F894DEBF0FBECDBFDF91CF911F916B
:102EA0000F91FF90DF90CF9008958E3F49F0682FEB
:102EB00087EA94E00E942202811102C00E944135FB
:102EC000089560E070E0CB01089583B7826083BF0E
:102ED00083B7816083BF89B7816089BF8CE983BD77
:102EE00085B5886085BD89B7806889BF85B58760ED
:102EF00085BD0895D898D098B898B998BA98BB98D5
:102F0000C09AC19AC29AC39AA698A798D198D29803
:102F1000D398AE9AAF9AD99ADF9ADB9A8F98979AFC
:102F20000895CF93DF93EC0180E00E94DB018A8754
:102F300026B391E029272170288326B32695217096
:102F40002927298326B322FB222720F929272A8330
:102F500026B323FB222720F929272B8323B326FB23
:102F6000222720F929272C8323B32095221F2227EB
:102F7000221F2D8329B32695217029272E8329B35B
:102F800022FB222720F929272F8329B323FB22277D
:102F900020F99227988790B39095991F9927991FA8
:102FA000998720918A01921721F090938A0189E0F4
:102FB00023C090E0292F092E000C330BFE01E20FF5
:102FC000F31F4081F901EF57FE4F5081451731F053
:102FD000F901EF57FE4F4083413059F09F5F9A301F
:102FE0004CF390918B01891731F080938B018AE02B
:102FF00003C0892F01C08FEFDF91CF910895809199
:103000009D0190919E01A0919F01B091A0013091EE
:103010009C0123E0230F2D3720F40196A11DB11D43
:1030200005C026E8230F0296A11DB11D20939C0127
:1030300080939D0190939E01A0939F01B093A00166
:103040008091A1019091A201A091A301B091A4014E
:103050000196A11DB11D8093A1019093A201A0939F
:10306000A301B093A40108953FB7F8948091A10102
:103070009091A201A091A301B091A40122B708B63A
:1030800000FE05C02F3F19F00196A11DB11D3FBFE5
:10309000BA2FA92F982F8827820F911DA11DB11D2E
:1030A000BC01CD01660F771F881F991F660F771F20
:1030B000881F991F089520E1ECE8F1E0DF011D92DF
:1030C0002A95E9F7462F50E0BC01CF010E94343920
:1030D0008CE891E008950F931F93CF93DF93EC0159
:1030E0008B018BED91E0FE019C011192215030404B
:1030F000E1F7CE010E94AC2061E679E2CE010E94A8
:10310000D41F60E679E2CE010E94DC1F6FE579E210
:10311000CE010E94D81FB801CE010E940E23CE011D
:103120000E940A22019699F06BE08BE490E00E94E5
:103130005B186BE00E94B71C8FEF99E6E8E18150C5
:103140009040E040E1F700C0000081E00BC0FE01CC
:10315000E65BFF4F81E0808338971082CD5BDF4FC5
:10316000188280E0DF91CF911F910F910895CF9346
:10317000C82F60E080E00E94271CC13029F56FE075
:1031800080E190E00E945B186FE00E94B71C61E054
:1031900080E00E94271C60E070E080E00E94E70E63
:1031A000882349F06EE08DE390E00E945B186EE0AA
:1031B0000E94B71C2DC06AE083E390E00E945B1878
:1031C0006AE00E94B71C24C060E180E090E00E94A9
:1031D0005B1860E10E94B71C61E080E00E94271C40
:1031E00067E572E080E00E94E70E882349F06CE01A
:1031F00087E290E00E945B186CE00E94B71C08C058
:1032000068E08FE190E00E945B1868E00E94B71CC4
:10321000CF9108958F929F92AF92BF92CF92DF92FB
:10322000EF92FF920F931F93CF93DF93CDB7DEB74B
:10323000E5970FB6F894DEBF0FBECDBF5C014B0122
:103240006A0168E070E0CE0101960E947D13BE0124
:103250006F5F7F4FCE0180960E949616182F8111C6
:1032600050C07E0123E1E20EF11C00E1BE01665F69
:103270007F4FCE0180960E94FB16182F811141C00E
:103280008B898823F1F18E3289F38A8984FDEECF10
:10329000F70101900020E9F73197EE19FF097097C7
:1032A00028F7D6018C91F501B0E18B9FE00DF11D5F
:1032B0001124DF01202F1D922A95E9F7B401C701DF
:1032C0000E941A39892BC1F0F70101900020E9F71B
:1032D0003197AF014E195F09D6018C91B701F50105
:1032E00020E1829FE00DF11D1124CF010E940B39D6
:1032F000D6018C918F5F8C93F60180818A3009F022
:10330000B5CF812FE5960FB6F894DEBF0FBECDBFC7
:10331000DF91CF911F910F91FF90EF90DF90CF90B1
:10332000BF90AF909F908F900895AF92BF92CF9231
:10333000DF92EF92FF920F931F93CF93DF9300D012
:1033400000D0CDB7DEB77A015901FA01018183E3DC
:1033500091E09A83898385E391E09C838B8360E08D
:1033600080E00E94271CF7018081811109C069E07B
:1033700082E790E00E945B1869E00E94B71C5BC086
:1033800060E081E00E94271C0E7FF0E10F9F80012A
:103390001124C501800F911FFC0101900020E9F765
:1033A0003197BF01681B790B0E94B71C60E080E079
:1033B0000E94271CF701818180FBCC24C0F8D12C0E
:1033C000CC0CDD1CFE01EC0DFD1D61E081819281C4
:1033D0000E94B71CF70191818081981760F561E028
:1033E00081E00E94271CC80140968A0D9B1DFC01AC
:1033F00001900020E9F73197BF01681B790B0E940B
:10340000B71C61E080E00E94271CF701818190E0F9
:10341000019681709078992324F401978E6F9F6FA5
:103420000196880F991FFE01E80FF91F61E0818165
:1034300092810E94B71C0F900F900F900F90DF9118
:10344000CF911F910F91FF90EF90DF90CF90BF90A1
:10345000AF90089508959298939894988A9A8B9A29
:103460008C9A8AB38F708ABB8BB3806F8BBB0895A5
:1034700092988AB38F708ABB8BB3806F8BBB939A01
:10348000949A00000000000000000000000000000E
:103490000000000000000000000000000000CF9BC2
:1034A00076C09498000000000000000000000000BA
:1034B000000000000000000000000000000000000C
:1034C00000000000000000000000000000000000FC
:1034D000000000000000000000000000949A0000BE
:1034E00000000000000000000000000000000000DC
:1034F00000000000000000000000000000000000CC
:1035000000000000000000000000000000000000BB
:10351000000000000000949800000000000000007F
:10352000000000000000000000000000000000009B
:10353000000000000000000000000000000000008B
:10354000000000000000000000000000000000007B
:10355000949A00000000000000000000000000003D
:10356000000000000000000000000000000000005B
:10357000000000000000000000000000000000004B
:1035800000000000000000000000CF998ACF94984E
:103590000895CF93C82F0E94381A92989398949ABE
:1035A0008AB3806F8ABB8BB38F709C2F907F892BDF
:1035B0008BBB0000000000000000000000000000C5
:1035C00000000000000000000000000000000000FB
:1035D00000000000000000000000000000000000EB
:1035E00000000000000000000000949800000000AF
:1035F00000000000000000000000000000000000CB
:1036000000000000000000000000000000000000BA
:1036100000000000000000000000000000000000AA
:1036200000000000949A8BB3282F2F7030E1C39FC5
:10363000C0011124822B8BBB0000000000000000A1
:10364000000000000000000000000000000000007A
:10365000000000000000000000000000000000006A
:10366000000000000000000000000000000000005A
:1036700094988AB38F708ABB8BB3806F8BBBCF91CA
:1036800008950E94381A8AB38F708ABB8BB3806FFB
:103690008BBB9298939A949A00000000000000005F
:1036A000000000000000000000000000000000001A
:1036B000000000000000000000000000000000000A
:1036C00000000000000000000000000000000000FA
:1036D00099B3949800000000000000000000000072
:1036E00000000000000000000000000000000000DA
:1036F00000000000000000000000000000000000CA
:10370000000000000000000000000000949A00008B
:1037100000000000000000000000000000000000A9
:103720000000000000000000000000000000000099
:103730000000000000000000000000000000000089
:1037400000000000000029B322952F70892F807F90
:103750009498822B0895CF93C82F0E94381A929A7A
:103760009398949A8AB3806F8ABB8BB38F709C2F87
:10377000907F892B8BBB0000000000000000000040
:103780000000000000000000000000000000000039
:103790000000000000000000000000000000000029
:1037A00000000000000000000000000000009498ED
:1037B0000000000000000000000000000000000009
:1037C00000000000000000000000000000000000F9
:1037D00000000000000000000000000000000000E9
:1037E0000000000000000000949A8BB3282F2F7077
:1037F00030E1C39FC0011124822B8BBB000000006D
:1038000000000000000000000000000000000000B8
:1038100000000000000000000000000000000000A8
:103820000000000000000000000000000000000098
:103830000000000094988AB38F708ABB8BB3806FAE
:103840008BBBCF91089581E00E94C91A0895623020
:1038500031F0633031F0613029F4805C03C08C5E5C
:1038600001C08C5A80680E94C91A08950F931F9353
:10387000CF93DF9300D01F92CDB7DEB78C016B835F
:103880004A830E94411B8F7789838A81880F880F22
:10389000880F8A839B81990F990F990F090F111D2A
:1038A000885F8B838A8180640E94C91AF8018491A1
:1038B0000E94AB1BFA81FF5FFA830F5F1F4F8B8162
:1038C000F813F0CF898180680E94C91A0F900F9079
:1038D0000F90DF91CF911F910F9108950E942B1AA5
:1038E00088E20E94C91A81E00E94C91A80E69AEE15
:1038F0000E94E13286E00E94C91A8CE00E94C91A37
:1039000082E00E94C91A80E80E94C91A40E060E083
:1039100086E892E00E94361C41E061E086E892E091
:103920000E94361C42E062E086E892E00E94361C6B
:1039300043E063E086E892E00E94361C44E064E0E5
:1039400086E892E00E94361C45E065E086E892E059
:103950000E94361C46E066E086E892E00E94361C33
:1039600047E067E086E892E00E94361C08950F93D6
:103970001F93CF93DF93009781F0662371F0EC01E2
:103980006150062F10E00F5F1F4F080F191F89911C
:103990000E94AB1BC017D107D1F7DF91CF911F91C8
:1039A0000F910895CF93DF93CDB7DEB7C05AD240C1
:1039B0000FB6F894DEBF0FBECDBFFE01E45BFF4F34
:1039C0008EE3DF011D928A95E9F7C657DF4F198212
:1039D0001882CA58D040C457DF4F1882CC58D04004
:1039E00080EA90E00E94DA376C010E9465170E941D
:1039F0006E1C0E94B9340E944C280E94802F0E94A5
:103A00007A170E94D9300E94B40185E00E94A60175
:103A100081E00E94AB0180E00E94C2010E94C801C7
:103A200067EB7DE286E00E94FC326FEF77E180E099
:103A30000E94FC3262E17AE780E090E00E94D63496
:103A400085E597E10E94D1340E94413560E080E035
:103A50000E94271CCA56DF4F8881C659D0400E9459
:103A6000B718C956DF4F8881C759D0400E947529C1
:103A7000CE0183579F4F0E949117212C312C210199
:103A800077247394EE24EA9400E0E1E4F0E0EC0F94
:103A9000FD1F3396C156DD4FF983E883CF59D240DD
:103AA0006894662461F80F2EF8E98F2E912CF02D82
:103AB0008C0E9D1EF8E08F0E911C5E018CE4A80E0A
:103AC000B11CA0EBB0E0AC0FBD1F1296C356DD4F8A
:103AD000B983A883CD59D240CE0183579F4F0E940E
:103AE0009117182F8A3008F0D7C10E94231CB3E029
:103AF000B11770F0C557DF4F1882CB58D040C6576A
:103B0000DF4F1882CA58D040012FEE24EA9405C036
:103B10008CEF810F853008F4E12E812F110F990B66
:103B2000AA0BBB0B8A30910508F0BFC1FC01E65D12
:103B3000FF4F0C94BA37CA56DF4F8881C659D04020
:103B40000E94B718B2C1AE0146575F4F67E371E0FC
:103B5000C6010E940A199601AE0146575F4F6E2DAD
:103B6000802F0E949519A1C1AE0146575F4F60E4B6
:103B700071E0C6010E940A199601AE0146575F4FD7
:103B80006E2D802F0E94951990C111E0711010E0E8
:103B9000772019F160E070E080E090E00E948330CF
:103BA0004AE06CE371E0CE0101960E94FD0ECE0169
:103BB00001960E942A1A60E080E00E94271C69E0BA
:103BC0008BE790E00E945B1869E00E94B71C0E949E
:103BD00034181B012C01712E68C160E070E080E098
:103BE00090E00E9410306BE070E0CE018F5B9F4F41
:103BF0000E9447320E9434182C962CAD3DAD4EAD3C
:103C00005FAD2C971B012C01220E331E441E551E46
:103C100067E084E890E00E945B1867E00E94B71CB0
:103C20009E0124573F4F44E050E06BE770E0CE0127
:103C300001960E947A11CE0101960E947113712E95
:103C400034C1C557DF4F8881CB58D040882331F02D
:103C50008150C557DF4F8883CB58D040802F8D7F50
:103C600049F49601AE0146575F4F6E2D802F0E949A
:103C700095191BC1013009F03CC19E0120553F4FF1
:103C8000AE0148565F4F64E0C5010E94332ECF5409
:103C9000DF4F6881C15BD040C055DF4F8881C05B7A
:103CA000D0400E94B9287EC19E0120553F4FAE01F1
:103CB00048565F4F65E0C5010E94332ECF54DF4F59
:103CC0006881C15BD040C055DF4F8881C05BD04068
:103CD0000E94B928EAC0C557DF4F2881CB58D04091
:103CE000422F50E0C657DF4F8881CA58D04090E03D
:103CF00001974817590734F42F5FC557DF4F2883C2
:103D0000CB58D040802F8D7F49F49601AE014657A5
:103D10005F4F6E2D802F0E949519C7C0013009F0AA
:103D2000E8C09E0120553F4FAE0148565F4F66E008
:103D3000C5010E94332ECF54DF4F6881C15BD04054
:103D4000C055DF4F8881C05BD0400E94B9282AC18E
:103D50009E0120553F4FAE0148565F4F67E0C501B9
:103D60000E94332ECF54DF4F6881C15BD040C055D5
:103D7000DF4F8881C05BD0400E94B92896C00230D6
:103D800089F4C557DF4F8881CB58D040B601E0E1B8
:103D90008E9F600D711D1124CE018E539F4F0E9486
:103DA0006B1885C0011154C0D50190968C9181305B
:103DB00019F4C5010E94222E8EE3F50111928A9515
:103DC000E9F7C557DF4F8881CB58D040B601F0E105
:103DD0008F9F600D711D11249E0120553F4FAE0134
:103DE00048565F4FC5010E94CB2D0E94231CF40151
:103DF00001900020E9F73197BF0168197909C401E2
:103E00000E94B71C61E080E00E94271CC356DD4F72
:103E1000E881F981CD59D24001900020E9F731972E
:103E2000BF01C356DD4F88819981CD59D240681BAF
:103E3000790B0E94B71CCF54DF4F6881C15BD04023
:103E4000C055DF4F8881C05BD0400E94B928AAC00E
:103E5000013009F04EC00E94231C60E080E00E9407
:103E6000271C68E083E990E00E945B1868E00E94EC
:103E7000B71C61E080E00E94271CF4010190002043
:103E8000E9F73197BF0168197909C4010E94B71C8D
:103E9000C5010E94222E86C08A3039F4C956DF4FF0
:103EA0008881C759D0400E947529023011F598E0E9
:103EB000E9124CC0CE018E539F4F0E941C218111EC
:103EC00007C0CE018E539F4F0E94E321062D3FC0B5
:103ED000CE018E539F4F0E94062068E08BE890E051
:103EE0000E945B1868E00E94B71C062DEE24EA943D
:103EF0002EC0033061F5A1E07A1229C00E94341867
:103F0000261637064806590610F524966FAD2497F5
:103F1000C156DD4F88819981CF59D2400E94A02897
:103F20006BE070E0CE018F5B9F4F0E9447320E9492
:103F300034182C962CAD3DAD4EAD5FAD2C971B01CA
:103F40002C01220E331E441E551E01C0062D0E9458
:103F500046358111C1CD0E942D35BE0164577F4F7A
:103F60000E94E928813009F0B7CDC457DF4F88811E
:103F7000CC58D0400E945B28033009F0ADCD7110C1
:103F8000ABCD0E94341862197309840995090E9407
:103F900050286BE070E00E946D310E9434181B01C4
:103FA0002C019ACD01E0D3CFFC0171836083089589
:103FB000FC01758364830895FC0173836283089513
:103FC0000F931F93CF93DF938C01FC0184A9882367
:103FD00081F0C0E0D9E1C801DC9F800D911D112462
:103FE000855B9F4F0E94A723CF5FF80184A9C81764
:103FF00090F30E943418F801FD96608371838283E8
:104000009383DF91CF911F910F9108950F931F9389
:10401000CF93DF938C01FC0184A9882381F0C0E059
:10402000D9E1C801DC9F800D911D1124855B9F4F54
:104030000E94CA23CF5FF80184A9C81790F3F80142
:1040400014AAEF5BFF4F108231961082F80116A27E
:10405000C80106960E947113F801E65BFF4F1082BB
:10406000DF91CF911F910F9108950F931F93CF93DD
:10407000DF93EC01DC01AC5BBF4FFC01EA5BFF4F5F
:104080002D913C9180819181280F391F2115310597
:10409000E1F00DA91EA901151105B9F03396808133
:1040A000882399F040E050E060E077E883E993E00E
:1040B0000E949B37CA01B901980140E050E00E947C
:1040C00079372FAB38AF49AF5AAFDF91CF911F91FE
:1040D0000F910895FC01EC5BFF4F20813181260F89
:1040E000371F232B19F03296718360830E9435208D
:1040F0000895FC01EA5BFF4F20813181260F371FB5
:10410000232B19F03297718360830E943520089524
:10411000FC01E85BFF4F6083319640830E943520AD
:1041200008950F931F93CF93DF93EC019A01AB0196
:104130008C010C5B1F4F60E077E883E993E00E94FD
:104140007937F80131832083CE010E943520DF9139
:10415000CF911F910F910895CF93DF93EC011CAA8B
:104160001BAA1FAA18AE19AE1AAE1CAE1BAEFC01DC
:10417000EF5BFF4F108232961082319710821982C6
:1041800018821B821A821D821C821EA280E390E08C
:104190009EAB8DABCE010E94352068E770E0CE016A
:1041A0000E94792060E070E0CE010E946A20FE014A
:1041B000EC5BFF4F88E790E091838083CE010E9403
:1041C0003520FE01E85BFF4F84E0808331968083D9
:1041D000CE010E943520DF91CF9108950F931F9358
:1041E000CF93DF938C01FC01ED5BFF4F808188232F
:1041F00021F0F80184A9823030F4F80184A98823E1
:1042000091F0C0E001C0C1E0D9E1C801DC9F800DA0
:10421000911D1124855B9F4F0E94AD23CF5FF80154
:1042200084A9C81790F3F801EF5BFF4F1082DF916C
:10423000CF911F910F9108950F931F93CF93DF9309
:104240008C01FC0184A9882371F0C0E0D9E1C80188
:10425000DC9F800D911D1124855B9F4F0E94A4233C
:1042600081110EC013C0F801ED5BFF4F80818823E0
:1042700029F0C8010E94EE2080E008C081E006C05D
:10428000CF5FF80184A9C81710F3EDCFDF91CF916C
:104290001F910F9108958F929F92AF92BF92CF92EC
:1042A000DF92EF92FF920F931F93CF93DF93EC0176
:1042B0000E9434182BAD3CAD6901E12CF12CFE01BC
:1042C000FD96008111812281338146015701801AB8
:1042D000910AA20AB30A75016401C60ED71EE81E30
:1042E000F91E8FA898ACA9ACBAACC814D904EA04DA
:1042F000FB04D8F0C701B601A50194010E947937EB
:104300008901289DC001299D900D389D900D112493
:104310005601A81AB90ABCAEABAE0E943418ED968D
:10432000688379838A839B8302C000E010E0C80120
:10433000DF91CF911F910F91FF90EF90DF90CF9081
:10434000BF90AF909F908F900895AF92BF92CF9201
:10435000DF92EF92FF920F931F93CF93DF93C0E012
:10436000FC0124A9222321F17B018C01D0E00F2E36
:10437000F9E1DF2EF02DBB24B394CC24C394A12CFF
:10438000B801DD9E600D711D1124655B7F4FA70193
:10439000C8010E945C27C11105C0CC2D811103C04A
:1043A000CA2D01C0CB2DDF5FF80184A9D81740F3D7
:1043B000DF91CF911F910F91FF90EF90DF90CF9001
:1043C000BF90AF9008950F931F93CF93FC01EE5BC6
:1043D000FF4FC081C11118C08C01319780818111BC
:1043E00008C0C8010E94E01F81E0F801EF5BFF4FA9
:1043F0008083C8010E944B21009739F0BC01C8019D
:104400000E94A521C1E001C0C0E08C2FCF911F9177
:104410000F9108958F929F92AF92BF92CF92DF92A9
:10442000EF92FF920F931F93CF93DF93CDB7DEB739
:1044300029970FB6F894DEBF0FBECDBFFC0126A1B1
:10444000222309F4D0C08C016C01F6E0CF0ED11C00
:10445000BC016A5D7F4F41E0C6010E94FD0E8111E3
:10446000C5C09E012F5F3F4F44E050E0BE016B5F2F
:104470007F4FC6010E942E10198665E471E0CE01BF
:1044800005960E94FB38892B31F0C6010E947113FA
:1044900083E090E0B0C064E0C6010E941523698308
:1044A0007A838B839C83663071058105910531F099
:1044B000C6010E94711384E090E09DC062E0C601D5
:1044C0000E9415236230710530F0C6010E947113FD
:1044D00085E090E090C0F80163AB62E0C6010E9405
:1044E0001523272F862F922FF80123A9211108C009
:1044F000019771F0C6010E94711386E090E07BC0C5
:10450000419730F0C6010E94711387E090E073C0BC
:10451000F80164AB62E0C6010E941523AB0177236A
:1045200054F5272F3327233E3105D9F020F4223EBE
:10453000310559F00DC0273E310521F0283E3105E7
:1045400069F006C029E130E00EC02EE130E00BC07A
:10455000C6010E94711387E090E04DC028E130E071
:1045600002C02DE130E07727629FA001639F500DCC
:10457000729F500D1124F80156AB45ABC8010E9443
:104580003520F80184A98823A1F1B12C0F2EF9E17F
:10459000AF2EF02D8B2C912CA89CC001A99C900DC6
:1045A0001124855B9F4FA8016B2D800F911F0E94E6
:1045B000DA277C01019679F0C6010E9471138FEF12
:1045C000881A980A2AE0289DC001299D900D11247F
:1045D0008E0D9F1D10C0B394F80184A9B816D0F2B7
:1045E0008FEF9FEF08C080E090E005C082E090E090
:1045F00002C08FEF9FEF29960FB6F894DEBF0FBE73
:10460000CDBFDF91CF911F910F91FF90EF90DF9081
:10461000CF90BF90AF909F908F90089561157105D6
:1046200019F086960E9404390895AF92BF92CF92F6
:10463000DF92EF92FF920F931F93CF93DF9300D0FF
:104640001F92CDB7DEB76623F1F0A62E8C01B12CF8
:10465000C12CD12C76019E012E5F3F4F41E050E0EE
:10466000BE016F5F7F4FC8010E942E10FE2CED2C03
:10467000DC2CCC248981C80ED11CE11CF11CB39424
:10468000AB10E9CF03C0C12CD12C7601C701B60114
:104690000F900F900F90DF91CF911F910F91FF908E
:1046A000EF90DF90CF90BF90AF900895CF92DF92C0
:1046B000EF92FF920F931F93CF93DF9300D01F923F
:1046C000CDB7DEB78C01C12CD12C76019E012E5FB7
:1046D0003F4F41E050E0BE016F5F7F4FC8010E9435
:1046E0002E10CC0CDD1CEE1CFF1CCC0CDD1CEE1CBB
:1046F000FF1CCC0CDD1CEE1CFF1CCC0CDD1CEE1CCE
:10470000FF1CCC0CDD1CEE1CFF1CCC0CDD1CEE1CBD
:10471000FF1CCC0CDD1CEE1CFF1C8981982F9F77A1
:10472000C90ED11CE11CF11C882384F2C701B6011B
:104730000F900F900F90DF91CF911F910F91FF90ED
:10474000EF90DF90CF900895FC0185850895FC01DE
:1047500016861786108A118A0895FC011186128622
:1047600013861486158616861786108A118A089570
:10477000CF93DF93EC0119821A821B821C821D8267
:104780001E821F8218860E94AD238FEF8883DF91DF
:10479000CF9108950E94B82308954F925F926F922F
:1047A0007F929F92AF92BF92CF92DF92EF92FF9251
:1047B0000F931F93CF93DF93CDB7DEB7C056D109C8
:1047C0000FB6F894DEBF0FBECDBF6C017B018C012C
:1047D0000A5F1F4F9E012D5F3F4F41E050E0BE0139
:1047E0006F5F7F4FC8010E942E108981803E30F498
:1047F000803CE0F5803808F456C00BC0803F09F4D7
:104800007EC038F0873F09F47AC08F3F09F4D3C0E7
:1048100039C393E0D70154969C935497982F9F7077
:1048200053969C935397807F55968C939E012D5F52
:104830003F4F41E050E0B7016A5E7F4FC8010E94E0
:104840002E109E012D5F3F4F41E050E0B701695EA1
:104850007F4FC8010E942E10D601ED91FC91309738
:1048600009F413C3C701429609950FC392E0F701FB
:10487000948B982F9F70938B807F858B9E012D5FEB
:104880003F4F41E050E0B7016A5E7F4FC8010E9490
:104890002E10D601ED91FC91309709F4F6C2C701B4
:1048A00042960995F2C2F701868B84898330B8F06D
:1048B0006894BB24B1F86B2D70E06B5E7F4F6E0D7A
:1048C0007F1D9E012D5F3F4F41E050E0C8010E94D7
:1048D0002E10B394D70154968C91B81660F38823A8
:1048E00021F090E09F5F9813FDCFD601ED91FC91F0
:1048F000309709F4CAC2C70142960995C6C2F701AA
:1049000080818D83C8010E9456237F836E83298115
:10491000203F49F428876F5F7F4F7F836E83EE24AB
:10492000E394F12C02C0E12CF12CAE80BF80F3E3C4
:10493000AF16B10428F00F2EF2E3AF2EB12CF02DFC
:10494000EA14FB04B8F4B7016D5F7F4F25E030E057
:104950002C0F3D1F620F731F9E012D5F3F4F41E0E3
:1049600050E0C8010E942E103FEFE31AF30AEA1448
:10497000FB0448F38E819F81A816B90680F48A193A
:104980009B09D6011C964D915D916D917C911F976D
:10499000480F591F611D711DC8010E94BE14D60128
:1049A0001296ED91FC911397309709F46EC2CE01E7
:1049B000059609956AC29E012D5F3F4F41E050E088
:1049C000BE016F5F7F4FC8010E942E10C8010E9478
:1049D00056232B013C01F70180818D835F824E823B
:1049E000E981E8878E2F90E08038910508F0FEC1BC
:1049F000FC01EC5CFF4F0C94BA3741145104610484
:104A0000710409F0DCC133C2411451046104710422
:104A100009F0BEC12CC2411451046104710409F0B3
:104A2000A0C125C2411451046104710409F082C17E
:104A30001EC2411451046104710409F064C117C21B
:104A4000411451046104710409F046C110C24114BB
:104A500051046104710409F028C109C241145104D0
:104A60006104710409F00AC102C2411451046104D5
:104A7000710409F0E8C0FBC181E0D7011D968C9359
:104A8000F6C163E0C8010E941523162F072FF82EE8
:104A9000462F572F682F792FC6010E949120F98643
:104AA0000A871B87E4C19E012D5F3F4F41E050E024
:104AB000BE01615A7F4FC8010E942E109E012D5FDA
:104AC0003F4F41E050E0BE01655C7F4FC8010E944E
:104AD0002E1041E050E00BAC02C0440F551F0A9469
:104AE000E2F7A0966FADA097C6010E948820F6015C
:104AF000448555856685778542505109610971095C
:104B0000440D551D661D771DC8010E94BE14A09658
:104B10008FADA09789878BAD8A871B861C86A7C11E
:104B20009E012D5F3F4F41E050E0BE01605A7F4F34
:104B3000C8010E942E109E012D5F3F4F41E050E0C2
:104B4000BE01615A7F4FC8010E942E1084E2E0E846
:104B5000F0E0DE01DB9601900D928A95E1F7A196D7
:104B6000EFADA19787E08E0F8F3008F045C0A0967B
:104B70008FADA097882319F08130D9F034C00E2E64
:104B8000000CFF0B3796EE0FFF1FEC0FFD1F63AD00
:104B900074AD8E01075F1F4FC8010E940439F801F0
:104BA00001900020E9F731978DE490E091838083B4
:104BB0002BC00E2E000CFF0B3A96EE0FFF1FEC0FD2
:104BC000FD1F63AD74AD8E01075F1F4FC8010E94CA
:104BD0000439F80101900020E9F731978DE690E063
:104BE0009183808311C085E492E79A87898782E761
:104BF00090E09C878B8708C085E492E79A87898735
:104C000082E790E09C878B87DE011996FD01019079
:104C10000020E9F73197EA1BFB0BFF83EE8327C1E6
:104C200062E0C8010E94152379876A8720C161E08C
:104C3000C8010E94152369871AC161E0C8010E945A
:104C40001523698714C1E12CF12C9E012D5F3F4F84
:104C500041E050E0BE016E5F7F4FC8010E942E1000
:104C6000FFEFEF1AFF0AC7010F2C000CAA0BBB0BBA
:104C700084159505A605B70540F3F9C0F12C9E01F2
:104C80002D5F3F4F41E050E0BE016E5F7F4FC80196
:104C90000E942E10F3948F2D90E0A0E0B0E08415D8
:104CA0009505A605B70558F3E2C0F12C9E012D5FCE
:104CB0003F4F41E050E0BE016E5F7F4FC8010E9450
:104CC0002E10F3948F2D90E0A0E0B0E084159505B0
:104CD000A605B70558F3CBC0F12C9E012D5F3F4FC1
:104CE00041E050E0BE016E5F7F4FC8010E942E1070
:104CF000F3948F2D90E0A0E0B0E084159505A60513
:104D0000B70558F3B4C0F12C9E012D5F3F4F41E031
:104D100050E0BE016E5F7F4FC8010E942E10F394D9
:104D20008F2D90E0A0E0B0E084159505A605B705AD
:104D300058F39DC0F12C9E012D5F3F4F41E050E0A4
:104D4000BE016E5F7F4FC8010E942E10F3948F2D1D
:104D500090E0A0E0B0E084159505A605B70558F3EE
:104D600086C0F12C9E012D5F3F4F41E050E0BE0117
:104D70006E5F7F4FC8010E942E10F3948F2D90E03C
:104D8000A0E0B0E084159505A605B70558F36FC0FF
:104D9000F12C9E012D5F3F4F41E050E0BE016E5F60
:104DA0007F4FC8010E942E10F3948F2D90E0A0E059
:104DB000B0E084159505A605B70558F358C0F12C49
:104DC0009E012D5F3F4F41E050E0BE016E5F7F4F7F
:104DD000C8010E942E10F3948F2D90E0A0E0B0E067
:104DE00084159505A605B70558F341C0842D23E326
:104DF000421651046104710408F082E3982E88235E
:104E0000D1F07E0139E0E30EF11C8150DE01A80FE4
:104E1000B11DFD013A965F019E012D5F3F4F41E0BC
:104E200050E0B701C8010E942E10FFEFEF1AFF0AF1
:104E3000AE14BF0489F7FE01E90DF11D118623E3CD
:104E4000421651046104710490F0D6011C964D91F4
:104E50005D916D917C911F974253510961097109D0
:104E6000440D551D661D771DC8010E94BE14D60154
:104E70001496ED91FC911597309739F0CE01059677
:104E8000099503C081E0F7018587C05ADF4F0FB64F
:104E9000F894DEBF0FBECDBFDF91CF911F910F9170
:104EA000FF90EF90DF90CF90BF90AF909F907F905A
:104EB0006F905F904F9008958F929F92AF92BF92A4
:104EC000CF92DF92EF92FF921F93CF93DF93FB017C
:104ED0001585111161C06A01EB017C015C01F6E0EE
:104EE000AF0EB11C4D815E816F81788589859A8571
:104EF000AB85BC85480F591F6A1F7B1FC5010E94E7
:104F0000BE148E859F85A889B9898C0D9D1DA11D14
:104F1000B11D8E879F87A88BB98BC5010E94562330
:104F20008E849F84A888B98886169706A806B90635
:104F3000A0F1A5019401261B370B480B590B2E87B6
:104F40003F87488B598BBE01C7010E94CD23F701D3
:104F500084859585A685B7854D815E816F8178852D
:104F6000841B950BA60BB70B89879A87AB87BC87E9
:104F70002D8521110DC021E049815A816B817C81F1
:104F800084179507A607B70708F420E0822F01C011
:104F900081E08D8711E001C010E0812FDF91CF917A
:104FA0001F91FF90EF90DF90CF90BF90AF909F90B8
:104FB0008F9008958F929F92AF92BF92CF92DF927F
:104FC000EF92FF920F931F93CF93DF93CDB7DEB78E
:104FD00029970FB6F894DEBF0FBECDBF8C016A01D2
:104FE000FC01628B60837A01F6E0EF0EF11C9E01FA
:104FF0002F5F3F4F44E050E0BE016B5F7F4FC70122
:105000000E942E10198667E771E0CE0105960E9476
:10501000FB38892B19F080E090E02BC064E0C701D9
:105020000E94152369837A838B839C83F8016183B3
:10503000728383839483F60184849584A684B784E1
:10504000F80185829682A782B08611861286138621
:105050001486AB01BC01480D591D6A1D7B1DC7019B
:105060000E94BE14811103C08FEF9FEF02C081E048
:1050700090E029960FB6F894DEBF0FBECDBFDF914A
:10508000CF911F910F91FF90EF90DF90CF90BF9045
:10509000AF909F908F90089581E080938A04089547
:1050A000EEE8F4E020918B04228367837087818788
:1050B0009287CF010895CF92DF92EF92FF920F93E4
:1050C0001F93CF93DF93082F80919104807F8039C5
:1050D00001F5CEE8D4E060918D0470E080E090E0CE
:1050E0000E946A3620E030E04FE753E40E94C93561
:1050F0006B017C016D8170E080E090E00E946C3675
:105100009B01AC01C701B6010E94F8360E943B36F4
:105110006D83002361F0C1E9D4E0015010E00E5628
:105120001B4F89910E940935C017D107D1F7DF9134
:10513000CF911F910F91FF90EF90DF90CF90089546
:105140000F931F93CF93DF93662371F0EC016150AF
:10515000062F10E00F5F1F4F080F191F89910E9443
:105160000935C017D107D1F7DF91CF911F910F916A
:1051700008951F93CF93DF93162FCEE8D4E090EBE2
:105180009B831C828D8383E00E945B2880EC8B8351
:105190001C8382E00E945B28DF91CF911F910895CC
:1051A000E82FE07FE03F09F4E82F8E2F90E0FC012C
:1051B000E058F109E038F10540F4EC54FF4F0C944D
:1051C000BA3782E0089583E0089580E0089581E091
:1051D0000895FF920F931F93CF93DF93D82F8B01E6
:1051E000C0918A04C23051F1C33009F453C0C130B8
:1051F00009F057C0803F09F456C00E94D028813082
:1052000039F4F8018083D09391041092A50150C025
:1052100081110AC08091A501813059F4D093920484
:1052200082E080938B0405C0D093910481E0809349
:105230008B0482E080938A04C0E03AC00E94D028A8
:10524000C82F882339F081E080938A041092A50149
:10525000C0E02EC0E0918B04FF24F394FE0EF09288
:105260008B04F0E0E257FB4FD38380919104807F61
:105270000E94D028F8121CC081E080938A04F801B3
:10528000F08280919104807981F081E08093A50182
:10529000C1E00EC0873F59F481E080938A04C0E0EA
:1052A00007C0C0E005C0C0E003C0C1E001C0C0E06D
:1052B0008C2FDF91CF911F910F91FF90089508954A
:1052C0000895FC01238130E8320F313640F43181FA
:1052D000232B2383628103960E94A0280895FC015A
:1052E000628103960E94A028089580938D040895FA
:1052F0008FEF8FB9779BFECF8FB1089582E38093B4
:10530000A7010E9478290E9478298F3F39F0809167
:10531000A7018111F8CF80E090E0089581E090E04E
:105320000895C49A0E9478290895CF93DF93C49872
:105330000E947E29EC01892B19F40E94912902C058
:10534000C1E0D0E0CE01DF91CF9108950F931F937C
:10535000CF93DF93082F192FEB0184E18093A801ED
:105360000E9478298F3F39F48091A8018111F8CFEC
:1053700080E090E02CC08E3F41F5E02FF12F8FEFC1
:105380008FB9779BFECF9FB1DF0190838FB9779B59
:10539000FECF9FB111969C9311978FB9779BFECF4B
:1053A0009FB112969C9312978FB9779BFECF9FB1B6
:1053B00013969C9324973496209711F70E9478298E
:1053C0000E94782981E090E002C080E090E0DF91C7
:1053D000CF911F910F9108950F931F93CF938C013D
:1053E000C62F0E947E29009759F1CFB9779BFECF37
:1053F000CD3F21F1F80198013E5FDF0180818FB937
:10540000779BFECF11968C918FB9779BFECF32960A
:10541000E217F30791F78FEF8FB9779BFECF8FEFEE
:105420008FB9779BFECF0E9478298F7131E020E001
:10543000853009F030E0832F922F02C081E090E0A8
:10544000CF911F910F910895CF92DF92EF92FF922B
:10545000CF93C82F6A017B0188234CF440E050E0D1
:10546000BA0187E30E94242A8230E0F5CF770E94B8
:1054700091290E949529892BA1F18C2F80648FB9E5
:10548000779BFECF8F2D9927AA27BB278FB9779BB4
:10549000FECFC701AA27BB278FB9779BFECFBB27BB
:1054A000AF2D9E2D8D2D8FB9779BFECFCFB8779BDB
:1054B000FECFCC2321F0C83021F487E803C085E972
:1054C00001C081E08FB9779BFECFCC3011F40E94F0
:1054D0007829CAE00E947829882324F4C150D1F7A2
:1054E00001C08FEFCF91FF90EF90DF90CF900895A4
:1054F000CF92DF92EF92FF920F931F93CF93DF93A0
:1055000000D000D0CDB7DEB7811199C08091660080
:1055100081FF03C0809166009FC0699A1AE00E94D3
:1055200078291150E1F740E050E0BA0180E00E9494
:10553000242A813009F08BC084E68093A8014AEACE
:1055400051E060E070E088E00E94242A813009F098
:105550003FC0CE0101966C017E0195E0E90EF11C81
:1055600086010E947829F80181938F01EE16FF06CB
:10557000C1F78B81813009F06AC08C818A3A09F0C9
:1055800066C08091A801882349F040E050E060E0C7
:1055900070E489EA0E94242A8111F3CF8091A80146
:1055A000882309F454C040E050E0BA018AE30E9425
:1055B000242A81114CC00E947829F60181936F0141
:1055C000EE16FF06C1F7898186FD3BC084E03AC034
:1055D00040E050E0BA0189EA0E94242A823018F0A3
:1055E00001E011E002C002E019EA8091A8018823DD
:1055F00041F040E050E0BA01812F0E94242A81113D
:10560000F4CF8091A801882311F140E052E060E0DE
:1056100070E080E10E94242A811119C00093A60144
:105620000E949129002341F0809166008E7F809333
:1056300066008DB18C7F8DB9809166000DC081E0D0
:105640000BC08CE08093A6010E949129EDCF1092AF
:10565000A6010E949129F0CF0F900F900F900F900C
:10566000DF91CF911F910F91FF90EF90DF90CF903E
:105670000895811103C080916600089581E0089526
:105680000F93CF93DF93EB01811144C0002309F402
:1056900043C08091660080FD41C08091A60183FDDA
:1056A00009C0012E19E0220F331F441F551F1A9500
:1056B000D1F7102D013081F4BA01A90181E10E94D6
:1056C000242A811120C060E072E0CE010E94A62948
:1056D000892BC9F000E017C0BA01A90182E10E943C
:1056E000242A811110C060E072E0CE010E94A62938
:1056F000892B19F0DE5F0150B1F740E050E0BA01AC
:105700008CE00E94242A0E94912981E0011107C0A7
:1057100080E005C084E003C084E001C083E0DF9145
:10572000CF910F910895CF92DF92EF92FF920F9356
:10573000CF93DF93EB0169017A01811151C00023FE
:1057400009F450C08091660080FD4EC080916600D3
:1057500082FD4CC08091A60183FD09C00B2EB9E0EB
:10576000CC0CDD1CEE1CFF1CBA95D1F7B02D01301E
:1057700079F4B701A60188E10E94242A811129C089
:105780006EEFCE010E94EC29892B19F100E021C0B7
:10579000867039F0402F50E060E070E087E90E94A9
:1057A000242AB701A60189E10E94242A811111C08F
:1057B0006CEFCE010E94EC29892B19F0DE5F0150BD
:1057C000B9F76DEF80E090E00E94EC29892B09F495
:1057D00001E00E94912981E0011109C080E007C029
:1057E00084E005C084E003C083E001C082E0DF9173
:1057F000CF910F91FF90EF90DF90CF900895EF92AF
:10580000FF920F931F93CF93DF93CDB7DEB76097CF
:105810000FB6F894DEBF0FBECDBF811196C16530C3
:1058200071F4FA018081882319F0813019F08FC159
:1058300080E090C181E0FA01818380E08BC180919A
:10584000660080FD86C18A01862F90E08F30910529
:1058500008F060C1FC01EC5CFE4F0C94BA370E946A
:105860009529892B09F458C10E94912910E069C13A
:1058700040E050E0BA0189E00E94242A81114EC123
:1058800060E170E0CE0101960E94A629892B09F4FF
:1058900047C1898182958695869583708130D9F438
:1058A000898590E0382F22278A8590E00196820F23
:1058B000931FA0E0B0E0072E7AE0880F991FAA1F7F
:1058C000BB1F7A95D1F7702DF80180839183A28355
:1058D000B38310E036C1298522952695269523703D
:1058E0008885F4E08F9FC0011124820F911D9C01D7
:1058F0002F5F3F4F8F81837090E0982F8827990FFB
:10590000990F820F931FA0E0B0E03E813F702B857E
:10591000221F2227221F320F2A852370220F230FD6
:10592000275004C0880F991FAA1FBB1F2A95D2F7C2
:10593000F80180839183A283B38310E002C180E0E9
:1059400092E0FA019183808310E0FBC0F090A60101
:10595000F2FE31C040E050E0BA018DE80E94242AF6
:105960008111E0C00E94782960E170E0CE010196CB
:105970000E94A629892B09F4D7C00F2EF0E3FF2E31
:10598000F02D0E947829FA94F110FBCF2B852295F7
:105990002F7080E190E0A0E0B0E004C0880F991F74
:1059A000AA1FBB1F2A95D2F7F80180839183A28397
:1059B000B38310E0C6C040E050E0BA0189E00E9425
:1059C000242A8111B3C060E170E0CE0101960E94EB
:1059D000A629892B09F4ACC0F1FE20C02B852F73BA
:1059E0008C85881F8827881F90E00196820F911D63
:1059F000820F911D2E852295269526952370215084
:105A000002C0880F991F2A95E2F7A0E0B0E0F801E4
:105A100080839183A283B38310E093C08C85282F69
:105A2000237082958695877090E0F8E02F9F800D17
:105A3000911D112401962B852C7730E03595279503
:105A4000359527952F5F3F4F829FA001839F500D73
:105A5000929F500D1124CA01A0E0B0E0F8018083AC
:105A60009183A283B38310E06CC08091A601FA01F8
:105A7000808310E066C040E050E0BA0189E00E94F7
:105A8000242A811157C060E170E0C8010E94A62954
:105A900011E0892B09F455C010E053C040E050E0FC
:105AA000BA018AE00E94242A811146C060E170E0B8
:105AB000C8010E94A62911E0892B09F442C010E018
:105AC00040C040E050E0BA018AE30E94242A8111DC
:105AD00035C078010C5F1F4F0E947829F701819330
