:100000000C942A000C9447000C9447000C94470071
:100010000C9447000C9447000C9447000C94470044
:100020000C9447000C9447000C9447000C94470034
:100030000C9447000C947D020C9447000C944202EF
:100040000C9447000C9447000C9447000C94470014
:100050000C94470011241FBECFE5D8E0DEBFCDBF12
:1000600010E0A0E6B0E0E8EEF5E002C005900D92E9
:10007000A438B107D9F721E0A4E8B0E001C01D928F
:10008000A232B207E1F70E94B3000C94F2020C9482
:100090000000FC018FB7F89471836083538342831F
:1000A00017821682158214828FBF0895FC019FB7B4
:1000B000F8944481558141155105D9F02681378145
:1000C000A081B181A20FB31F8C912F5F3F4F378367
:1000D0002683628173812617370730F44150510916
:1000E000558344839FBF0895261B370B3783268390
:1000F000F5CF80E09FBF0895CF93FC01C62F4FB787
:10010000F894248135816281738126173707A0F422
:1001100086819781820F931F0E94BC02A081B181CA
:10012000A80FB91FCC938481958101969583848310
:100130004FBF8FEFCF9108954FBF80E0CF910895CB
:10014000CF93C82F682F8EE091E00E947C00882317
:1001500011F0CF9108950E94F5016C2F8EE091E08F
:10016000CF910C947C00CF93DF9300D0CDB7DEB756
:100170001A8219820E9482010E94DE0062E17AE7FF
:1001800080E090E00E94AD0180EA90E00E94A8012A
:100190000E94F5010E94FA018111FCCF0E94E0014A
:1001A000BE016F5F7F4F0E94E200813099F7698145
:1001B0007A818AE091E00E940302ECCF81E0809393
:1001C0000701089590910701923081F1933039F140
:1001D000913019F090E0892F0895803FD9F3482F8E
:1001E000407F403F09F45CC0E0E6F0E020E030E012
:1001F0009081941709F465C02F5F3F4F32962231EA
:100200003105B1F790918400913029F480930B016E
:1002100082E08093080182E080930701DBCF873F73
:10022000C9F681E08093070190E0D5CF482F407F49
:10023000403FA1F1A0E6B0E0FD0120E030E0908178
:10024000941781F12F5F3F4F329622313105B9F774
:10025000E091080141E04E0F40930801F0E0E65FB5
:10026000FE4F808330910A01307F80E090E02C9136
:100270003217C1F10196129682319105C1F780E0E3
:100280004813A8CF91E090930701FB014083809130
:100290000A01807971F1909384009DCF482FCACFD5
:1002A000482FA2CF220F331FF901E05AFF4F91814F
:1002B000992371F281E0809307011092840090E00D
:1002C0008ACF220F331FF901E05AFF4F91819130FD
:1002D00091F0992309F496CF80930A0181E08093ED
:1002E000080199CF880F991FFC01E05AFF4F8181C7
:1002F000C7CF91E070CFFB01908380930A011092E9
:10030000840069CF40E450E067EC70E08EE091E05B
:100310000E94490040E450E067E870E088E191E025
:100320000E944900109286001092850088ED8AB9DB
:1003300086E880BD87E689B910BC81E080930D0115
:1003400010921701109221011092200178940895C3
:10035000909386008093850008950F931F938B01DF
:100360009C01DC01CB0180589B47A14EBF4F880FF9
:10037000991FAA1FBB1F880F991FAA1FBB1FBC0173
:10038000CD01660F771F881F991F000F111F221FB5
:10039000331F000F111F221F331FA9019801220FC5
:1003A000331F441F551F220F331F441F551F0E9428
:1003B000D0022150310929B930BD1F910F91089504
:1003C0008091100190911101892B31F080911201DF
:1003D00090911301892B19F48FEF9FEF08958EE010
:1003E00091E00E94560090E008951092130110923F
:1003F0001201089581E02091120130911301232B05
:1004000009F080E00895FF920F931F93CF93DF933D
:1004100020911C0130911D01260F371F40911A01B8
:1004200050911B012417350730F56115710519F13D
:10043000EC012196FC01F0806130710559F08C01CE
:10044000060F171F699188E191E00E947C00C01798
:10045000D107C1F781E08093170180910D018823B6
:10046000E1F3FCB810920D0181E0DF91CF911F9173
:100470000F91FF90089580E0DF91CF911F910F9130
:10048000FF9008951F920F920FB60F9211242F9391
:100490003F934F935F936F937F938F939F93AF930C
:1004A000BF93EF93FF9380911701882361F08091B0
:1004B0001C0190911D01892BD1F41092170181E04C
:1004C00080930D0103C081E080930D01FF91EF91B6
:1004D000BF91AF919F918F917F916F915F914F915C
:1004E0003F912F910F900FBE0F901F90189588E1AC
:1004F00091E00E9456008CB9E9CF1F920F920FB67F
:100500000F9211242F933F934F935F936F937F9399
:100510008F939F93AF93BF93EF93FF938CB12091F1
:10052000850030918600232BB1F0E0918500F09199
:1005300086000995FF91EF91BF91AF919F918F91A7
:100540007F916F915F914F913F912F910F900FBECF
:100550000F901F901895682F8EE091E00E947C000C
:100560008111E8CF80912001909121010196909313
:10057000210180932001DECFAA1BBB1B51E107C0E4
:10058000AA1FBB1FA617B70710F0A61BB70B881F23
:10059000991F5A95A9F780959095BC01CD010895B2
:1005A000A1E21A2EAA1BBB1BFD010DC0AA1FBB1F77
:1005B000EE1FFF1FA217B307E407F50720F0A21BE9
:1005C000B30BE40BF50B661F771F881F991F1A9456
:1005D00069F760957095809590959B01AC01BD0180
:0805E000CF010895F894FFCF4C
:1005E80080039003A003B003C002D002E003F1022D
:1005F800F203F302F601F801F901FA01FC01FB012B
:04060800FE01FF01EF
:00000001FF
